{
  "contractName": "Blnd",
  "abi": [
    {
      "inputs": [
        {
          "internalType": "address",
          "name": "account",
          "type": "address"
        },
        {
          "internalType": "address",
          "name": "minter_",
          "type": "address"
        }
      ],
      "payable": false,
      "stateMutability": "nonpayable",
      "type": "constructor"
    },
    {
      "anonymous": false,
      "inputs": [
        {
          "indexed": true,
          "internalType": "address",
          "name": "owner",
          "type": "address"
        },
        {
          "indexed": true,
          "internalType": "address",
          "name": "spender",
          "type": "address"
        },
        {
          "indexed": false,
          "internalType": "uint256",
          "name": "amount",
          "type": "uint256"
        }
      ],
      "name": "Approval",
      "type": "event"
    },
    {
      "anonymous": false,
      "inputs": [
        {
          "indexed": true,
          "internalType": "address",
          "name": "delegator",
          "type": "address"
        },
        {
          "indexed": true,
          "internalType": "address",
          "name": "fromDelegate",
          "type": "address"
        },
        {
          "indexed": true,
          "internalType": "address",
          "name": "toDelegate",
          "type": "address"
        }
      ],
      "name": "DelegateChanged",
      "type": "event"
    },
    {
      "anonymous": false,
      "inputs": [
        {
          "indexed": true,
          "internalType": "address",
          "name": "delegate",
          "type": "address"
        },
        {
          "indexed": false,
          "internalType": "uint256",
          "name": "previousBalance",
          "type": "uint256"
        },
        {
          "indexed": false,
          "internalType": "uint256",
          "name": "newBalance",
          "type": "uint256"
        }
      ],
      "name": "DelegateVotesChanged",
      "type": "event"
    },
    {
      "anonymous": false,
      "inputs": [
        {
          "indexed": false,
          "internalType": "address",
          "name": "minter",
          "type": "address"
        },
        {
          "indexed": false,
          "internalType": "address",
          "name": "newMinter",
          "type": "address"
        }
      ],
      "name": "MinterChanged",
      "type": "event"
    },
    {
      "anonymous": false,
      "inputs": [
        {
          "indexed": true,
          "internalType": "address",
          "name": "from",
          "type": "address"
        },
        {
          "indexed": true,
          "internalType": "address",
          "name": "to",
          "type": "address"
        },
        {
          "indexed": false,
          "internalType": "uint256",
          "name": "amount",
          "type": "uint256"
        }
      ],
      "name": "Transfer",
      "type": "event"
    },
    {
      "constant": true,
      "inputs": [],
      "name": "DELEGATION_TYPEHASH",
      "outputs": [
        {
          "internalType": "bytes32",
          "name": "",
          "type": "bytes32"
        }
      ],
      "payable": false,
      "stateMutability": "view",
      "type": "function"
    },
    {
      "constant": true,
      "inputs": [],
      "name": "DOMAIN_TYPEHASH",
      "outputs": [
        {
          "internalType": "bytes32",
          "name": "",
          "type": "bytes32"
        }
      ],
      "payable": false,
      "stateMutability": "view",
      "type": "function"
    },
    {
      "constant": true,
      "inputs": [],
      "name": "PERMIT_TYPEHASH",
      "outputs": [
        {
          "internalType": "bytes32",
          "name": "",
          "type": "bytes32"
        }
      ],
      "payable": false,
      "stateMutability": "view",
      "type": "function"
    },
    {
      "constant": true,
      "inputs": [
        {
          "internalType": "address",
          "name": "",
          "type": "address"
        },
        {
          "internalType": "uint32",
          "name": "",
          "type": "uint32"
        }
      ],
      "name": "checkpoints",
      "outputs": [
        {
          "internalType": "uint32",
          "name": "fromBlock",
          "type": "uint32"
        },
        {
          "internalType": "uint96",
          "name": "votes",
          "type": "uint96"
        }
      ],
      "payable": false,
      "stateMutability": "view",
      "type": "function"
    },
    {
      "constant": true,
      "inputs": [],
      "name": "decimals",
      "outputs": [
        {
          "internalType": "uint8",
          "name": "",
          "type": "uint8"
        }
      ],
      "payable": false,
      "stateMutability": "view",
      "type": "function"
    },
    {
      "constant": true,
      "inputs": [
        {
          "internalType": "address",
          "name": "",
          "type": "address"
        }
      ],
      "name": "delegates",
      "outputs": [
        {
          "internalType": "address",
          "name": "",
          "type": "address"
        }
      ],
      "payable": false,
      "stateMutability": "view",
      "type": "function"
    },
    {
      "constant": true,
      "inputs": [],
      "name": "minter",
      "outputs": [
        {
          "internalType": "address",
          "name": "",
          "type": "address"
        }
      ],
      "payable": false,
      "stateMutability": "view",
      "type": "function"
    },
    {
      "constant": true,
      "inputs": [],
      "name": "name",
      "outputs": [
        {
          "internalType": "string",
          "name": "",
          "type": "string"
        }
      ],
      "payable": false,
      "stateMutability": "view",
      "type": "function"
    },
    {
      "constant": true,
      "inputs": [
        {
          "internalType": "address",
          "name": "",
          "type": "address"
        }
      ],
      "name": "nonces",
      "outputs": [
        {
          "internalType": "uint256",
          "name": "",
          "type": "uint256"
        }
      ],
      "payable": false,
      "stateMutability": "view",
      "type": "function"
    },
    {
      "constant": true,
      "inputs": [
        {
          "internalType": "address",
          "name": "",
          "type": "address"
        }
      ],
      "name": "numCheckpoints",
      "outputs": [
        {
          "internalType": "uint32",
          "name": "",
          "type": "uint32"
        }
      ],
      "payable": false,
      "stateMutability": "view",
      "type": "function"
    },
    {
      "constant": true,
      "inputs": [],
      "name": "symbol",
      "outputs": [
        {
          "internalType": "string",
          "name": "",
          "type": "string"
        }
      ],
      "payable": false,
      "stateMutability": "view",
      "type": "function"
    },
    {
      "constant": true,
      "inputs": [],
      "name": "totalSupply",
      "outputs": [
        {
          "internalType": "uint256",
          "name": "",
          "type": "uint256"
        }
      ],
      "payable": false,
      "stateMutability": "view",
      "type": "function"
    },
    {
      "constant": false,
      "inputs": [
        {
          "internalType": "address",
          "name": "minter_",
          "type": "address"
        }
      ],
      "name": "setMinter",
      "outputs": [],
      "payable": false,
      "stateMutability": "nonpayable",
      "type": "function"
    },
    {
      "constant": false,
      "inputs": [
        {
          "internalType": "address",
          "name": "dst",
          "type": "address"
        },
        {
          "internalType": "uint256",
          "name": "rawAmount",
          "type": "uint256"
        }
      ],
      "name": "mint",
      "outputs": [],
      "payable": false,
      "stateMutability": "nonpayable",
      "type": "function"
    },
    {
      "constant": true,
      "inputs": [
        {
          "internalType": "address",
          "name": "account",
          "type": "address"
        },
        {
          "internalType": "address",
          "name": "spender",
          "type": "address"
        }
      ],
      "name": "allowance",
      "outputs": [
        {
          "internalType": "uint256",
          "name": "",
          "type": "uint256"
        }
      ],
      "payable": false,
      "stateMutability": "view",
      "type": "function"
    },
    {
      "constant": false,
      "inputs": [
        {
          "internalType": "address",
          "name": "spender",
          "type": "address"
        },
        {
          "internalType": "uint256",
          "name": "rawAmount",
          "type": "uint256"
        }
      ],
      "name": "approve",
      "outputs": [
        {
          "internalType": "bool",
          "name": "",
          "type": "bool"
        }
      ],
      "payable": false,
      "stateMutability": "nonpayable",
      "type": "function"
    },
    {
      "constant": false,
      "inputs": [
        {
          "internalType": "address",
          "name": "owner",
          "type": "address"
        },
        {
          "internalType": "address",
          "name": "spender",
          "type": "address"
        },
        {
          "internalType": "uint256",
          "name": "rawAmount",
          "type": "uint256"
        },
        {
          "internalType": "uint256",
          "name": "deadline",
          "type": "uint256"
        },
        {
          "internalType": "uint8",
          "name": "v",
          "type": "uint8"
        },
        {
          "internalType": "bytes32",
          "name": "r",
          "type": "bytes32"
        },
        {
          "internalType": "bytes32",
          "name": "s",
          "type": "bytes32"
        }
      ],
      "name": "permit",
      "outputs": [],
      "payable": false,
      "stateMutability": "nonpayable",
      "type": "function"
    },
    {
      "constant": true,
      "inputs": [
        {
          "internalType": "address",
          "name": "account",
          "type": "address"
        }
      ],
      "name": "balanceOf",
      "outputs": [
        {
          "internalType": "uint256",
          "name": "",
          "type": "uint256"
        }
      ],
      "payable": false,
      "stateMutability": "view",
      "type": "function"
    },
    {
      "constant": false,
      "inputs": [
        {
          "internalType": "address",
          "name": "dst",
          "type": "address"
        },
        {
          "internalType": "uint256",
          "name": "rawAmount",
          "type": "uint256"
        }
      ],
      "name": "transfer",
      "outputs": [
        {
          "internalType": "bool",
          "name": "",
          "type": "bool"
        }
      ],
      "payable": false,
      "stateMutability": "nonpayable",
      "type": "function"
    },
    {
      "constant": false,
      "inputs": [
        {
          "internalType": "address",
          "name": "src",
          "type": "address"
        },
        {
          "internalType": "address",
          "name": "dst",
          "type": "address"
        },
        {
          "internalType": "uint256",
          "name": "rawAmount",
          "type": "uint256"
        }
      ],
      "name": "transferFrom",
      "outputs": [
        {
          "internalType": "bool",
          "name": "",
          "type": "bool"
        }
      ],
      "payable": false,
      "stateMutability": "nonpayable",
      "type": "function"
    },
    {
      "constant": false,
      "inputs": [
        {
          "internalType": "address",
          "name": "delegatee",
          "type": "address"
        }
      ],
      "name": "delegate",
      "outputs": [],
      "payable": false,
      "stateMutability": "nonpayable",
      "type": "function"
    },
    {
      "constant": false,
      "inputs": [
        {
          "internalType": "address",
          "name": "delegatee",
          "type": "address"
        },
        {
          "internalType": "uint256",
          "name": "nonce",
          "type": "uint256"
        },
        {
          "internalType": "uint256",
          "name": "expiry",
          "type": "uint256"
        },
        {
          "internalType": "uint8",
          "name": "v",
          "type": "uint8"
        },
        {
          "internalType": "bytes32",
          "name": "r",
          "type": "bytes32"
        },
        {
          "internalType": "bytes32",
          "name": "s",
          "type": "bytes32"
        }
      ],
      "name": "delegateBySig",
      "outputs": [],
      "payable": false,
      "stateMutability": "nonpayable",
      "type": "function"
    },
    {
      "constant": true,
      "inputs": [
        {
          "internalType": "address",
          "name": "account",
          "type": "address"
        }
      ],
      "name": "getCurrentVotes",
      "outputs": [
        {
          "internalType": "uint96",
          "name": "",
          "type": "uint96"
        }
      ],
      "payable": false,
      "stateMutability": "view",
      "type": "function"
    },
    {
      "constant": true,
      "inputs": [
        {
          "internalType": "address",
          "name": "account",
          "type": "address"
        },
        {
          "internalType": "uint256",
          "name": "blockNumber",
          "type": "uint256"
        }
      ],
      "name": "getPriorVotes",
      "outputs": [
        {
          "internalType": "uint96",
          "name": "",
          "type": "uint96"
        }
      ],
      "payable": false,
      "stateMutability": "view",
      "type": "function"
    }
  ],
  "bytecode": "0x60806040526b015b6a759f4835dc2400000060005534801561002057600080fd5b5060405161234b38038061234b8339818101604052604081101561004357600080fd5b508051602091820151600080546001600160a01b03841680835260038652604080842080546001600160601b0319166001600160601b03909416939093179092558254825190815291519495939490937fddf252ad1be2c89b69c2b068fc378daa952ba7f163c4a11628f55a4df523b3ef928290030190a3600180546001600160a01b0319166001600160a01b038381169190911791829055604080516000815292909116602083015280517f3b0007eb941cf645526cbb3a4fdaecda9d28ce4843167d9263b536a1f1edc0f69281900390910190a150506122218061012a6000396000f3fe608060405234801561001057600080fd5b50600436106101585760003560e01c806370a08231116100c3578063c3cda5201161007c578063c3cda52014610463578063d505accf146104aa578063dd62ed3e146104fb578063e7a324dc14610529578063f1127ed814610531578063fca3b5aa1461058b57610158565b806370a0823114610375578063782d6fe11461039b5780637ecebe00146103e357806395d89b4114610409578063a9059cbb14610411578063b4b5ea571461043d57610158565b806330adf81f1161011557806330adf81f14610296578063313ce5671461029e57806340c10f19146102bc578063587cde1e146102ea5780635c19a95c146103105780636fcfff451461033657610158565b806306fdde031461015d57806307546172146101da578063095ea7b3146101fe57806318160ddd1461023e57806320606b701461025857806323b872dd14610260575b600080fd5b6101656105b1565b6040805160208082528351818301528351919283929083019185019080838360005b8381101561019f578181015183820152602001610187565b50505050905090810190601f1680156101cc5780820380516001836020036101000a031916815260200191505b509250505060405180910390f35b6101e26105d4565b604080516001600160a01b039092168252519081900360200190f35b61022a6004803603604081101561021457600080fd5b506001600160a01b0381351690602001356105e3565b604080519115158252519081900360200190f35b6102466106a1565b60408051918252519081900360200190f35b6102466106a7565b61022a6004803603606081101561027657600080fd5b506001600160a01b038135811691602081013590911690604001356106c2565b610246610807565b6102a6610822565b6040805160ff9092168252519081900360200190f35b6102e8600480360360408110156102d257600080fd5b506001600160a01b038135169060200135610827565b005b6101e26004803603602081101561030057600080fd5b50356001600160a01b03166109f8565b6102e86004803603602081101561032657600080fd5b50356001600160a01b0316610a13565b61035c6004803603602081101561034c57600080fd5b50356001600160a01b0316610a20565b6040805163ffffffff9092168252519081900360200190f35b6102466004803603602081101561038b57600080fd5b50356001600160a01b0316610a38565b6103c7600480360360408110156103b157600080fd5b506001600160a01b038135169060200135610a5c565b604080516001600160601b039092168252519081900360200190f35b610246600480360360208110156103f957600080fd5b50356001600160a01b0316610c89565b610165610c9b565b61022a6004803603604081101561042757600080fd5b506001600160a01b038135169060200135610cbb565b6103c76004803603602081101561045357600080fd5b50356001600160a01b0316610cf7565b6102e8600480360360c081101561047957600080fd5b506001600160a01b038135169060208101359060408101359060ff6060820135169060808101359060a00135610d68565b6102e8600480360360e08110156104c057600080fd5b506001600160a01b03813581169160208101359091169060408101359060608101359060ff6080820135169060a08101359060c00135611010565b6102466004803603604081101561051157600080fd5b506001600160a01b0381358116916020013516611451565b610246611485565b6105636004803603604081101561054757600080fd5b5080356001600160a01b0316906020013563ffffffff166114a0565b6040805163ffffffff90931683526001600160601b0390911660208301528051918290030190f35b6102e8600480360360208110156105a157600080fd5b50356001600160a01b03166114d5565b60405180604001604052806007815260200166213632b73232b960c91b81525081565b6001546001600160a01b031681565b6000806000198314156105f9575060001961061e565b61061b83604051806060016040528060258152602001611fff60259139611588565b90505b3360008181526002602090815260408083206001600160a01b0389168085529083529281902080546001600160601b0319166001600160601b038716908117909155815190815290519293927f8c5be1e5ebec7d5bd14f71427d1e84f3dd0314c0f7b2291e5b200ac8c7c3b925929181900390910190a360019150505b92915050565b60005481565b604051806043611fbc82396043019050604051809103902081565b6001600160a01b03831660009081526002602090815260408083203380855290835281842054825160608101909352602580845291936001600160601b0390911692859261071a9288929190611fff90830139611588565b9050866001600160a01b0316836001600160a01b03161415801561074757506001600160601b0382811614155b156107ef57600061077183836040518060600160405280603d81526020016120f6603d9139611622565b6001600160a01b038981166000818152600260209081526040808320948a168084529482529182902080546001600160601b0319166001600160601b03871690811790915582519081529151949550929391927f8c5be1e5ebec7d5bd14f71427d1e84f3dd0314c0f7b2291e5b200ac8c7c3b92592918290030190a3505b6107fa87878361168f565b5060019695505050505050565b604051806052611f1d82396052019050604051809103902081565b601281565b6001546001600160a01b031633146108705760405162461bcd60e51b81526004018080602001828103825260248152602001806121696024913960400191505060405180910390fd5b6001600160a01b0382166108b55760405162461bcd60e51b815260040180806020018281038252602f815260200180611dc7602f913960400191505060405180910390fd5b60006108d9826040518060600160405280602281526020016120d460229139611588565b90506109116108f3600054836001600160601b031661186f565b60405180606001604052806027815260200161208560279139611588565b6001600160601b0390811660009081556001600160a01b0385168152600360209081526040918290205482516060810190935260258084526109639491909116928592909190612024908301396118c9565b6001600160a01b038416600081815260036020908152604080832080546001600160601b0319166001600160601b039687161790558051948616855251929391927fddf252ad1be2c89b69c2b068fc378daa952ba7f163c4a11628f55a4df523b3ef9281900390910190a36001600160a01b038084166000908152600460205260408120546109f3921683611933565b505050565b6004602052600090815260409020546001600160a01b031681565b610a1d3382611ac5565b50565b60066020526000908152604090205463ffffffff1681565b6001600160a01b03166000908152600360205260409020546001600160601b031690565b6000438210610a9c5760405162461bcd60e51b8152600401808060200182810382526027815260200180611ed26027913960400191505060405180910390fd5b6001600160a01b03831660009081526006602052604090205463ffffffff1680610aca57600091505061069b565b6001600160a01b038416600090815260056020908152604080832063ffffffff600019860181168552925290912054168310610b46576001600160a01b03841660009081526005602090815260408083206000199490940163ffffffff1683529290522054600160201b90046001600160601b0316905061069b565b6001600160a01b038416600090815260056020908152604080832083805290915290205463ffffffff16831015610b8157600091505061069b565b600060001982015b8163ffffffff168163ffffffff161115610c4457600282820363ffffffff16048103610bb3611d67565b506001600160a01b038716600090815260056020908152604080832063ffffffff858116855290835292819020815180830190925254928316808252600160201b9093046001600160601b03169181019190915290871415610c1f5760200151945061069b9350505050565b805163ffffffff16871115610c3657819350610c3d565b6001820392505b5050610b89565b506001600160a01b038516600090815260056020908152604080832063ffffffff909416835292905220546001600160601b03600160201b9091041691505092915050565b60076020526000908152604090205481565b604051806040016040528060048152602001631093139160e21b81525081565b600080610ce083604051806060016040528060268152602001611da160269139611588565b9050610ced33858361168f565b5060019392505050565b6001600160a01b03811660009081526006602052604081205463ffffffff1680610d22576000610d61565b6001600160a01b0383166000908152600560209081526040808320600019850163ffffffff168452909152902054600160201b90046001600160601b03165b9392505050565b60006040518080611fbc60439139604080519182900360430182208282019091526007825266213632b73232b960c91b60209092019190915290507f3f109b34cbbabcea543cf37c19919b41b5139f0b377f79b48d9fde2c16506dab610dcc611b4f565b3060405160200180858152602001848152602001838152602001826001600160a01b03166001600160a01b031681526020019450505050506040516020818303038152906040528051906020012090506000604051808061218d603a91396040805191829003603a0182206020808401919091526001600160a01b038c1683830152606083018b905260808084018b90528251808503909101815260a08401835280519082012061190160f01b60c085015260c2840187905260e2808501829052835180860390910181526101028501808552815191840191909120600091829052610122860180865281905260ff8c1661014287015261016286018b905261018286018a9052935191965092945091926001926101a28083019392601f198301929081900390910190855afa158015610f0a573d6000803e3d6000fd5b5050604051601f1901519150506001600160a01b038116610f5c5760405162461bcd60e51b8152600401808060200182810382526026815260200180611f6f6026913960400191505060405180910390fd5b6001600160a01b03811660009081526007602052604090208054600181019091558914610fba5760405162461bcd60e51b8152600401808060200182810382526022815260200180611d7f6022913960400191505060405180910390fd5b87421115610ff95760405162461bcd60e51b81526004018080602001828103825260268152602001806121c76026913960400191505060405180910390fd5b611003818b611ac5565b505050505b505050505050565b6000600019861415611025575060001961104a565b61104786604051806060016040528060248152602001611ef960249139611588565b90505b60006040518080611fbc60439139604080519182900360430182208282019091526007825266213632b73232b960c91b60209092019190915290507f3f109b34cbbabcea543cf37c19919b41b5139f0b377f79b48d9fde2c16506dab6110ae611b4f565b3060405160200180858152602001848152602001838152602001826001600160a01b03166001600160a01b0316815260200194505050505060405160208183030381529060405280519060200120905060006040518080611f1d60529139605201905060405180910390208a8a8a600760008f6001600160a01b03166001600160a01b031681526020019081526020016000206000815480929190600101919050558b60405160200180878152602001866001600160a01b03166001600160a01b03168152602001856001600160a01b03166001600160a01b03168152602001848152602001838152602001828152602001965050505050505060405160208183030381529060405280519060200120905060008282604051602001808061190160f01b81525060020183815260200182815260200192505050604051602081830303815290604052805190602001209050600060018289898960405160008152602001604052604051808581526020018460ff1660ff1681526020018381526020018281526020019450505050506020604051602081039080840390855afa15801561125f573d6000803e3d6000fd5b5050604051601f1901519150506001600160a01b0381166112c7576040805162461bcd60e51b815260206004820152601f60248201527f426c6e643a3a7065726d69743a20696e76616c6964207369676e617475726500604482015290519081900360640190fd5b8b6001600160a01b0316816001600160a01b03161461132d576040805162461bcd60e51b815260206004820152601a60248201527f426c6e643a3a7065726d69743a20756e617574686f72697a6564000000000000604482015290519081900360640190fd5b88421115611382576040805162461bcd60e51b815260206004820152601f60248201527f426c6e643a3a7065726d69743a207369676e6174757265206578706972656400604482015290519081900360640190fd5b84600260008e6001600160a01b03166001600160a01b0316815260200190815260200160002060008d6001600160a01b03166001600160a01b0316815260200190815260200160002060006101000a8154816001600160601b0302191690836001600160601b031602179055508a6001600160a01b03168c6001600160a01b03167f8c5be1e5ebec7d5bd14f71427d1e84f3dd0314c0f7b2291e5b200ac8c7c3b9258760405180826001600160601b0316815260200191505060405180910390a3505050505050505050505050565b6001600160a01b0391821660009081526002602090815260408083209390941682529190915220546001600160601b031690565b60405180603a61218d8239603a019050604051809103902081565b600560209081526000928352604080842090915290825290205463ffffffff811690600160201b90046001600160601b031682565b6001546001600160a01b0316331461151e5760405162461bcd60e51b815260040180806020018281038252603e815260200180611e60603e913960400191505060405180910390fd5b600154604080516001600160a01b039283168152918316602083015280517f3b0007eb941cf645526cbb3a4fdaecda9d28ce4843167d9263b536a1f1edc0f69281900390910190a1600180546001600160a01b0319166001600160a01b0392909216919091179055565b600081600160601b841061161a5760405162461bcd60e51b81526004018080602001828103825283818151815260200191508051906020019080838360005b838110156115df5781810151838201526020016115c7565b50505050905090810190601f16801561160c5780820380516001836020036101000a031916815260200191505b509250505060405180910390fd5b509192915050565b6000836001600160601b0316836001600160601b0316111582906116875760405162461bcd60e51b81526020600482018181528351602484015283519092839260449091019190850190808383600083156115df5781810151838201526020016115c7565b505050900390565b6001600160a01b0383166116d45760405162461bcd60e51b815260040180806020018281038252603c815260200180612049603c913960400191505060405180910390fd5b6001600160a01b0382166117195760405162461bcd60e51b815260040180806020018281038252603a815260200180611df6603a913960400191505060405180910390fd5b6001600160a01b038316600090815260036020908152604091829020548251606081019093526036808452611764936001600160601b03909216928592919061213390830139611622565b6001600160a01b03848116600090815260036020908152604080832080546001600160601b0319166001600160601b039687161790559286168252908290205482516060810190935260308084526117cc9491909116928592909190611e30908301396118c9565b6001600160a01b0383811660008181526003602090815260409182902080546001600160601b0319166001600160601b039687161790558151948616855290519193928716927fddf252ad1be2c89b69c2b068fc378daa952ba7f163c4a11628f55a4df523b3ef929081900390910190a36001600160a01b038084166000908152600460205260408082205485841683529120546109f392918216911683611933565b600082820183811015610d61576040805162461bcd60e51b815260206004820152601b60248201527f536166654d6174683a206164646974696f6e206f766572666c6f770000000000604482015290519081900360640190fd5b6000838301826001600160601b03808716908316101561192a5760405162461bcd60e51b81526020600482018181528351602484015283519092839260449091019190850190808383600083156115df5781810151838201526020016115c7565b50949350505050565b816001600160a01b0316836001600160a01b03161415801561195e57506000816001600160601b0316115b156109f3576001600160a01b03831615611a16576001600160a01b03831660009081526006602052604081205463ffffffff16908161199e5760006119dd565b6001600160a01b0385166000908152600560209081526040808320600019860163ffffffff168452909152902054600160201b90046001600160601b03165b90506000611a0482856040518060600160405280602881526020016120ac60289139611622565b9050611a1286848484611b53565b5050505b6001600160a01b038216156109f3576001600160a01b03821660009081526006602052604081205463ffffffff169081611a51576000611a90565b6001600160a01b0384166000908152600560209081526040808320600019860163ffffffff168452909152902054600160201b90046001600160601b03165b90506000611ab78285604051806060016040528060278152602001611f95602791396118c9565b905061100885848484611b53565b6001600160a01b03808316600081815260046020818152604080842080546003845282862054949093528787166001600160a01b031984168117909155905191909516946001600160601b039092169391928592917f3134e8a2e6d97e929a7e54011ea5485d7d196dd5f0ba4d4ef95803e8e3fc257f9190a4611b49828483611933565b50505050565b4690565b6000611b7743604051806060016040528060348152602001611e9e60349139611d12565b905060008463ffffffff16118015611bc057506001600160a01b038516600090815260056020908152604080832063ffffffff6000198901811685529252909120548282169116145b15611c1f576001600160a01b0385166000908152600560209081526040808320600019880163ffffffff168452909152902080546fffffffffffffffffffffffff000000001916600160201b6001600160601b03851602179055611cbe565b60408051808201825263ffffffff80841682526001600160601b0380861660208085019182526001600160a01b038b166000818152600583528781208c871682528352878120965187549451909516600160201b026fffffffffffffffffffffffff000000001995871663ffffffff19958616179590951694909417909555938252600690935292909220805460018801909316929091169190911790555b604080516001600160601b0380861682528416602082015281516001600160a01b038816927fdec2bacdd2f05b59de34da9b523dff8be42e5e38e818c82fdb0bae774387a724928290030190a25050505050565b600081600160201b841061161a5760405162461bcd60e51b81526020600482018181528351602484015283519092839260449091019190850190808383600083156115df5781810151838201526020016115c7565b60408051808201909152600080825260208201529056fe426c6e643a3a64656c656761746542795369673a20696e76616c6964206e6f6e6365426c6e643a3a7472616e736665723a20616d6f756e7420657863656564732039362062697473426c6e643a3a6d696e743a2063616e6e6f74207472616e7366657220746f20746865207a65726f2061646472657373426c6e643a3a5f7472616e73666572546f6b656e733a2063616e6e6f74207472616e7366657220746f20746865207a65726f2061646472657373426c6e643a3a5f7472616e73666572546f6b656e733a207472616e7366657220616d6f756e74206f766572666c6f7773426c6e643a3a7365744d696e7465723a206f6e6c7920746865206d696e7465722063616e206368616e676520746865206d696e7465722061646472657373426c6e643a3a5f7772697465436865636b706f696e743a20626c6f636b206e756d62657220657863656564732033322062697473426c6e643a3a6765745072696f72566f7465733a206e6f74207965742064657465726d696e6564426c6e643a3a7065726d69743a20616d6f756e74206578636565647320393620626974735065726d69742861646472657373206f776e65722c61646472657373207370656e6465722c75696e743235362076616c75652c75696e74323536206e6f6e63652c75696e7432353620646561646c696e6529426c6e643a3a64656c656761746542795369673a20696e76616c6964207369676e6174757265426c6e643a3a5f6d6f7665566f7465733a20766f746520616d6f756e74206f766572666c6f7773454950373132446f6d61696e28737472696e67206e616d652c75696e7432353620636861696e49642c6164647265737320766572696679696e67436f6e747261637429426c6e643a3a617070726f76653a20616d6f756e7420657863656564732039362062697473426c6e643a3a6d696e743a207472616e7366657220616d6f756e74206f766572666c6f7773426c6e643a3a5f7472616e73666572546f6b656e733a2063616e6e6f74207472616e736665722066726f6d20746865207a65726f2061646472657373426c6e643a3a6d696e743a20746f74616c537570706c7920657863656564732039362062697473426c6e643a3a5f6d6f7665566f7465733a20766f746520616d6f756e7420756e646572666c6f7773426c6e643a3a6d696e743a20616d6f756e7420657863656564732039362062697473426c6e643a3a7472616e7366657246726f6d3a207472616e7366657220616d6f756e742065786365656473207370656e64657220616c6c6f77616e6365426c6e643a3a5f7472616e73666572546f6b656e733a207472616e7366657220616d6f756e7420657863656564732062616c616e6365426c6e643a3a6d696e743a206f6e6c7920746865206d696e7465722063616e206d696e7444656c65676174696f6e28616464726573732064656c6567617465652c75696e74323536206e6f6e63652c75696e743235362065787069727929426c6e643a3a64656c656761746542795369673a207369676e61747572652065787069726564a265627a7a72315820dd68e99ddf6961f199708ba0e0272401bcaf3f985aceedec45b7640c1fe912f064736f6c63430005110032",
  "source": "pragma solidity ^0.5.17;\n\nimport \"@openzeppelin/contracts/math/SafeMath.sol\";\n\ncontract Blnd {\n    /// @notice EIP-20 token name for this token\n    string public constant name = \"Blender\";\n\n    /// @notice EIP-20 token symbol for this token\n    string public constant symbol = \"BLND\";\n\n    /// @notice EIP-20 token decimals for this token\n    uint8 public constant decimals = 18;\n\n    /// @notice Total number of tokens in circulation\n    uint256 public totalSupply = 420000000e18;\n\n    /// @notice Address which may mint new tokens\n    address public minter;\n\n    /// @notice Allowance amounts on behalf of others\n    mapping(address => mapping(address => uint96)) internal _allowances;\n\n    /// @notice Official record of token balances for each account\n    mapping(address => uint96) internal _balances;\n\n    /// @notice A record of each accounts delegate\n    mapping(address => address) public delegates;\n\n    /// @notice A checkpoint for marking number of votes from a given block\n    struct Checkpoint {\n        uint32 fromBlock;\n        uint96 votes;\n    }\n\n    /// @notice A record of votes checkpoints for each account, by index\n    mapping(address => mapping(uint32 => Checkpoint)) public checkpoints;\n\n    /// @notice The number of checkpoints for each account\n    mapping(address => uint32) public numCheckpoints;\n\n    /// @notice The EIP-712 typehash for the contract's domain\n    bytes32 public constant DOMAIN_TYPEHASH = keccak256(\n        \"EIP712Domain(string name,uint256 chainId,address verifyingContract)\"\n    );\n\n    /// @notice The EIP-712 typehash for the delegation struct used by the contract\n    bytes32 public constant DELEGATION_TYPEHASH = keccak256(\n        \"Delegation(address delegatee,uint256 nonce,uint256 expiry)\"\n    );\n\n    /// @notice The EIP-712 typehash for the permit struct used by the contract\n    bytes32 public constant PERMIT_TYPEHASH = keccak256(\n        \"Permit(address owner,address spender,uint256 value,uint256 nonce,uint256 deadline)\"\n    );\n\n    /// @notice A record of states for signing / validating signatures\n    mapping(address => uint256) public nonces;\n\n    /// @notice An event thats emitted when the minter address is changed\n    event MinterChanged(address minter, address newMinter);\n\n    /// @notice An event thats emitted when an account changes its delegate\n    event DelegateChanged(\n        address indexed delegator,\n        address indexed fromDelegate,\n        address indexed toDelegate\n    );\n\n    /// @notice An event thats emitted when a delegate account's vote balance changes\n    event DelegateVotesChanged(\n        address indexed delegate,\n        uint256 previousBalance,\n        uint256 newBalance\n    );\n\n    /// @notice The standard EIP-20 transfer event\n    event Transfer(address indexed from, address indexed to, uint256 amount);\n\n    /// @notice The standard EIP-20 approval event\n    event Approval(\n        address indexed owner,\n        address indexed spender,\n        uint256 amount\n    );\n\n    /**\n     * @notice Construct a new Uni token\n     * @param account The initial account to grant all the tokens\n     * @param minter_ The account with minting ability\n     */\n    constructor(address account, address minter_) public {\n        _balances[account] = uint96(totalSupply);\n        emit Transfer(address(0), account, totalSupply);\n        minter = minter_;\n        emit MinterChanged(address(0), minter);\n    }\n\n    /**\n     * @notice Change the minter address\n     * @param minter_ The address of the new minter\n     */\n    function setMinter(address minter_) external {\n        require(\n            msg.sender == minter,\n            \"Blnd::setMinter: only the minter can change the minter address\"\n        );\n        emit MinterChanged(minter, minter_);\n        minter = minter_;\n    }\n\n    /**\n     * @notice Mint new tokens\n     * @param dst The address of the destination account\n     * @param rawAmount The number of tokens to be minted\n     */\n    function mint(address dst, uint256 rawAmount) external {\n        require(msg.sender == minter, \"Blnd::mint: only the minter can mint\");\n        require(\n            dst != address(0),\n            \"Blnd::mint: cannot transfer to the zero address\"\n        );\n\n        // mint the amount\n        uint96 amount = _safe96(\n            rawAmount,\n            \"Blnd::mint: amount exceeds 96 bits\"\n        );\n        totalSupply = _safe96(\n            SafeMath.add(totalSupply, amount),\n            \"Blnd::mint: totalSupply exceeds 96 bits\"\n        );\n\n        // transfer the amount to the recipient\n        _balances[dst] = _add96(\n            _balances[dst],\n            amount,\n            \"Blnd::mint: transfer amount overflows\"\n        );\n        emit Transfer(address(0), dst, amount);\n\n        // move delegates\n        _moveDelegates(address(0), delegates[dst], amount);\n    }\n\n    /**\n     * @notice Get the number of tokens `spender` is approved to spend on behalf of `account`\n     * @param account The address of the account holding the funds\n     * @param spender The address of the account spending the funds\n     * @return The number of tokens approved\n     */\n    function allowance(address account, address spender)\n        external\n        view\n        returns (uint256)\n    {\n        return _allowances[account][spender];\n    }\n\n    /**\n     * @notice Approve `spender` to transfer up to `amount` from `src`\n     * @dev This will overwrite the approval amount for `spender`\n     *  and is subject to issues noted [here](https://eips.ethereum.org/EIPS/eip-20#approve)\n     * @param spender The address of the account which may transfer tokens\n     * @param rawAmount The number of tokens that are approved (2^256-1 means infinite)\n     * @return Whether or not the approval succeeded\n     */\n    function approve(address spender, uint256 rawAmount)\n        external\n        returns (bool)\n    {\n        uint96 amount;\n        if (rawAmount == uint256(-1)) {\n            amount = uint96(-1);\n        } else {\n            amount = _safe96(\n                rawAmount,\n                \"Blnd::approve: amount exceeds 96 bits\"\n            );\n        }\n\n        _allowances[msg.sender][spender] = amount;\n\n        emit Approval(msg.sender, spender, amount);\n        return true;\n    }\n\n    /**\n     * @notice Triggers an approval from owner to spends\n     * @param owner The address to approve from\n     * @param spender The address to be approved\n     * @param rawAmount The number of tokens that are approved (2^256-1 means infinite)\n     * @param deadline The time at which to expire the signature\n     * @param v The recovery byte of the signature\n     * @param r Half of the ECDSA signature pair\n     * @param s Half of the ECDSA signature pair\n     */\n    function permit(\n        address owner,\n        address spender,\n        uint256 rawAmount,\n        uint256 deadline,\n        uint8 v,\n        bytes32 r,\n        bytes32 s\n    ) external {\n        uint96 amount;\n        if (rawAmount == uint256(-1)) {\n            amount = uint96(-1);\n        } else {\n            amount = _safe96(rawAmount, \"Blnd::permit: amount exceeds 96 bits\");\n        }\n\n        bytes32 domainSeparator = keccak256(\n            abi.encode(\n                DOMAIN_TYPEHASH,\n                keccak256(bytes(name)),\n                _getChainId(),\n                address(this)\n            )\n        );\n        bytes32 structHash = keccak256(\n            abi.encode(\n                PERMIT_TYPEHASH,\n                owner,\n                spender,\n                rawAmount,\n                nonces[owner]++,\n                deadline\n            )\n        );\n        bytes32 digest = keccak256(\n            abi.encodePacked(\"\\x19\\x01\", domainSeparator, structHash)\n        );\n        address signatory = ecrecover(digest, v, r, s);\n        require(signatory != address(0), \"Blnd::permit: invalid signature\");\n        require(signatory == owner, \"Blnd::permit: unauthorized\");\n        require(now <= deadline, \"Blnd::permit: signature expired\");\n\n        _allowances[owner][spender] = amount;\n\n        emit Approval(owner, spender, amount);\n    }\n\n    /**\n     * @notice Get the number of tokens held by the `account`\n     * @param account The address of the account to get the balance of\n     * @return The number of tokens held\n     */\n    function balanceOf(address account) external view returns (uint256) {\n        return _balances[account];\n    }\n\n    /**\n     * @notice Transfer `amount` tokens from `msg.sender` to `dst`\n     * @param dst The address of the destination account\n     * @param rawAmount The number of tokens to transfer\n     * @return Whether or not the transfer succeeded\n     */\n    function transfer(address dst, uint256 rawAmount) external returns (bool) {\n        uint96 amount = _safe96(\n            rawAmount,\n            \"Blnd::transfer: amount exceeds 96 bits\"\n        );\n        _transferTokens(msg.sender, dst, amount);\n        return true;\n    }\n\n    /**\n     * @notice Transfer `amount` tokens from `src` to `dst`\n     * @param src The address of the source account\n     * @param dst The address of the destination account\n     * @param rawAmount The number of tokens to transfer\n     * @return Whether or not the transfer succeeded\n     */\n    function transferFrom(\n        address src,\n        address dst,\n        uint256 rawAmount\n    ) external returns (bool) {\n        address spender = msg.sender;\n        uint96 spenderAllowance = _allowances[src][spender];\n        uint96 amount = _safe96(\n            rawAmount,\n            \"Blnd::approve: amount exceeds 96 bits\"\n        );\n\n        if (spender != src && spenderAllowance != uint96(-1)) {\n            uint96 newAllowance = _sub96(\n                spenderAllowance,\n                amount,\n                \"Blnd::transferFrom: transfer amount exceeds spender allowance\"\n            );\n            _allowances[src][spender] = newAllowance;\n\n            emit Approval(src, spender, newAllowance);\n        }\n\n        _transferTokens(src, dst, amount);\n        return true;\n    }\n\n    /**\n     * @notice Delegate votes from `msg.sender` to `delegatee`\n     * @param delegatee The address to delegate votes to\n     */\n    function delegate(address delegatee) public {\n        return _delegate(msg.sender, delegatee);\n    }\n\n    /**\n     * @notice Delegates votes from signatory to `delegatee`\n     * @param delegatee The address to delegate votes to\n     * @param nonce The contract state required to match the signature\n     * @param expiry The time at which to expire the signature\n     * @param v The recovery byte of the signature\n     * @param r Half of the ECDSA signature pair\n     * @param s Half of the ECDSA signature pair\n     */\n    function delegateBySig(\n        address delegatee,\n        uint256 nonce,\n        uint256 expiry,\n        uint8 v,\n        bytes32 r,\n        bytes32 s\n    ) public {\n        bytes32 domainSeparator = keccak256(\n            abi.encode(\n                DOMAIN_TYPEHASH,\n                keccak256(bytes(name)),\n                _getChainId(),\n                address(this)\n            )\n        );\n        bytes32 structHash = keccak256(\n            abi.encode(DELEGATION_TYPEHASH, delegatee, nonce, expiry)\n        );\n        bytes32 digest = keccak256(\n            abi.encodePacked(\"\\x19\\x01\", domainSeparator, structHash)\n        );\n        address signatory = ecrecover(digest, v, r, s);\n        require(\n            signatory != address(0),\n            \"Blnd::delegateBySig: invalid signature\"\n        );\n        require(\n            nonce == nonces[signatory]++,\n            \"Blnd::delegateBySig: invalid nonce\"\n        );\n        require(now <= expiry, \"Blnd::delegateBySig: signature expired\");\n        return _delegate(signatory, delegatee);\n    }\n\n    /**\n     * @notice Gets the current votes balance for `account`\n     * @param account The address to get votes balance\n     * @return The number of current votes for `account`\n     */\n    function getCurrentVotes(address account) external view returns (uint96) {\n        uint32 nCheckpoints = numCheckpoints[account];\n        return\n            nCheckpoints > 0 ? checkpoints[account][nCheckpoints - 1].votes : 0;\n    }\n\n    /**\n     * @notice Determine the prior number of votes for an account as of a block number\n     * @dev Block number must be a finalized block or else this function will revert to prevent misinformation.\n     * @param account The address of the account to check\n     * @param blockNumber The block number to get the vote balance at\n     * @return The number of votes the account had as of the given block\n     */\n    function getPriorVotes(address account, uint256 blockNumber)\n        public\n        view\n        returns (uint96)\n    {\n        require(\n            blockNumber < block.number,\n            \"Blnd::getPriorVotes: not yet determined\"\n        );\n\n        uint32 nCheckpoints = numCheckpoints[account];\n        if (nCheckpoints == 0) {\n            return 0;\n        }\n\n        // First check most recent balance\n        if (checkpoints[account][nCheckpoints - 1].fromBlock <= blockNumber) {\n            return checkpoints[account][nCheckpoints - 1].votes;\n        }\n\n        // Next check implicit zero balance\n        if (checkpoints[account][0].fromBlock > blockNumber) {\n            return 0;\n        }\n\n        uint32 lower = 0;\n        uint32 upper = nCheckpoints - 1;\n        while (upper > lower) {\n            uint32 center = upper - (upper - lower) / 2; // ceil, avoiding overflow\n            Checkpoint memory cp = checkpoints[account][center];\n            if (cp.fromBlock == blockNumber) {\n                return cp.votes;\n            } else if (cp.fromBlock < blockNumber) {\n                lower = center;\n            } else {\n                upper = center - 1;\n            }\n        }\n        return checkpoints[account][lower].votes;\n    }\n\n    function _delegate(address delegator, address delegatee) internal {\n        address currentDelegate = delegates[delegator];\n        uint96 delegatorBalance = _balances[delegator];\n        delegates[delegator] = delegatee;\n\n        emit DelegateChanged(delegator, currentDelegate, delegatee);\n\n        _moveDelegates(currentDelegate, delegatee, delegatorBalance);\n    }\n\n    function _transferTokens(\n        address src,\n        address dst,\n        uint96 amount\n    ) internal {\n        require(\n            src != address(0),\n            \"Blnd::_transferTokens: cannot transfer from the zero address\"\n        );\n        require(\n            dst != address(0),\n            \"Blnd::_transferTokens: cannot transfer to the zero address\"\n        );\n\n        _balances[src] = _sub96(\n            _balances[src],\n            amount,\n            \"Blnd::_transferTokens: transfer amount exceeds balance\"\n        );\n        _balances[dst] = _add96(\n            _balances[dst],\n            amount,\n            \"Blnd::_transferTokens: transfer amount overflows\"\n        );\n        emit Transfer(src, dst, amount);\n\n        _moveDelegates(delegates[src], delegates[dst], amount);\n    }\n\n    function _moveDelegates(\n        address srcRep,\n        address dstRep,\n        uint96 amount\n    ) internal {\n        if (srcRep != dstRep && amount > 0) {\n            if (srcRep != address(0)) {\n                uint32 srcRepNum = numCheckpoints[srcRep];\n                uint96 srcRepOld = srcRepNum > 0\n                    ? checkpoints[srcRep][srcRepNum - 1].votes\n                    : 0;\n                uint96 srcRepNew = _sub96(\n                    srcRepOld,\n                    amount,\n                    \"Blnd::_moveVotes: vote amount underflows\"\n                );\n                _writeCheckpoint(srcRep, srcRepNum, srcRepOld, srcRepNew);\n            }\n\n            if (dstRep != address(0)) {\n                uint32 dstRepNum = numCheckpoints[dstRep];\n                uint96 dstRepOld = dstRepNum > 0\n                    ? checkpoints[dstRep][dstRepNum - 1].votes\n                    : 0;\n                uint96 dstRepNew = _add96(\n                    dstRepOld,\n                    amount,\n                    \"Blnd::_moveVotes: vote amount overflows\"\n                );\n                _writeCheckpoint(dstRep, dstRepNum, dstRepOld, dstRepNew);\n            }\n        }\n    }\n\n    function _writeCheckpoint(\n        address delegatee,\n        uint32 nCheckpoints,\n        uint96 oldVotes,\n        uint96 newVotes\n    ) internal {\n        uint32 blockNumber = _safe32(\n            block.number,\n            \"Blnd::_writeCheckpoint: block number exceeds 32 bits\"\n        );\n\n        if (\n            nCheckpoints > 0 &&\n            checkpoints[delegatee][nCheckpoints - 1].fromBlock == blockNumber\n        ) {\n            checkpoints[delegatee][nCheckpoints - 1].votes = newVotes;\n        } else {\n            checkpoints[delegatee][nCheckpoints] = Checkpoint(\n                blockNumber,\n                newVotes\n            );\n            numCheckpoints[delegatee] = nCheckpoints + 1;\n        }\n\n        emit DelegateVotesChanged(delegatee, oldVotes, newVotes);\n    }\n\n    function _safe32(uint256 n, string memory errorMessage)\n        internal\n        pure\n        returns (uint32)\n    {\n        require(n < 2**32, errorMessage);\n        return uint32(n);\n    }\n\n    function _safe96(uint256 n, string memory errorMessage)\n        internal\n        pure\n        returns (uint96)\n    {\n        require(n < 2**96, errorMessage);\n        return uint96(n);\n    }\n\n    function _add96(\n        uint96 a,\n        uint96 b,\n        string memory errorMessage\n    ) internal pure returns (uint96) {\n        uint96 c = a + b;\n        require(c >= a, errorMessage);\n        return c;\n    }\n\n    function _sub96(\n        uint96 a,\n        uint96 b,\n        string memory errorMessage\n    ) internal pure returns (uint96) {\n        require(b <= a, errorMessage);\n        return a - b;\n    }\n\n    function _getChainId() internal pure returns (uint256) {\n        uint256 chainId;\n        assembly {\n            chainId := chainid()\n        }\n        return chainId;\n    }\n}\n",
  "compiler": {
    "name": "solc",
    "version": "0.5.17+commit.d19bba13.Emscripten.clang"
  },
  "schemaVersion": "3.2.4",
  "devdoc": {
    "methods": {
      "allowance(address,address)": {
        "params": {
          "account": "The address of the account holding the funds",
          "spender": "The address of the account spending the funds"
        },
        "return": "The number of tokens approved"
      },
      "approve(address,uint256)": {
        "details": "This will overwrite the approval amount for `spender` and is subject to issues noted [here](https://eips.ethereum.org/EIPS/eip-20#approve)",
        "params": {
          "rawAmount": "The number of tokens that are approved (2^256-1 means infinite)",
          "spender": "The address of the account which may transfer tokens"
        },
        "return": "Whether or not the approval succeeded"
      },
      "balanceOf(address)": {
        "params": {
          "account": "The address of the account to get the balance of"
        },
        "return": "The number of tokens held"
      },
      "constructor": {
        "params": {
          "account": "The initial account to grant all the tokens",
          "minter_": "The account with minting ability"
        }
      },
      "delegate(address)": {
        "params": {
          "delegatee": "The address to delegate votes to"
        }
      },
      "delegateBySig(address,uint256,uint256,uint8,bytes32,bytes32)": {
        "params": {
          "delegatee": "The address to delegate votes to",
          "expiry": "The time at which to expire the signature",
          "nonce": "The contract state required to match the signature",
          "r": "Half of the ECDSA signature pair",
          "s": "Half of the ECDSA signature pair",
          "v": "The recovery byte of the signature"
        }
      },
      "getCurrentVotes(address)": {
        "params": {
          "account": "The address to get votes balance"
        },
        "return": "The number of current votes for `account`"
      },
      "getPriorVotes(address,uint256)": {
        "details": "Block number must be a finalized block or else this function will revert to prevent misinformation.",
        "params": {
          "account": "The address of the account to check",
          "blockNumber": "The block number to get the vote balance at"
        },
        "return": "The number of votes the account had as of the given block"
      },
      "mint(address,uint256)": {
        "params": {
          "dst": "The address of the destination account",
          "rawAmount": "The number of tokens to be minted"
        }
      },
      "permit(address,address,uint256,uint256,uint8,bytes32,bytes32)": {
        "params": {
          "deadline": "The time at which to expire the signature",
          "owner": "The address to approve from",
          "r": "Half of the ECDSA signature pair",
          "rawAmount": "The number of tokens that are approved (2^256-1 means infinite)",
          "s": "Half of the ECDSA signature pair",
          "spender": "The address to be approved",
          "v": "The recovery byte of the signature"
        }
      },
      "setMinter(address)": {
        "params": {
          "minter_": "The address of the new minter"
        }
      },
      "transfer(address,uint256)": {
        "params": {
          "dst": "The address of the destination account",
          "rawAmount": "The number of tokens to transfer"
        },
        "return": "Whether or not the transfer succeeded"
      },
      "transferFrom(address,address,uint256)": {
        "params": {
          "dst": "The address of the destination account",
          "rawAmount": "The number of tokens to transfer",
          "src": "The address of the source account"
        },
        "return": "Whether or not the transfer succeeded"
      }
    }
  },
  "userdoc": {
    "methods": {
      "allowance(address,address)": {
        "notice": "Get the number of tokens `spender` is approved to spend on behalf of `account`"
      },
      "approve(address,uint256)": {
        "notice": "Approve `spender` to transfer up to `amount` from `src`"
      },
      "balanceOf(address)": {
        "notice": "Get the number of tokens held by the `account`"
      },
      "constructor": "Construct a new Uni token",
      "delegate(address)": {
        "notice": "Delegate votes from `msg.sender` to `delegatee`"
      },
      "delegateBySig(address,uint256,uint256,uint8,bytes32,bytes32)": {
        "notice": "Delegates votes from signatory to `delegatee`"
      },
      "getCurrentVotes(address)": {
        "notice": "Gets the current votes balance for `account`"
      },
      "getPriorVotes(address,uint256)": {
        "notice": "Determine the prior number of votes for an account as of a block number"
      },
      "mint(address,uint256)": {
        "notice": "Mint new tokens"
      },
      "permit(address,address,uint256,uint256,uint8,bytes32,bytes32)": {
        "notice": "Triggers an approval from owner to spends"
      },
      "setMinter(address)": {
        "notice": "Change the minter address"
      },
      "transfer(address,uint256)": {
        "notice": "Transfer `amount` tokens from `msg.sender` to `dst`"
      },
      "transferFrom(address,address,uint256)": {
        "notice": "Transfer `amount` tokens from `src` to `dst`"
      }
    }
  }
}