{
  "contractName": "Governor",
  "abi": [
    {
      "inputs": [
        {
          "internalType": "address",
          "name": "timelock_",
          "type": "address"
        },
        {
          "internalType": "address",
          "name": "blender_",
          "type": "address"
        }
      ],
      "payable": false,
      "stateMutability": "nonpayable",
      "type": "constructor"
    },
    {
      "anonymous": false,
      "inputs": [
        {
          "indexed": false,
          "internalType": "uint256",
          "name": "id",
          "type": "uint256"
        }
      ],
      "name": "ProposalCanceled",
      "type": "event"
    },
    {
      "anonymous": false,
      "inputs": [
        {
          "indexed": false,
          "internalType": "uint256",
          "name": "id",
          "type": "uint256"
        },
        {
          "indexed": false,
          "internalType": "address",
          "name": "proposer",
          "type": "address"
        },
        {
          "indexed": false,
          "internalType": "address[]",
          "name": "targets",
          "type": "address[]"
        },
        {
          "indexed": false,
          "internalType": "uint256[]",
          "name": "values",
          "type": "uint256[]"
        },
        {
          "indexed": false,
          "internalType": "string[]",
          "name": "signatures",
          "type": "string[]"
        },
        {
          "indexed": false,
          "internalType": "bytes[]",
          "name": "calldatas",
          "type": "bytes[]"
        },
        {
          "indexed": false,
          "internalType": "uint256",
          "name": "startBlock",
          "type": "uint256"
        },
        {
          "indexed": false,
          "internalType": "uint256",
          "name": "endBlock",
          "type": "uint256"
        },
        {
          "indexed": false,
          "internalType": "string",
          "name": "description",
          "type": "string"
        }
      ],
      "name": "ProposalCreated",
      "type": "event"
    },
    {
      "anonymous": false,
      "inputs": [
        {
          "indexed": false,
          "internalType": "uint256",
          "name": "id",
          "type": "uint256"
        }
      ],
      "name": "ProposalExecuted",
      "type": "event"
    },
    {
      "anonymous": false,
      "inputs": [
        {
          "indexed": false,
          "internalType": "uint256",
          "name": "id",
          "type": "uint256"
        },
        {
          "indexed": false,
          "internalType": "uint256",
          "name": "eta",
          "type": "uint256"
        }
      ],
      "name": "ProposalQueued",
      "type": "event"
    },
    {
      "anonymous": false,
      "inputs": [
        {
          "indexed": false,
          "internalType": "address",
          "name": "voter",
          "type": "address"
        },
        {
          "indexed": false,
          "internalType": "uint256",
          "name": "proposalId",
          "type": "uint256"
        },
        {
          "indexed": false,
          "internalType": "bool",
          "name": "support",
          "type": "bool"
        },
        {
          "indexed": false,
          "internalType": "uint256",
          "name": "votes",
          "type": "uint256"
        }
      ],
      "name": "VoteCast",
      "type": "event"
    },
    {
      "constant": true,
      "inputs": [],
      "name": "BALLOT_TYPEHASH",
      "outputs": [
        {
          "internalType": "bytes32",
          "name": "",
          "type": "bytes32"
        }
      ],
      "payable": false,
      "stateMutability": "view",
      "type": "function"
    },
    {
      "constant": true,
      "inputs": [],
      "name": "DOMAIN_TYPEHASH",
      "outputs": [
        {
          "internalType": "bytes32",
          "name": "",
          "type": "bytes32"
        }
      ],
      "payable": false,
      "stateMutability": "view",
      "type": "function"
    },
    {
      "constant": true,
      "inputs": [],
      "name": "blender",
      "outputs": [
        {
          "internalType": "contract BlndInterface",
          "name": "",
          "type": "address"
        }
      ],
      "payable": false,
      "stateMutability": "view",
      "type": "function"
    },
    {
      "constant": true,
      "inputs": [
        {
          "internalType": "address",
          "name": "",
          "type": "address"
        }
      ],
      "name": "latestProposalIds",
      "outputs": [
        {
          "internalType": "uint256",
          "name": "",
          "type": "uint256"
        }
      ],
      "payable": false,
      "stateMutability": "view",
      "type": "function"
    },
    {
      "constant": true,
      "inputs": [],
      "name": "name",
      "outputs": [
        {
          "internalType": "string",
          "name": "",
          "type": "string"
        }
      ],
      "payable": false,
      "stateMutability": "view",
      "type": "function"
    },
    {
      "constant": true,
      "inputs": [],
      "name": "proposalCount",
      "outputs": [
        {
          "internalType": "uint256",
          "name": "",
          "type": "uint256"
        }
      ],
      "payable": false,
      "stateMutability": "view",
      "type": "function"
    },
    {
      "constant": true,
      "inputs": [
        {
          "internalType": "uint256",
          "name": "",
          "type": "uint256"
        }
      ],
      "name": "proposals",
      "outputs": [
        {
          "internalType": "uint256",
          "name": "id",
          "type": "uint256"
        },
        {
          "internalType": "address",
          "name": "proposer",
          "type": "address"
        },
        {
          "internalType": "uint256",
          "name": "eta",
          "type": "uint256"
        },
        {
          "internalType": "uint256",
          "name": "startBlock",
          "type": "uint256"
        },
        {
          "internalType": "uint256",
          "name": "endBlock",
          "type": "uint256"
        },
        {
          "internalType": "uint256",
          "name": "forVotes",
          "type": "uint256"
        },
        {
          "internalType": "uint256",
          "name": "againstVotes",
          "type": "uint256"
        },
        {
          "internalType": "bool",
          "name": "canceled",
          "type": "bool"
        },
        {
          "internalType": "bool",
          "name": "executed",
          "type": "bool"
        }
      ],
      "payable": false,
      "stateMutability": "view",
      "type": "function"
    },
    {
      "constant": true,
      "inputs": [],
      "name": "timelock",
      "outputs": [
        {
          "internalType": "contract TimelockInterface",
          "name": "",
          "type": "address"
        }
      ],
      "payable": false,
      "stateMutability": "view",
      "type": "function"
    },
    {
      "constant": true,
      "inputs": [],
      "name": "quorumVotes",
      "outputs": [
        {
          "internalType": "uint256",
          "name": "",
          "type": "uint256"
        }
      ],
      "payable": false,
      "stateMutability": "pure",
      "type": "function"
    },
    {
      "constant": true,
      "inputs": [],
      "name": "proposalThreshold",
      "outputs": [
        {
          "internalType": "uint256",
          "name": "",
          "type": "uint256"
        }
      ],
      "payable": false,
      "stateMutability": "pure",
      "type": "function"
    },
    {
      "constant": true,
      "inputs": [],
      "name": "proposalMaxOperations",
      "outputs": [
        {
          "internalType": "uint256",
          "name": "",
          "type": "uint256"
        }
      ],
      "payable": false,
      "stateMutability": "pure",
      "type": "function"
    },
    {
      "constant": true,
      "inputs": [],
      "name": "votingDelay",
      "outputs": [
        {
          "internalType": "uint256",
          "name": "",
          "type": "uint256"
        }
      ],
      "payable": false,
      "stateMutability": "pure",
      "type": "function"
    },
    {
      "constant": true,
      "inputs": [],
      "name": "votingPeriod",
      "outputs": [
        {
          "internalType": "uint256",
          "name": "",
          "type": "uint256"
        }
      ],
      "payable": false,
      "stateMutability": "pure",
      "type": "function"
    },
    {
      "constant": false,
      "inputs": [
        {
          "internalType": "address[]",
          "name": "targets",
          "type": "address[]"
        },
        {
          "internalType": "uint256[]",
          "name": "values",
          "type": "uint256[]"
        },
        {
          "internalType": "string[]",
          "name": "signatures",
          "type": "string[]"
        },
        {
          "internalType": "bytes[]",
          "name": "calldatas",
          "type": "bytes[]"
        },
        {
          "internalType": "string",
          "name": "description",
          "type": "string"
        }
      ],
      "name": "propose",
      "outputs": [
        {
          "internalType": "uint256",
          "name": "",
          "type": "uint256"
        }
      ],
      "payable": false,
      "stateMutability": "nonpayable",
      "type": "function"
    },
    {
      "constant": false,
      "inputs": [
        {
          "internalType": "uint256",
          "name": "proposalId",
          "type": "uint256"
        }
      ],
      "name": "queue",
      "outputs": [],
      "payable": false,
      "stateMutability": "nonpayable",
      "type": "function"
    },
    {
      "constant": false,
      "inputs": [
        {
          "internalType": "uint256",
          "name": "proposalId",
          "type": "uint256"
        }
      ],
      "name": "execute",
      "outputs": [],
      "payable": true,
      "stateMutability": "payable",
      "type": "function"
    },
    {
      "constant": false,
      "inputs": [
        {
          "internalType": "uint256",
          "name": "proposalId",
          "type": "uint256"
        }
      ],
      "name": "cancel",
      "outputs": [],
      "payable": false,
      "stateMutability": "nonpayable",
      "type": "function"
    },
    {
      "constant": true,
      "inputs": [
        {
          "internalType": "uint256",
          "name": "proposalId",
          "type": "uint256"
        }
      ],
      "name": "getActions",
      "outputs": [
        {
          "internalType": "address[]",
          "name": "targets",
          "type": "address[]"
        },
        {
          "internalType": "uint256[]",
          "name": "values",
          "type": "uint256[]"
        },
        {
          "internalType": "string[]",
          "name": "signatures",
          "type": "string[]"
        },
        {
          "internalType": "bytes[]",
          "name": "calldatas",
          "type": "bytes[]"
        }
      ],
      "payable": false,
      "stateMutability": "view",
      "type": "function"
    },
    {
      "constant": true,
      "inputs": [
        {
          "internalType": "uint256",
          "name": "proposalId",
          "type": "uint256"
        },
        {
          "internalType": "address",
          "name": "voter",
          "type": "address"
        }
      ],
      "name": "getReceipt",
      "outputs": [
        {
          "components": [
            {
              "internalType": "bool",
              "name": "hasVoted",
              "type": "bool"
            },
            {
              "internalType": "bool",
              "name": "support",
              "type": "bool"
            },
            {
              "internalType": "uint96",
              "name": "votes",
              "type": "uint96"
            }
          ],
          "internalType": "struct Governor.Receipt",
          "name": "",
          "type": "tuple"
        }
      ],
      "payable": false,
      "stateMutability": "view",
      "type": "function"
    },
    {
      "constant": true,
      "inputs": [
        {
          "internalType": "uint256",
          "name": "proposalId",
          "type": "uint256"
        }
      ],
      "name": "state",
      "outputs": [
        {
          "internalType": "enum Governor.ProposalState",
          "name": "",
          "type": "uint8"
        }
      ],
      "payable": false,
      "stateMutability": "view",
      "type": "function"
    },
    {
      "constant": false,
      "inputs": [
        {
          "internalType": "uint256",
          "name": "proposalId",
          "type": "uint256"
        },
        {
          "internalType": "bool",
          "name": "support",
          "type": "bool"
        }
      ],
      "name": "castVote",
      "outputs": [],
      "payable": false,
      "stateMutability": "nonpayable",
      "type": "function"
    },
    {
      "constant": false,
      "inputs": [
        {
          "internalType": "uint256",
          "name": "proposalId",
          "type": "uint256"
        },
        {
          "internalType": "bool",
          "name": "support",
          "type": "bool"
        },
        {
          "internalType": "uint8",
          "name": "v",
          "type": "uint8"
        },
        {
          "internalType": "bytes32",
          "name": "r",
          "type": "bytes32"
        },
        {
          "internalType": "bytes32",
          "name": "s",
          "type": "bytes32"
        }
      ],
      "name": "castVoteBySig",
      "outputs": [],
      "payable": false,
      "stateMutability": "nonpayable",
      "type": "function"
    }
  ],
  "bytecode": "0x60806040523480156200001157600080fd5b506040516200324338038062003243833981016040819052620000349162000079565b600080546001600160a01b039384166001600160a01b03199182161790915560018054929093169116179055620000e4565b80516200007381620000ca565b92915050565b600080604083850312156200008d57600080fd5b60006200009b858562000066565b9250506020620000ae8582860162000066565b9150509250929050565b60006001600160a01b03821662000073565b620000d581620000b8565b8114620000e157600080fd5b50565b61314f80620000f46000396000f3fe6080604052600436106101355760003560e01c806340e58ee5116100ab578063da35c6641161006f578063da35c6641461033b578063da95691a14610350578063ddf0b00914610370578063deaaa7cc14610390578063e23a9a52146103a5578063fe0d94c1146103d257610135565b806340e58ee5146102bc5780634634c61f146102dc5780637bdbe4d0146102fc578063b58131b014610311578063d33219b41461032657610135565b806320606b70116100fd57806320606b70146101fe57806324bc1a64146102135780632e0f691414610228578063328dd9821461024a5780633932abb11461027a5780633e4f49e61461028f57610135565b8063013cf08b1461013a57806302a251a31461017857806306fdde031461019a57806315373e3d146101bc57806317977c61146101de575b600080fd5b34801561014657600080fd5b5061015a61015536600461207c565b6103e5565b60405161016f99989796959493929190612f05565b60405180910390f35b34801561018457600080fd5b5061018d61043e565b60405161016f9190612c72565b3480156101a657600080fd5b506101af610445565b60405161016f9190612d2e565b3480156101c857600080fd5b506101dc6101d73660046120d4565b610471565b005b3480156101ea57600080fd5b5061018d6101f9366004611ef9565b610480565b34801561020a57600080fd5b5061018d610492565b34801561021f57600080fd5b5061018d6104a9565b34801561023457600080fd5b5061023d6104b8565b60405161016f9190612d12565b34801561025657600080fd5b5061026a61026536600461207c565b6104c7565b60405161016f9493929190612c25565b34801561028657600080fd5b5061018d610756565b34801561029b57600080fd5b506102af6102aa36600461207c565b61075b565b60405161016f9190612d20565b3480156102c857600080fd5b506101dc6102d736600461207c565b6108e6565b3480156102e857600080fd5b506101dc6102f7366004612104565b610b3a565b34801561030857600080fd5b5061018d610cca565b34801561031d57600080fd5b5061018d610ccf565b34801561033257600080fd5b5061023d610cde565b34801561034757600080fd5b5061018d610ced565b34801561035c57600080fd5b5061018d61036b366004611f1f565b610cf3565b34801561037c57600080fd5b506101dc61038b36600461207c565b611115565b34801561039c57600080fd5b5061018d611383565b3480156103b157600080fd5b506103c56103c036600461209a565b61138f565b60405161016f9190612e4f565b6101dc6103e036600461207c565b6113fe565b6003602052600090815260409020805460018201546002830154600784015460088501546009860154600a870154600b9097015495966001600160a01b0390951695939492939192909160ff8082169161010090041689565b619d805b90565b6040518060400160405280601081526020016f213632b73232b91023b7bb32b93737b960811b81525081565b61047c3383836115c3565b5050565b60046020526000908152604090205481565b60405161049e90612b16565b604051809103902081565b6a0de589d32bd931c400000090565b6001546001600160a01b031681565b6060806060806000600360008781526020019081526020016000209050806003018160040182600501836006018380548060200260200160405190810160405280929190818152602001828054801561054957602002820191906000526020600020905b81546001600160a01b0316815260019091019060200180831161052b575b505050505093508280548060200260200160405190810160405280929190818152602001828054801561059b57602002820191906000526020600020905b815481526020019060010190808311610587575b5050505050925081805480602002602001604051908101604052809291908181526020016000905b8282101561066e5760008481526020908190208301805460408051601f600260001961010060018716150201909416939093049283018590048502810185019091528181529283018282801561065a5780601f1061062f5761010080835404028352916020019161065a565b820191906000526020600020905b81548152906001019060200180831161063d57829003601f168201915b5050505050815260200190600101906105c3565b50505050915080805480602002602001604051908101604052809291908181526020016000905b828210156107405760008481526020908190208301805460408051601f600260001961010060018716150201909416939093049283018590048502810185019091528181529283018282801561072c5780601f106107015761010080835404028352916020019161072c565b820191906000526020600020905b81548152906001019060200180831161070f57829003601f168201915b505050505081526020019060010190610695565b5050505090509450945094509450509193509193565b600190565b6000816002541015801561076f5750600082115b6107945760405162461bcd60e51b815260040161078b90612d9f565b60405180910390fd5b6000828152600360205260409020600b81015460ff16156107b95760029150506108e1565b806007015443116107ce5760009150506108e1565b806008015443116107e35760019150506108e1565b80600a0154816009015411158061080457506107fd6104a9565b8160090154105b156108135760039150506108e1565b60028101546108265760049150506108e1565b600b810154610100900460ff16156108425760079150506108e1565b6002810154600054604080516360d143f160e11b815290516108cb93926001600160a01b03169163c1a287e2916004808301926020929190829003018186803b15801561088e57600080fd5b505afa1580156108a2573d6000803e3d6000fd5b505050506040513d601f19601f820116820180604052506108c69190810190612029565b61178c565b42106108db5760069150506108e1565b60059150505b919050565b60006108f18261075b565b9050600781600781111561090157fe5b141561091f5760405162461bcd60e51b815260040161078b90612d6f565b6000828152600360205260409020610935610ccf565b60018054838201546001600160a01b039182169263782d6fe1929091169061095e9043906117b8565b6040518363ffffffff1660e01b815260040161097b929190612b47565b60206040518083038186803b15801561099357600080fd5b505afa1580156109a7573d6000803e3d6000fd5b505050506040513d601f19601f820116820180604052506109cb919081019061216c565b6001600160601b0316106109f15760405162461bcd60e51b815260040161078b90612dff565b600b8101805460ff1916600117905560005b6003820154811015610afd576000546003830180546001600160a01b039092169163591fcdfe919084908110610a3557fe5b6000918252602090912001546004850180546001600160a01b039092169185908110610a5d57fe5b9060005260206000200154856005018581548110610a7757fe5b90600052602060002001866006018681548110610a9057fe5b9060005260206000200187600201546040518663ffffffff1660e01b8152600401610abf959493929190612be4565b600060405180830381600087803b158015610ad957600080fd5b505af1158015610aed573d6000803e3d6000fd5b505060019092019150610a039050565b507f789cf55be980739dad1d0699b93b58e806b51c9d96619bfa8fe0a28abaa7b30c83604051610b2d9190612c72565b60405180910390a1505050565b6000604051610b4890612b16565b60408051918290038220828201909152601082526f213632b73232b91023b7bb32b93737b960811b6020909201919091527f91e201ef00ad9a3add8ca0089ef61a61c360692b61f2fa93680ba3a54016fd87610ba26117e0565b30604051602001610bb69493929190612c80565b6040516020818303038152906040528051906020012090506000604051610bdc90612b21565b604051908190038120610bf59189908990602001612cb5565b60405160208183030381529060405280519060200120905060008282604051602001610c22929190612ae5565b604051602081830303815290604052805190602001209050600060018288888860405160008152602001604052604051610c5f9493929190612cdd565b6020604051602081039080840390855afa158015610c81573d6000803e3d6000fd5b5050604051601f1901519150506001600160a01b038116610cb45760405162461bcd60e51b815260040161078b90612e3f565b610cbf818a8a6115c3565b505050505050505050565b600a90565b6a03796274caf64c7100000090565b6000546001600160a01b031681565b60025481565b6000610cfd610ccf565b600180546001600160a01b03169063782d6fe1903390610d1e9043906117b8565b6040518363ffffffff1660e01b8152600401610d3b929190612b2c565b60206040518083038186803b158015610d5357600080fd5b505afa158015610d67573d6000803e3d6000fd5b505050506040513d601f19601f82011682018060405250610d8b919081019061216c565b6001600160601b031611610db15760405162461bcd60e51b815260040161078b90612d3f565b84518651148015610dc3575083518651145b8015610dd0575082518651145b610dec5760405162461bcd60e51b815260040161078b90612d4f565b8551610e0a5760405162461bcd60e51b815260040161078b90612d7f565b610e12610cca565b86511115610e325760405162461bcd60e51b815260040161078b90612d5f565b336000908152600460205260409020548015610eaf576000610e538261075b565b90506001816007811115610e6357fe5b1415610e815760405162461bcd60e51b815260040161078b90612daf565b6000816007811115610e8f57fe5b1415610ead5760405162461bcd60e51b815260040161078b90612d8f565b505b6000610ebd436108c6610756565b90506000610ecd826108c661043e565b6002805460010190559050610ee0611943565b604051806101a001604052806002548152602001336001600160a01b03168152602001600081526020018b81526020018a815260200189815260200188815260200184815260200183815260200160008152602001600081526020016000151581526020016000151581525090508060036000836000015181526020019081526020016000206000820151816000015560208201518160010160006101000a8154816001600160a01b0302191690836001600160a01b03160217905550604082015181600201556060820151816003019080519060200190610fc39291906119b8565b5060808201518051610fdf916004840191602090910190611a1d565b5060a08201518051610ffb916005840191602090910190611a64565b5060c08201518051611017916006840191602090910190611abd565b5060e082015181600701556101008201518160080155610120820151816009015561014082015181600a015561016082015181600b0160006101000a81548160ff02191690831515021790555061018082015181600b0160016101000a81548160ff02191690831515021790555090505080600001516004600083602001516001600160a01b03166001600160a01b03168152602001908152602001600020819055507f7d84a6263ae0d98d3329bd7b46bb4e8d6f98cd35a7adb45c274c8b7fd5ebd5e08160000151338c8c8c8c89898e6040516110fd99989796959493929190612e5d565b60405180910390a15193505050505b95945050505050565b60046111208261075b565b600781111561112b57fe5b146111485760405162461bcd60e51b815260040161078b90612e2f565b600081815260036020908152604080832083548251630d48571f60e31b815292519194936111a19342936001600160a01b0390931692636a42b8f892600480840193919291829003018186803b15801561088e57600080fd5b905060005b6003830154811015611349576113418360030182815481106111c457fe5b6000918252602090912001546004850180546001600160a01b0390921691849081106111ec57fe5b906000526020600020015485600501848154811061120657fe5b600091825260209182902001805460408051601f60026000196101006001871615020190941693909304928301859004850281018501909152818152928301828280156112945780601f1061126957610100808354040283529160200191611294565b820191906000526020600020905b81548152906001019060200180831161127757829003601f168201915b50505050508660060185815481106112a857fe5b600091825260209182902001805460408051601f60026000196101006001871615020190941693909304928301859004850281018501909152818152928301828280156113365780601f1061130b57610100808354040283529160200191611336565b820191906000526020600020905b81548152906001019060200180831161131957829003601f168201915b5050505050866117e4565b6001016111a6565b50600282018190556040517f9a2e42fd6722813d69113e7d0079d3d940171428df7373df9c7f7617cfda289290610b2d9085908490612f8b565b60405161049e90612b21565b611397611b16565b5060008281526003602090815260408083206001600160a01b0385168452600c018252918290208251606081018452905460ff80821615158352610100820416151592820192909252620100009091046001600160601b0316918101919091525b92915050565b60056114098261075b565b600781111561141457fe5b146114315760405162461bcd60e51b815260040161078b90612dbf565b6000818152600360205260408120600b8101805461ff001916610100179055905b6003820154811015611587576000546004830180546001600160a01b0390921691630825f38f91908490811061148457fe5b906000526020600020015484600301848154811061149e57fe5b6000918252602090912001546004860180546001600160a01b0390921691869081106114c657fe5b90600052602060002001548660050186815481106114e057fe5b906000526020600020018760060187815481106114f957fe5b9060005260206000200188600201546040518763ffffffff1660e01b8152600401611528959493929190612be4565b6000604051808303818588803b15801561154157600080fd5b505af1158015611555573d6000803e3d6000fd5b50505050506040513d6000823e601f3d908101601f1916820160405261157e9190810190612047565b50600101611452565b507f712ae1383f79ac853f8d882153778e0260ef8f03b504e2866e0593e04d2b291f826040516115b79190612c72565b60405180910390a15050565b60016115ce8361075b565b60078111156115d957fe5b146115f65760405162461bcd60e51b815260040161078b90612e0f565b60008281526003602090815260408083206001600160a01b0387168452600c8101909252909120805460ff161561163f5760405162461bcd60e51b815260040161078b90612def565b600154600783015460405163782d6fe160e01b81526000926001600160a01b03169163782d6fe191611675918a91600401612b47565b60206040518083038186803b15801561168d57600080fd5b505afa1580156116a1573d6000803e3d6000fd5b505050506040513d601f19601f820116820180604052506116c5919081019061216c565b905083156116ee576116e48360090154826001600160601b031661178c565b600984015561170b565b61170583600a0154826001600160601b031661178c565b600a8401555b8154600160ff199091161761ff00191661010085151502176dffffffffffffffffffffffff00001916620100006001600160601b038316021782556040517f877856338e13f63d0c36822ff0ef736b80934cd90574a3a5bc9262c39d217c469061177c908890889088908690612b55565b60405180910390a1505050505050565b6000828201838110156117b15760405162461bcd60e51b815260040161078b90612dcf565b9392505050565b6000828211156117da5760405162461bcd60e51b815260040161078b90612e1f565b50900390565b4690565b6000546040516001600160a01b039091169063f2b06537906118129088908890889088908890602001612b8a565b604051602081830303815290604052805190602001206040518263ffffffff1660e01b81526004016118449190612c72565b60206040518083038186803b15801561185c57600080fd5b505afa158015611870573d6000803e3d6000fd5b505050506040513d601f19601f82011682018060405250611894919081019061200b565b156118b15760405162461bcd60e51b815260040161078b90612ddf565b600054604051633a66f90160e01b81526001600160a01b0390911690633a66f901906118e99088908890889088908890600401612b8a565b602060405180830381600087803b15801561190357600080fd5b505af1158015611917573d6000803e3d6000fd5b505050506040513d601f19601f8201168201806040525061193b9190810190612029565b505050505050565b604051806101a001604052806000815260200160006001600160a01b031681526020016000815260200160608152602001606081526020016060815260200160608152602001600081526020016000815260200160008152602001600081526020016000151581526020016000151581525090565b828054828255906000526020600020908101928215611a0d579160200282015b82811115611a0d57825182546001600160a01b0319166001600160a01b039091161782556020909201916001909101906119d8565b50611a19929150611b36565b5090565b828054828255906000526020600020908101928215611a58579160200282015b82811115611a58578251825591602001919060010190611a3d565b50611a19929150611b5a565b828054828255906000526020600020908101928215611ab1579160200282015b82811115611ab15782518051611aa1918491602090910190611b74565b5091602001919060010190611a84565b50611a19929150611be1565b828054828255906000526020600020908101928215611b0a579160200282015b82811115611b0a5782518051611afa918491602090910190611b74565b5091602001919060010190611add565b50611a19929150611c04565b604080516060810182526000808252602082018190529181019190915290565b61044291905b80821115611a195780546001600160a01b0319168155600101611b3c565b61044291905b80821115611a195760008155600101611b60565b828054600181600116156101000203166002900490600052602060002090601f016020900481019282601f10611bb557805160ff1916838001178555611a58565b82800160010185558215611a585791820182811115611a58578251825591602001919060010190611a3d565b61044291905b80821115611a19576000611bfb8282611c27565b50600101611be7565b61044291905b80821115611a19576000611c1e8282611c27565b50600101611c0a565b50805460018160011615610100020316600290046000825580601f10611c4d5750611c6b565b601f016020900490600052602060002090810190611c6b9190611b5a565b50565b80356113f8816130d4565b600082601f830112611c8a57600080fd5b8135611c9d611c9882612fc0565b612f99565b91508181835260208401935060208101905083856020840282011115611cc257600080fd5b60005b83811015611cee5781611cd88882611c6e565b8452506020928301929190910190600101611cc5565b5050505092915050565b600082601f830112611d0957600080fd5b8135611d17611c9882612fc0565b81815260209384019390925082018360005b83811015611cee5781358601611d3f8882611e4e565b8452506020928301929190910190600101611d29565b600082601f830112611d6657600080fd5b8135611d74611c9882612fc0565b81815260209384019390925082018360005b83811015611cee5781358601611d9c8882611e4e565b8452506020928301929190910190600101611d86565b600082601f830112611dc357600080fd5b8135611dd1611c9882612fc0565b91508181835260208401935060208101905083856020840282011115611df657600080fd5b60005b83811015611cee5781611e0c8882611e38565b8452506020928301929190910190600101611df9565b80356113f8816130e8565b80516113f8816130e8565b80356113f8816130f1565b80516113f8816130f1565b600082601f830112611e5f57600080fd5b8135611e6d611c9882612fe1565b91508082526020830160208301858383011115611e8957600080fd5b611e94838284613088565b50505092915050565b600082601f830112611eae57600080fd5b8151611ebc611c9882612fe1565b91508082526020830160208301858383011115611ed857600080fd5b611e94838284613094565b80356113f8816130fa565b80516113f881613103565b600060208284031215611f0b57600080fd5b6000611f178484611c6e565b949350505050565b600080600080600060a08688031215611f3757600080fd5b853567ffffffffffffffff811115611f4e57600080fd5b611f5a88828901611c79565b955050602086013567ffffffffffffffff811115611f7757600080fd5b611f8388828901611db2565b945050604086013567ffffffffffffffff811115611fa057600080fd5b611fac88828901611d55565b935050606086013567ffffffffffffffff811115611fc957600080fd5b611fd588828901611cf8565b925050608086013567ffffffffffffffff811115611ff257600080fd5b611ffe88828901611e4e565b9150509295509295909350565b60006020828403121561201d57600080fd5b6000611f178484611e2d565b60006020828403121561203b57600080fd5b6000611f178484611e43565b60006020828403121561205957600080fd5b815167ffffffffffffffff81111561207057600080fd5b611f1784828501611e9d565b60006020828403121561208e57600080fd5b6000611f178484611e38565b600080604083850312156120ad57600080fd5b60006120b98585611e38565b92505060206120ca85828601611c6e565b9150509250929050565b600080604083850312156120e757600080fd5b60006120f38585611e38565b92505060206120ca85828601611e22565b600080600080600060a0868803121561211c57600080fd5b60006121288888611e38565b955050602061213988828901611e22565b945050604061214a88828901611ee3565b935050606061215b88828901611e38565b9250506080611ffe88828901611e38565b60006020828403121561217e57600080fd5b6000611f178484611eee565b600061219683836121c5565b505060200190565b60006117b18383612367565b6000612196838361234d565b6121bf81613060565b82525050565b6121bf81613028565b60006121d98261301b565b6121e3818561301f565b93506121ee83613009565b8060005b8381101561221c578151612206888261218a565b975061221183613009565b9250506001016121f2565b509495945050505050565b60006122328261301b565b61223c818561301f565b93508360208202850161224e85613009565b8060005b85811015612288578484038952815161226b858261219e565b945061227683613009565b60209a909a0199925050600101612252565b5091979650505050505050565b60006122a08261301b565b6122aa818561301f565b9350836020820285016122bc85613009565b8060005b8581101561228857848403895281516122d9858261219e565b94506122e483613009565b60209a909a01999250506001016122c0565b60006123018261301b565b61230b818561301f565b935061231683613009565b8060005b8381101561221c57815161232e88826121aa565b975061233983613009565b92505060010161231a565b6121bf81613033565b6121bf81610442565b6121bf61236282610442565b610442565b60006123728261301b565b61237c818561301f565b935061238c818560208601613094565b612395816130c0565b9093019392505050565b6000815460018116600081146123bc57600181146123e257612421565b607f60028304166123cd818761301f565b60ff1984168152955050602085019250612421565b600282046123f0818761301f565b95506123fb8561300f565b60005b8281101561241a578154888201526001909101906020016123fe565b8701945050505b505092915050565b6121bf81613067565b6121bf81613072565b6000612448603a8361301f565b7f476f7665726e6f723a3a70726f706f73653a2070726f706f73657220766f746581527f732062656c6f772070726f706f73616c207468726573686f6c64000000000000602082015260400192915050565b60006124a7603f8361301f565b7f476f7665726e6f723a3a70726f706f73653a2070726f706f73616c2066756e6381527f74696f6e20696e666f726d6174696f6e206172697479206d69736d6174636800602082015260400192915050565b600061250660238361301f565b7f476f7665726e6f723a3a70726f706f73653a20746f6f206d616e7920616374698152626f6e7360e81b602082015260400192915050565b600061254b60318361301f565b7f476f7665726e6f723a3a63616e63656c3a2063616e6e6f742063616e63656c20815270195e1958dd5d1959081c1c9bdc1bdcd85b607a1b602082015260400192915050565b600061259e6002836108e1565b61190160f01b815260020192915050565b60006125bc60278361301f565b7f476f7665726e6f723a3a70726f706f73653a206d7573742070726f7669646520815266616374696f6e7360c81b602082015260400192915050565b600061260560548361301f565b7f476f7665726e6f723a3a70726f706f73653a206f6e65206c6976652070726f7081527f6f73616c207065722070726f706f7365722c20666f756e6420616e20616c726560208201527318591e481c195b991a5b99c81c1c9bdc1bdcd85b60621b604082015260600192915050565b600061268160248361301f565b7f476f7665726e6f723a3a73746174653a20696e76616c69642070726f706f73618152631b081a5960e21b602082015260400192915050565b60006126c760538361301f565b7f476f7665726e6f723a3a70726f706f73653a206f6e65206c6976652070726f7081527f6f73616c207065722070726f706f7365722c20666f756e6420616e20616c726560208201527218591e481858dd1a5d99481c1c9bdc1bdcd85b606a1b604082015260600192915050565b600061274260408361301f565b7f476f7665726e6f723a3a657865637574653a2070726f706f73616c2063616e2081527f6f6e6c7920626520657865637574656420696620697420697320717565756564602082015260400192915050565b60006127a160118361301f565b706164646974696f6e206f766572666c6f7760781b815260200192915050565b60006127ce6043836108e1565b7f454950373132446f6d61696e28737472696e67206e616d652c75696e7432353681527f20636861696e49642c6164647265737320766572696679696e67436f6e74726160208201526263742960e81b604082015260430192915050565b60006128396027836108e1565b7f42616c6c6f742875696e743235362070726f706f73616c49642c626f6f6c20738152667570706f72742960c81b602082015260270192915050565b6000612882603f8361301f565b7f476f7665726e6f723a3a5f71756575654f725265766572743a2070726f706f7381527f616c20616374696f6e20616c7265616479207175657565642061742065746100602082015260400192915050565b60006128e160288361301f565b7f476f7665726e6f723a3a5f63617374566f74653a20766f74657220616c726561815267191e481d9bdd195960c21b602082015260400192915050565b600061292b602a8361301f565b7f476f7665726e6f723a3a63616e63656c3a2070726f706f7365722061626f7665815269081d1a1c995cda1bdb1960b21b602082015260400192915050565b600061297760258361301f565b7f476f7665726e6f723a3a5f63617374566f74653a20766f74696e6720697320638152641b1bdcd95960da1b602082015260400192915050565b60006129be60158361301f565b747375627472616374696f6e20756e646572666c6f7760581b815260200192915050565b60006129ef603f8361301f565b7f476f7665726e6f723a3a71756575653a2070726f706f73616c2063616e206f6e81527f6c79206265207175657565642069662069742069732073756363656564656400602082015260400192915050565b6000612a4e602a8361301f565b7f476f7665726e6f723a3a63617374566f746542795369673a20696e76616c6964815269207369676e617475726560b01b602082015260400192915050565b80516060830190612a9e8482612344565b506020820151612ab16020850182612344565b506040820151612ac46040850182612adc565b50505050565b6121bf8161304e565b6121bf8161307d565b6121bf81613054565b6000612af082612591565b9150612afc8285612356565b602082019150612b0c8284612356565b5060200192915050565b60006113f8826127c1565b60006113f88261282c565b60408101612b3a82856121b6565b6117b1602083018461234d565b60408101612b3a82856121c5565b60808101612b6382876121c5565b612b70602083018661234d565b612b7d6040830185612344565b61110c6060830184612ad3565b60a08101612b9882886121c5565b612ba5602083018761234d565b8181036040830152612bb78186612367565b90508181036060830152612bcb8185612367565b9050612bda608083018461234d565b9695505050505050565b60a08101612bf282886121c5565b612bff602083018761234d565b8181036040830152612c11818661239f565b90508181036060830152612bcb818561239f565b60808082528101612c3681876121ce565b90508181036020830152612c4a81866122f6565b90508181036040830152612c5e8185612295565b90508181036060830152612bda8184612227565b602081016113f8828461234d565b60808101612c8e828761234d565b612c9b602083018661234d565b612ca8604083018561234d565b61110c60608301846121c5565b60608101612cc3828661234d565b612cd0602083018561234d565b611f176040830184612344565b60808101612ceb828761234d565b612cf86020830186612aca565b612d05604083018561234d565b61110c606083018461234d565b602081016113f88284612429565b602081016113f88284612432565b602080825281016117b18184612367565b602080825281016113f88161243b565b602080825281016113f88161249a565b602080825281016113f8816124f9565b602080825281016113f88161253e565b602080825281016113f8816125af565b602080825281016113f8816125f8565b602080825281016113f881612674565b602080825281016113f8816126ba565b602080825281016113f881612735565b602080825281016113f881612794565b602080825281016113f881612875565b602080825281016113f8816128d4565b602080825281016113f88161291e565b602080825281016113f88161296a565b602080825281016113f8816129b1565b602080825281016113f8816129e2565b602080825281016113f881612a41565b606081016113f88284612a8d565b6101208101612e6c828c61234d565b612e79602083018b6121b6565b8181036040830152612e8b818a6121ce565b90508181036060830152612e9f81896122f6565b90508181036080830152612eb38188612295565b905081810360a0830152612ec78187612227565b9050612ed660c083018661234d565b612ee360e083018561234d565b818103610100830152612ef68184612367565b9b9a5050505050505050505050565b6101208101612f14828c61234d565b612f21602083018b6121c5565b612f2e604083018a61234d565b612f3b606083018961234d565b612f48608083018861234d565b612f5560a083018761234d565b612f6260c083018661234d565b612f6f60e0830185612344565b612f7d610100830184612344565b9a9950505050505050505050565b60408101612b3a828561234d565b60405181810167ffffffffffffffff81118282101715612fb857600080fd5b604052919050565b600067ffffffffffffffff821115612fd757600080fd5b5060209081020190565b600067ffffffffffffffff821115612ff857600080fd5b506020601f91909101601f19160190565b60200190565b60009081526020902090565b5190565b90815260200190565b60006113f882613042565b151590565b806108e1816130ca565b6001600160a01b031690565b60ff1690565b6001600160601b031690565b60006113f8825b60006113f882613028565b60006113f882613038565b60006113f882613054565b82818337506000910152565b60005b838110156130af578181015183820152602001613097565b83811115612ac45750506000910152565b601f01601f191690565b60088110611c6b57fe5b6130dd81613028565b8114611c6b57600080fd5b6130dd81613033565b6130dd81610442565b6130dd8161304e565b6130dd8161305456fea365627a7a723158202d7cb95a559f5a3c953de55920b81f4467f5e1ef635284839cc5c4d8012a3e5e6c6578706572696d656e74616cf564736f6c63430005110040",
  "source": "pragma solidity ^0.5.17;\npragma experimental ABIEncoderV2;\n\ncontract Governor {\n    /// @notice The name of this contract\n    string public constant name = \"Blender Governor\";\n\n    /// @notice The number of votes in support of a proposal required in order for a quorum to be reached and for a vote to succeed\n    function quorumVotes() public pure returns (uint256) {\n        return 16800000e18;\n    } // 4% of Blnd\n\n    /// @notice The number of votes required in order for a voter to become a proposer\n    function proposalThreshold() public pure returns (uint256) {\n        return 4200000e18;\n    } // 1% of Blnd\n\n    /// @notice The maximum number of actions that can be included in a proposal\n    function proposalMaxOperations() public pure returns (uint256) {\n        return 10;\n    } // 10 actions\n\n    /// @notice The delay before voting on a proposal may take place, once proposed\n    function votingDelay() public pure returns (uint256) {\n        return 1;\n    } // 1 block\n\n    /// @notice The duration of voting on a proposal, in blocks\n    function votingPeriod() public pure returns (uint256) {\n        return 40320;\n    } // ~7 days in blocks (assuming 15s blocks)\n\n    /// @notice The address of the Blender Protocol Timelock\n    TimelockInterface public timelock;\n\n    /// @notice The address of the Blender governance token\n    BlndInterface public blender;\n\n    /// @notice The total number of proposals\n    uint256 public proposalCount;\n\n    struct Proposal {\n        /// @notice Unique id for looking up a proposal\n        uint256 id;\n        /// @notice Creator of the proposal\n        address proposer;\n        /// @notice The timestamp that the proposal will be available for execution, set once the vote succeeds\n        uint256 eta;\n        /// @notice the ordered list of target addresses for calls to be made\n        address[] targets;\n        /// @notice The ordered list of values (i.e. msg.value) to be passed to the calls to be made\n        uint256[] values;\n        /// @notice The ordered list of function signatures to be called\n        string[] signatures;\n        /// @notice The ordered list of calldata to be passed to each call\n        bytes[] calldatas;\n        /// @notice The block at which voting begins: holders must delegate their votes prior to this block\n        uint256 startBlock;\n        /// @notice The block at which voting ends: votes must be cast prior to this block\n        uint256 endBlock;\n        /// @notice Current number of votes in favor of this proposal\n        uint256 forVotes;\n        /// @notice Current number of votes in opposition to this proposal\n        uint256 againstVotes;\n        /// @notice Flag marking whether the proposal has been canceled\n        bool canceled;\n        /// @notice Flag marking whether the proposal has been executed\n        bool executed;\n        /// @notice Receipts of ballots for the entire set of voters\n        mapping(address => Receipt) receipts;\n    }\n\n    /// @notice Ballot receipt record for a voter\n    struct Receipt {\n        /// @notice Whether or not a vote has been cast\n        bool hasVoted;\n        /// @notice Whether or not the voter supports the proposal\n        bool support;\n        /// @notice The number of votes the voter had, which were cast\n        uint96 votes;\n    }\n\n    /// @notice Possible states that a proposal may be in\n    enum ProposalState {\n        Pending,\n        Active,\n        Canceled,\n        Defeated,\n        Succeeded,\n        Queued,\n        Expired,\n        Executed\n    }\n\n    /// @notice The official record of all proposals ever proposed\n    mapping(uint256 => Proposal) public proposals;\n\n    /// @notice The latest proposal for each proposer\n    mapping(address => uint256) public latestProposalIds;\n\n    /// @notice The EIP-712 typehash for the contract's domain\n    bytes32 public constant DOMAIN_TYPEHASH = keccak256(\n        \"EIP712Domain(string name,uint256 chainId,address verifyingContract)\"\n    );\n\n    /// @notice The EIP-712 typehash for the ballot struct used by the contract\n    bytes32 public constant BALLOT_TYPEHASH = keccak256(\n        \"Ballot(uint256 proposalId,bool support)\"\n    );\n\n    /// @notice An event emitted when a new proposal is created\n    event ProposalCreated(\n        uint256 id,\n        address proposer,\n        address[] targets,\n        uint256[] values,\n        string[] signatures,\n        bytes[] calldatas,\n        uint256 startBlock,\n        uint256 endBlock,\n        string description\n    );\n\n    /// @notice An event emitted when a vote has been cast on a proposal\n    event VoteCast(\n        address voter,\n        uint256 proposalId,\n        bool support,\n        uint256 votes\n    );\n\n    /// @notice An event emitted when a proposal has been canceled\n    event ProposalCanceled(uint256 id);\n\n    /// @notice An event emitted when a proposal has been queued in the Timelock\n    event ProposalQueued(uint256 id, uint256 eta);\n\n    /// @notice An event emitted when a proposal has been executed in the Timelock\n    event ProposalExecuted(uint256 id);\n\n    constructor(address timelock_, address blender_) public {\n        timelock = TimelockInterface(timelock_);\n        blender = BlndInterface(blender_);\n    }\n\n    function propose(\n        address[] memory targets,\n        uint256[] memory values,\n        string[] memory signatures,\n        bytes[] memory calldatas,\n        string memory description\n    ) public returns (uint256) {\n        require(\n            blender.getPriorVotes(msg.sender, _sub256(block.number, 1)) >\n                proposalThreshold(),\n            \"Governor::propose: proposer votes below proposal threshold\"\n        );\n        require(\n            targets.length == values.length &&\n                targets.length == signatures.length &&\n                targets.length == calldatas.length,\n            \"Governor::propose: proposal function information arity mismatch\"\n        );\n        require(targets.length != 0, \"Governor::propose: must provide actions\");\n        require(\n            targets.length <= proposalMaxOperations(),\n            \"Governor::propose: too many actions\"\n        );\n\n        uint256 latestProposalId = latestProposalIds[msg.sender];\n        if (latestProposalId != 0) {\n            ProposalState proposersLatestProposalState = state(\n                latestProposalId\n            );\n            require(\n                proposersLatestProposalState != ProposalState.Active,\n                \"Governor::propose: one live proposal per proposer, found an already active proposal\"\n            );\n            require(\n                proposersLatestProposalState != ProposalState.Pending,\n                \"Governor::propose: one live proposal per proposer, found an already pending proposal\"\n            );\n        }\n\n        uint256 startBlock = _add256(block.number, votingDelay());\n        uint256 endBlock = _add256(startBlock, votingPeriod());\n\n        proposalCount++;\n        Proposal memory newProposal = Proposal({\n            id: proposalCount,\n            proposer: msg.sender,\n            eta: 0,\n            targets: targets,\n            values: values,\n            signatures: signatures,\n            calldatas: calldatas,\n            startBlock: startBlock,\n            endBlock: endBlock,\n            forVotes: 0,\n            againstVotes: 0,\n            canceled: false,\n            executed: false\n        });\n\n        proposals[newProposal.id] = newProposal;\n        latestProposalIds[newProposal.proposer] = newProposal.id;\n\n        emit ProposalCreated(\n            newProposal.id,\n            msg.sender,\n            targets,\n            values,\n            signatures,\n            calldatas,\n            startBlock,\n            endBlock,\n            description\n        );\n        return newProposal.id;\n    }\n\n    function queue(uint256 proposalId) public {\n        require(\n            state(proposalId) == ProposalState.Succeeded,\n            \"Governor::queue: proposal can only be queued if it is succeeded\"\n        );\n        Proposal storage proposal = proposals[proposalId];\n        uint256 eta = _add256(block.timestamp, timelock.delay());\n        for (uint256 i = 0; i < proposal.targets.length; i++) {\n            _queueOrRevert(\n                proposal.targets[i],\n                proposal.values[i],\n                proposal.signatures[i],\n                proposal.calldatas[i],\n                eta\n            );\n        }\n        proposal.eta = eta;\n        emit ProposalQueued(proposalId, eta);\n    }\n\n    function _queueOrRevert(\n        address target,\n        uint256 value,\n        string memory signature,\n        bytes memory data,\n        uint256 eta\n    ) internal {\n        require(\n            !timelock.queuedTransactions(\n                keccak256(abi.encode(target, value, signature, data, eta))\n            ),\n            \"Governor::_queueOrRevert: proposal action already queued at eta\"\n        );\n        timelock.queueTransaction(target, value, signature, data, eta);\n    }\n\n    function execute(uint256 proposalId) public payable {\n        require(\n            state(proposalId) == ProposalState.Queued,\n            \"Governor::execute: proposal can only be executed if it is queued\"\n        );\n        Proposal storage proposal = proposals[proposalId];\n        proposal.executed = true;\n        for (uint256 i = 0; i < proposal.targets.length; i++) {\n            timelock.executeTransaction.value(proposal.values[i])(\n                proposal.targets[i],\n                proposal.values[i],\n                proposal.signatures[i],\n                proposal.calldatas[i],\n                proposal.eta\n            );\n        }\n        emit ProposalExecuted(proposalId);\n    }\n\n    function cancel(uint256 proposalId) public {\n        ProposalState state = state(proposalId);\n        require(\n            state != ProposalState.Executed,\n            \"Governor::cancel: cannot cancel executed proposal\"\n        );\n\n        Proposal storage proposal = proposals[proposalId];\n        require(\n            blender.getPriorVotes(proposal.proposer, _sub256(block.number, 1)) <\n                proposalThreshold(),\n            \"Governor::cancel: proposer above threshold\"\n        );\n\n        proposal.canceled = true;\n        for (uint256 i = 0; i < proposal.targets.length; i++) {\n            timelock.cancelTransaction(\n                proposal.targets[i],\n                proposal.values[i],\n                proposal.signatures[i],\n                proposal.calldatas[i],\n                proposal.eta\n            );\n        }\n\n        emit ProposalCanceled(proposalId);\n    }\n\n    function getActions(uint256 proposalId)\n        public\n        view\n        returns (\n            address[] memory targets,\n            uint256[] memory values,\n            string[] memory signatures,\n            bytes[] memory calldatas\n        )\n    {\n        Proposal storage p = proposals[proposalId];\n        return (p.targets, p.values, p.signatures, p.calldatas);\n    }\n\n    function getReceipt(uint256 proposalId, address voter)\n        public\n        view\n        returns (Receipt memory)\n    {\n        return proposals[proposalId].receipts[voter];\n    }\n\n    function state(uint256 proposalId) public view returns (ProposalState) {\n        require(\n            proposalCount >= proposalId && proposalId > 0,\n            \"Governor::state: invalid proposal id\"\n        );\n        Proposal storage proposal = proposals[proposalId];\n        if (proposal.canceled) {\n            return ProposalState.Canceled;\n        } else if (block.number <= proposal.startBlock) {\n            return ProposalState.Pending;\n        } else if (block.number <= proposal.endBlock) {\n            return ProposalState.Active;\n        } else if (\n            proposal.forVotes <= proposal.againstVotes ||\n            proposal.forVotes < quorumVotes()\n        ) {\n            return ProposalState.Defeated;\n        } else if (proposal.eta == 0) {\n            return ProposalState.Succeeded;\n        } else if (proposal.executed) {\n            return ProposalState.Executed;\n        } else if (\n            block.timestamp >= _add256(proposal.eta, timelock.GRACE_PERIOD())\n        ) {\n            return ProposalState.Expired;\n        } else {\n            return ProposalState.Queued;\n        }\n    }\n\n    function castVote(uint256 proposalId, bool support) public {\n        return _castVote(msg.sender, proposalId, support);\n    }\n\n    function castVoteBySig(\n        uint256 proposalId,\n        bool support,\n        uint8 v,\n        bytes32 r,\n        bytes32 s\n    ) public {\n        bytes32 domainSeparator = keccak256(\n            abi.encode(\n                DOMAIN_TYPEHASH,\n                keccak256(bytes(name)),\n                _getChainId(),\n                address(this)\n            )\n        );\n        bytes32 structHash = keccak256(\n            abi.encode(BALLOT_TYPEHASH, proposalId, support)\n        );\n        bytes32 digest = keccak256(\n            abi.encodePacked(\"\\x19\\x01\", domainSeparator, structHash)\n        );\n        address signatory = ecrecover(digest, v, r, s);\n        require(\n            signatory != address(0),\n            \"Governor::castVoteBySig: invalid signature\"\n        );\n        return _castVote(signatory, proposalId, support);\n    }\n\n    function _castVote(\n        address voter,\n        uint256 proposalId,\n        bool support\n    ) internal {\n        require(\n            state(proposalId) == ProposalState.Active,\n            \"Governor::_castVote: voting is closed\"\n        );\n        Proposal storage proposal = proposals[proposalId];\n        Receipt storage receipt = proposal.receipts[voter];\n        require(\n            receipt.hasVoted == false,\n            \"Governor::_castVote: voter already voted\"\n        );\n        uint96 votes = blender.getPriorVotes(voter, proposal.startBlock);\n\n        if (support) {\n            proposal.forVotes = _add256(proposal.forVotes, votes);\n        } else {\n            proposal.againstVotes = _add256(proposal.againstVotes, votes);\n        }\n\n        receipt.hasVoted = true;\n        receipt.support = support;\n        receipt.votes = votes;\n\n        emit VoteCast(voter, proposalId, support, votes);\n    }\n\n    function _add256(uint256 a, uint256 b) internal pure returns (uint256) {\n        uint256 c = a + b;\n        require(c >= a, \"addition overflow\");\n        return c;\n    }\n\n    function _sub256(uint256 a, uint256 b) internal pure returns (uint256) {\n        require(b <= a, \"subtraction underflow\");\n        return a - b;\n    }\n\n    function _getChainId() internal pure returns (uint256) {\n        uint256 chainId;\n        assembly {\n            chainId := chainid()\n        }\n        return chainId;\n    }\n}\n\ninterface TimelockInterface {\n    function delay() external view returns (uint256);\n\n    function GRACE_PERIOD() external view returns (uint256);\n\n    function acceptAdmin() external;\n\n    function queuedTransactions(bytes32 hash) external view returns (bool);\n\n    function queueTransaction(\n        address target,\n        uint256 value,\n        string calldata signature,\n        bytes calldata data,\n        uint256 eta\n    ) external returns (bytes32);\n\n    function cancelTransaction(\n        address target,\n        uint256 value,\n        string calldata signature,\n        bytes calldata data,\n        uint256 eta\n    ) external;\n\n    function executeTransaction(\n        address target,\n        uint256 value,\n        string calldata signature,\n        bytes calldata data,\n        uint256 eta\n    ) external payable returns (bytes memory);\n}\n\ninterface BlndInterface {\n    function getPriorVotes(address account, uint256 blockNumber)\n        external\n        view\n        returns (uint96);\n}\n",
  "compiler": {
    "name": "solc",
    "version": "0.5.17+commit.d19bba13.Emscripten.clang"
  },
  "schemaVersion": "3.2.4",
  "devdoc": {
    "methods": {}
  },
  "userdoc": {
    "methods": {
      "proposalMaxOperations()": {
        "notice": "The maximum number of actions that can be included in a proposal"
      },
      "proposalThreshold()": {
        "notice": "The number of votes required in order for a voter to become a proposer"
      },
      "quorumVotes()": {
        "notice": "The number of votes in support of a proposal required in order for a quorum to be reached and for a vote to succeed"
      },
      "votingDelay()": {
        "notice": "The delay before voting on a proposal may take place, once proposed"
      },
      "votingPeriod()": {
        "notice": "The duration of voting on a proposal, in blocks"
      }
    }
  }
}