{
  "contractName": "AETHBlender",
  "abi": [
    {
      "inputs": [],
      "payable": false,
      "stateMutability": "nonpayable",
      "type": "constructor"
    },
    {
      "anonymous": false,
      "inputs": [
        {
          "indexed": false,
          "internalType": "uint32",
          "name": "blockCount",
          "type": "uint32"
        }
      ],
      "name": "BlockCountUpdate",
      "type": "event"
    },
    {
      "anonymous": false,
      "inputs": [
        {
          "indexed": true,
          "internalType": "bytes32",
          "name": "commitment",
          "type": "bytes32"
        },
        {
          "indexed": false,
          "internalType": "uint32",
          "name": "leafIndex",
          "type": "uint32"
        },
        {
          "indexed": false,
          "internalType": "uint256",
          "name": "timestamp",
          "type": "uint256"
        }
      ],
      "name": "Deposit",
      "type": "event"
    },
    {
      "anonymous": false,
      "inputs": [
        {
          "indexed": false,
          "internalType": "address",
          "name": "relayer",
          "type": "address"
        },
        {
          "indexed": false,
          "internalType": "bool",
          "name": "permitted",
          "type": "bool"
        }
      ],
      "name": "RelayerUpdate",
      "type": "event"
    },
    {
      "anonymous": false,
      "inputs": [
        {
          "indexed": false,
          "internalType": "address",
          "name": "to",
          "type": "address"
        },
        {
          "indexed": false,
          "internalType": "bytes32",
          "name": "rewardNullifierHash",
          "type": "bytes32"
        },
        {
          "indexed": true,
          "internalType": "address",
          "name": "relayer",
          "type": "address"
        },
        {
          "indexed": false,
          "internalType": "uint256",
          "name": "fee",
          "type": "uint256"
        }
      ],
      "name": "Reward",
      "type": "event"
    },
    {
      "anonymous": false,
      "inputs": [
        {
          "indexed": false,
          "internalType": "uint32",
          "name": "updateAtBlock",
          "type": "uint32"
        },
        {
          "indexed": false,
          "internalType": "bytes32",
          "name": "newRewardRoot",
          "type": "bytes32"
        }
      ],
      "name": "RewardUpdate",
      "type": "event"
    },
    {
      "anonymous": false,
      "inputs": [
        {
          "indexed": false,
          "internalType": "address",
          "name": "to",
          "type": "address"
        },
        {
          "indexed": false,
          "internalType": "bytes32",
          "name": "withdrawNullifierHash",
          "type": "bytes32"
        },
        {
          "indexed": false,
          "internalType": "bytes32",
          "name": "rewardNullifierHash",
          "type": "bytes32"
        },
        {
          "indexed": true,
          "internalType": "address",
          "name": "relayer",
          "type": "address"
        },
        {
          "indexed": false,
          "internalType": "uint256",
          "name": "fee",
          "type": "uint256"
        }
      ],
      "name": "Withdrawal",
      "type": "event"
    },
    {
      "anonymous": false,
      "inputs": [
        {
          "indexed": false,
          "internalType": "uint256",
          "name": "r_denomination",
          "type": "uint256"
        },
        {
          "indexed": false,
          "internalType": "uint32",
          "name": "leafIndex",
          "type": "uint32"
        }
      ],
      "name": "rewardUpdate",
      "type": "event"
    },
    {
      "payable": true,
      "stateMutability": "payable",
      "type": "fallback"
    },
    {
      "constant": true,
      "inputs": [],
      "name": "FIELD_SIZE",
      "outputs": [
        {
          "internalType": "uint256",
          "name": "",
          "type": "uint256"
        }
      ],
      "payable": false,
      "stateMutability": "view",
      "type": "function"
    },
    {
      "constant": true,
      "inputs": [],
      "name": "ROOT_HISTORY_SIZE",
      "outputs": [
        {
          "internalType": "uint32",
          "name": "",
          "type": "uint32"
        }
      ],
      "payable": false,
      "stateMutability": "view",
      "type": "function"
    },
    {
      "constant": true,
      "inputs": [],
      "name": "ZERO_VALUE",
      "outputs": [
        {
          "internalType": "uint256",
          "name": "",
          "type": "uint256"
        }
      ],
      "payable": false,
      "stateMutability": "view",
      "type": "function"
    },
    {
      "constant": true,
      "inputs": [],
      "name": "aToken",
      "outputs": [
        {
          "internalType": "contract AToken",
          "name": "",
          "type": "address"
        }
      ],
      "payable": false,
      "stateMutability": "view",
      "type": "function"
    },
    {
      "constant": false,
      "inputs": [
        {
          "internalType": "address",
          "name": "_relayer",
          "type": "address"
        }
      ],
      "name": "addRelayer",
      "outputs": [],
      "payable": false,
      "stateMutability": "nonpayable",
      "type": "function"
    },
    {
      "constant": true,
      "inputs": [],
      "name": "blnd",
      "outputs": [
        {
          "internalType": "address",
          "name": "",
          "type": "address"
        }
      ],
      "payable": false,
      "stateMutability": "view",
      "type": "function"
    },
    {
      "constant": true,
      "inputs": [],
      "name": "blockCount",
      "outputs": [
        {
          "internalType": "uint32",
          "name": "",
          "type": "uint32"
        }
      ],
      "payable": false,
      "stateMutability": "view",
      "type": "function"
    },
    {
      "constant": false,
      "inputs": [
        {
          "internalType": "address",
          "name": "_newOperator",
          "type": "address"
        }
      ],
      "name": "changeOperator",
      "outputs": [],
      "payable": false,
      "stateMutability": "nonpayable",
      "type": "function"
    },
    {
      "constant": true,
      "inputs": [
        {
          "internalType": "bytes32",
          "name": "",
          "type": "bytes32"
        }
      ],
      "name": "commitments",
      "outputs": [
        {
          "internalType": "bool",
          "name": "",
          "type": "bool"
        }
      ],
      "payable": false,
      "stateMutability": "view",
      "type": "function"
    },
    {
      "constant": true,
      "inputs": [],
      "name": "currentRootIndex",
      "outputs": [
        {
          "internalType": "uint32",
          "name": "",
          "type": "uint32"
        }
      ],
      "payable": false,
      "stateMutability": "view",
      "type": "function"
    },
    {
      "constant": true,
      "inputs": [],
      "name": "d_denomination",
      "outputs": [
        {
          "internalType": "uint256",
          "name": "",
          "type": "uint256"
        }
      ],
      "payable": false,
      "stateMutability": "view",
      "type": "function"
    },
    {
      "constant": false,
      "inputs": [
        {
          "internalType": "bytes32",
          "name": "_commitment",
          "type": "bytes32"
        }
      ],
      "name": "deposit",
      "outputs": [],
      "payable": true,
      "stateMutability": "payable",
      "type": "function"
    },
    {
      "constant": true,
      "inputs": [],
      "name": "depositors",
      "outputs": [
        {
          "internalType": "uint256",
          "name": "",
          "type": "uint256"
        }
      ],
      "payable": false,
      "stateMutability": "view",
      "type": "function"
    },
    {
      "constant": false,
      "inputs": [],
      "name": "disableRelayerWhitelisting",
      "outputs": [],
      "payable": false,
      "stateMutability": "nonpayable",
      "type": "function"
    },
    {
      "constant": false,
      "inputs": [],
      "name": "enableRelayerWhitelisting",
      "outputs": [],
      "payable": false,
      "stateMutability": "nonpayable",
      "type": "function"
    },
    {
      "constant": true,
      "inputs": [
        {
          "internalType": "uint256",
          "name": "",
          "type": "uint256"
        }
      ],
      "name": "filledSubtrees",
      "outputs": [
        {
          "internalType": "bytes32",
          "name": "",
          "type": "bytes32"
        }
      ],
      "payable": false,
      "stateMutability": "view",
      "type": "function"
    },
    {
      "constant": true,
      "inputs": [],
      "name": "firstStageDepositors",
      "outputs": [
        {
          "internalType": "uint256",
          "name": "",
          "type": "uint256"
        }
      ],
      "payable": false,
      "stateMutability": "view",
      "type": "function"
    },
    {
      "constant": true,
      "inputs": [],
      "name": "firstStageReward",
      "outputs": [
        {
          "internalType": "uint256",
          "name": "",
          "type": "uint256"
        }
      ],
      "payable": false,
      "stateMutability": "view",
      "type": "function"
    },
    {
      "constant": true,
      "inputs": [],
      "name": "getLastRoot",
      "outputs": [
        {
          "internalType": "bytes32",
          "name": "",
          "type": "bytes32"
        }
      ],
      "payable": false,
      "stateMutability": "view",
      "type": "function"
    },
    {
      "constant": true,
      "inputs": [
        {
          "internalType": "bytes32",
          "name": "_left",
          "type": "bytes32"
        },
        {
          "internalType": "bytes32",
          "name": "_right",
          "type": "bytes32"
        }
      ],
      "name": "hashLeftRight",
      "outputs": [
        {
          "internalType": "bytes32",
          "name": "",
          "type": "bytes32"
        }
      ],
      "payable": false,
      "stateMutability": "pure",
      "type": "function"
    },
    {
      "constant": true,
      "inputs": [
        {
          "internalType": "bytes32",
          "name": "_root",
          "type": "bytes32"
        }
      ],
      "name": "isKnownRoot",
      "outputs": [
        {
          "internalType": "bool",
          "name": "",
          "type": "bool"
        }
      ],
      "payable": false,
      "stateMutability": "view",
      "type": "function"
    },
    {
      "constant": true,
      "inputs": [
        {
          "internalType": "bytes32",
          "name": "_rwdHash",
          "type": "bytes32"
        }
      ],
      "name": "isRedeem",
      "outputs": [
        {
          "internalType": "bool",
          "name": "",
          "type": "bool"
        }
      ],
      "payable": false,
      "stateMutability": "view",
      "type": "function"
    },
    {
      "constant": true,
      "inputs": [
        {
          "internalType": "bytes32[]",
          "name": "_nullifierHashes",
          "type": "bytes32[]"
        }
      ],
      "name": "isRedeemArray",
      "outputs": [
        {
          "internalType": "bool[]",
          "name": "redeem",
          "type": "bool[]"
        }
      ],
      "payable": false,
      "stateMutability": "view",
      "type": "function"
    },
    {
      "constant": true,
      "inputs": [
        {
          "internalType": "bytes32",
          "name": "_rroot",
          "type": "bytes32"
        }
      ],
      "name": "isRewardRoot",
      "outputs": [
        {
          "internalType": "bool",
          "name": "",
          "type": "bool"
        }
      ],
      "payable": false,
      "stateMutability": "view",
      "type": "function"
    },
    {
      "constant": true,
      "inputs": [
        {
          "internalType": "bytes32",
          "name": "_wdrHash",
          "type": "bytes32"
        }
      ],
      "name": "isSpent",
      "outputs": [
        {
          "internalType": "bool",
          "name": "",
          "type": "bool"
        }
      ],
      "payable": false,
      "stateMutability": "view",
      "type": "function"
    },
    {
      "constant": true,
      "inputs": [
        {
          "internalType": "bytes32[]",
          "name": "_nullifierHashes",
          "type": "bytes32[]"
        }
      ],
      "name": "isSpentArray",
      "outputs": [
        {
          "internalType": "bool[]",
          "name": "spent",
          "type": "bool[]"
        }
      ],
      "payable": false,
      "stateMutability": "view",
      "type": "function"
    },
    {
      "constant": true,
      "inputs": [],
      "name": "lendingPoolAddressesProvider",
      "outputs": [
        {
          "internalType": "contract ALendingPoolAddressesProvider",
          "name": "",
          "type": "address"
        }
      ],
      "payable": false,
      "stateMutability": "view",
      "type": "function"
    },
    {
      "constant": true,
      "inputs": [],
      "name": "levels",
      "outputs": [
        {
          "internalType": "uint32",
          "name": "",
          "type": "uint32"
        }
      ],
      "payable": false,
      "stateMutability": "view",
      "type": "function"
    },
    {
      "constant": true,
      "inputs": [],
      "name": "nextIndex",
      "outputs": [
        {
          "internalType": "uint32",
          "name": "",
          "type": "uint32"
        }
      ],
      "payable": false,
      "stateMutability": "view",
      "type": "function"
    },
    {
      "constant": true,
      "inputs": [
        {
          "internalType": "bytes32",
          "name": "",
          "type": "bytes32"
        }
      ],
      "name": "nullifierHashes",
      "outputs": [
        {
          "internalType": "bool",
          "name": "",
          "type": "bool"
        }
      ],
      "payable": false,
      "stateMutability": "view",
      "type": "function"
    },
    {
      "constant": true,
      "inputs": [],
      "name": "operator",
      "outputs": [
        {
          "internalType": "address",
          "name": "",
          "type": "address"
        }
      ],
      "payable": false,
      "stateMutability": "view",
      "type": "function"
    },
    {
      "constant": true,
      "inputs": [],
      "name": "r_denomination",
      "outputs": [
        {
          "internalType": "uint256",
          "name": "",
          "type": "uint256"
        }
      ],
      "payable": false,
      "stateMutability": "view",
      "type": "function"
    },
    {
      "constant": true,
      "inputs": [
        {
          "internalType": "address",
          "name": "",
          "type": "address"
        }
      ],
      "name": "relayerWhitelist",
      "outputs": [
        {
          "internalType": "bool",
          "name": "",
          "type": "bool"
        }
      ],
      "payable": false,
      "stateMutability": "view",
      "type": "function"
    },
    {
      "constant": true,
      "inputs": [],
      "name": "relayerWhitelistingEnabled",
      "outputs": [
        {
          "internalType": "bool",
          "name": "",
          "type": "bool"
        }
      ],
      "payable": false,
      "stateMutability": "view",
      "type": "function"
    },
    {
      "constant": false,
      "inputs": [
        {
          "internalType": "address",
          "name": "_relayer",
          "type": "address"
        }
      ],
      "name": "removeRelayer",
      "outputs": [],
      "payable": false,
      "stateMutability": "nonpayable",
      "type": "function"
    },
    {
      "constant": true,
      "inputs": [],
      "name": "reserve",
      "outputs": [
        {
          "internalType": "address",
          "name": "",
          "type": "address"
        }
      ],
      "payable": false,
      "stateMutability": "view",
      "type": "function"
    },
    {
      "constant": false,
      "inputs": [
        {
          "internalType": "bytes",
          "name": "_rproof",
          "type": "bytes"
        },
        {
          "internalType": "bytes32",
          "name": "_rroot",
          "type": "bytes32"
        },
        {
          "internalType": "bytes32",
          "name": "_rwdHash",
          "type": "bytes32"
        },
        {
          "internalType": "address payable",
          "name": "_recipient",
          "type": "address"
        },
        {
          "internalType": "address payable",
          "name": "_relayer",
          "type": "address"
        },
        {
          "internalType": "uint256",
          "name": "_fee",
          "type": "uint256"
        },
        {
          "internalType": "uint256",
          "name": "_refund",
          "type": "uint256"
        }
      ],
      "name": "reward",
      "outputs": [],
      "payable": true,
      "stateMutability": "payable",
      "type": "function"
    },
    {
      "constant": true,
      "inputs": [],
      "name": "rewardCounter",
      "outputs": [
        {
          "internalType": "uint32",
          "name": "",
          "type": "uint32"
        }
      ],
      "payable": false,
      "stateMutability": "view",
      "type": "function"
    },
    {
      "constant": true,
      "inputs": [],
      "name": "rewardCurrentBlocknum",
      "outputs": [
        {
          "internalType": "uint32",
          "name": "",
          "type": "uint32"
        }
      ],
      "payable": false,
      "stateMutability": "view",
      "type": "function"
    },
    {
      "constant": true,
      "inputs": [],
      "name": "rewardCurrentRoot",
      "outputs": [
        {
          "internalType": "bytes32",
          "name": "",
          "type": "bytes32"
        }
      ],
      "payable": false,
      "stateMutability": "view",
      "type": "function"
    },
    {
      "constant": true,
      "inputs": [],
      "name": "rewardNextBlocknum",
      "outputs": [
        {
          "internalType": "uint32",
          "name": "",
          "type": "uint32"
        }
      ],
      "payable": false,
      "stateMutability": "view",
      "type": "function"
    },
    {
      "constant": true,
      "inputs": [],
      "name": "rewardNextRoot",
      "outputs": [
        {
          "internalType": "bytes32",
          "name": "",
          "type": "bytes32"
        }
      ],
      "payable": false,
      "stateMutability": "view",
      "type": "function"
    },
    {
      "constant": true,
      "inputs": [
        {
          "internalType": "bytes32",
          "name": "",
          "type": "bytes32"
        }
      ],
      "name": "rewardNullifierHashes",
      "outputs": [
        {
          "internalType": "bool",
          "name": "",
          "type": "bool"
        }
      ],
      "payable": false,
      "stateMutability": "view",
      "type": "function"
    },
    {
      "constant": true,
      "inputs": [],
      "name": "rewardVerifier",
      "outputs": [
        {
          "internalType": "contract RVerifier",
          "name": "",
          "type": "address"
        }
      ],
      "payable": false,
      "stateMutability": "view",
      "type": "function"
    },
    {
      "constant": true,
      "inputs": [
        {
          "internalType": "uint256",
          "name": "",
          "type": "uint256"
        }
      ],
      "name": "roots",
      "outputs": [
        {
          "internalType": "bytes32",
          "name": "",
          "type": "bytes32"
        }
      ],
      "payable": false,
      "stateMutability": "view",
      "type": "function"
    },
    {
      "constant": true,
      "inputs": [],
      "name": "secondStageDepositors",
      "outputs": [
        {
          "internalType": "uint256",
          "name": "",
          "type": "uint256"
        }
      ],
      "payable": false,
      "stateMutability": "view",
      "type": "function"
    },
    {
      "constant": true,
      "inputs": [],
      "name": "secondStageReward",
      "outputs": [
        {
          "internalType": "uint256",
          "name": "",
          "type": "uint256"
        }
      ],
      "payable": false,
      "stateMutability": "view",
      "type": "function"
    },
    {
      "constant": false,
      "inputs": [
        {
          "internalType": "uint32",
          "name": "_blockCount",
          "type": "uint32"
        }
      ],
      "name": "setBlockCount",
      "outputs": [],
      "payable": false,
      "stateMutability": "nonpayable",
      "type": "function"
    },
    {
      "constant": true,
      "inputs": [],
      "name": "thirdStageReward",
      "outputs": [
        {
          "internalType": "uint256",
          "name": "",
          "type": "uint256"
        }
      ],
      "payable": false,
      "stateMutability": "view",
      "type": "function"
    },
    {
      "constant": false,
      "inputs": [
        {
          "internalType": "address",
          "name": "_newVerifier",
          "type": "address"
        }
      ],
      "name": "updateRewardVerifier",
      "outputs": [],
      "payable": false,
      "stateMutability": "nonpayable",
      "type": "function"
    },
    {
      "constant": false,
      "inputs": [
        {
          "internalType": "address",
          "name": "_newVerifier",
          "type": "address"
        }
      ],
      "name": "updateWithdrawVerifier",
      "outputs": [],
      "payable": false,
      "stateMutability": "nonpayable",
      "type": "function"
    },
    {
      "constant": false,
      "inputs": [
        {
          "internalType": "bytes",
          "name": "_proof",
          "type": "bytes"
        },
        {
          "internalType": "bytes32",
          "name": "_root",
          "type": "bytes32"
        },
        {
          "internalType": "bytes32",
          "name": "_wdrHash",
          "type": "bytes32"
        },
        {
          "internalType": "bytes32",
          "name": "_rwdHash",
          "type": "bytes32"
        },
        {
          "internalType": "address payable",
          "name": "_recipient",
          "type": "address"
        },
        {
          "internalType": "address payable",
          "name": "_relayer",
          "type": "address"
        },
        {
          "internalType": "uint256",
          "name": "_fee",
          "type": "uint256"
        },
        {
          "internalType": "uint256",
          "name": "_refund",
          "type": "uint256"
        }
      ],
      "name": "withdraw",
      "outputs": [],
      "payable": true,
      "stateMutability": "payable",
      "type": "function"
    },
    {
      "constant": true,
      "inputs": [],
      "name": "withdrawVerifier",
      "outputs": [
        {
          "internalType": "contract WVerifier",
          "name": "",
          "type": "address"
        }
      ],
      "payable": false,
      "stateMutability": "view",
      "type": "function"
    },
    {
      "constant": true,
      "inputs": [
        {
          "internalType": "uint256",
          "name": "",
          "type": "uint256"
        }
      ],
      "name": "zeros",
      "outputs": [
        {
          "internalType": "bytes32",
          "name": "",
          "type": "bytes32"
        }
      ],
      "payable": false,
      "stateMutability": "view",
      "type": "function"
    },
    {
      "constant": false,
      "inputs": [
        {
          "internalType": "contract WVerifier",
          "name": "_withdrawVerifier",
          "type": "address"
        },
        {
          "internalType": "contract RVerifier",
          "name": "_rewardVerifier",
          "type": "address"
        },
        {
          "internalType": "uint256",
          "name": "_d_denomination",
          "type": "uint256"
        },
        {
          "internalType": "uint32",
          "name": "_merkleTreeHeight",
          "type": "uint32"
        },
        {
          "internalType": "uint32",
          "name": "_blockCount",
          "type": "uint32"
        },
        {
          "internalType": "address",
          "name": "_operator",
          "type": "address"
        },
        {
          "internalType": "address",
          "name": "_blnd",
          "type": "address"
        },
        {
          "internalType": "address",
          "name": "_aToken",
          "type": "address"
        },
        {
          "internalType": "address",
          "name": "_reserve",
          "type": "address"
        },
        {
          "internalType": "uint256",
          "name": "_firstStageReward",
          "type": "uint256"
        },
        {
          "internalType": "uint256",
          "name": "_secondStageReward",
          "type": "uint256"
        },
        {
          "internalType": "uint256",
          "name": "_thirdStageReward",
          "type": "uint256"
        },
        {
          "internalType": "uint256",
          "name": "_firstStageDepositors",
          "type": "uint256"
        },
        {
          "internalType": "uint256",
          "name": "_secondStageDepositors",
          "type": "uint256"
        }
      ],
      "name": "initialize",
      "outputs": [],
      "payable": false,
      "stateMutability": "nonpayable",
      "type": "function"
    }
  ],
  "bytecode": "0x608060405234801561001057600080fd5b506135a7806100206000396000f3fe6080604052600436106103505760003560e01c8063864eb164116101c6578063c526cb5f116100f7578063e829558811610095578063f4e149af1161006f578063f4e149af14610bcb578063f9406cf314610c67578063fc7e9c6f14610c7c578063fe7dab5214610c9157610350565b8063e829558814610b62578063ec73295914610b8c578063f178e47c14610ba157610350565b8063d8661517116100d1578063d866151714610adb578063dd39f00d14610af0578063e16f7cd414610b23578063e5285dcc14610b3857610350565b8063c526cb5f14610a87578063cd3293de14610ab1578063cd87a3b414610ac657610350565b8063b743369111610164578063bb0e824b1161013e578063bb0e824b1461099a578063bba00ba5146109af578063c2b40ae4146109c4578063c3f436b7146109ee57610350565b8063b7433691146108d0578063b9fae5f114610970578063ba70f7571461098557610350565b8063a0c1f15e116101a0578063a0c1f15e14610856578063aaa466881461086b578063ad5dd7ed14610880578063b214faa5146108b357610350565b8063864eb164146107b157806390eeb02b146107c65780639fa12d0b146107db57610350565b80634c6423e1116102a057806375c231281161023e5780638036bcc9116102185780638036bcc91461073357806383922d291461075d578063839df9451461077257806385534e9d1461079c57610350565b806375c23128146106d657806378c66697146107095780637d67423f1461071e57610350565b8063585334e31161027a578063585334e31461064f57806360f0a5ac146106645780636d9833e3146106975780636f2f36d7146106c157610350565b80634c6423e1146106105780634ecf518b14610625578063570ca7351461063a57610350565b80632e2d40ce1161030d5780633cac0bb8116102e75780633cac0bb8146105835780633ce0de9b146105b3578063414a37ba146105c857806343d01520146105dd57610350565b80632e2d40ce1461051757806338bf282e1461052c5780633a1fa6431461056e57610350565b806306394c9b1461035257806307225b4d1461038557806309087f0c146103b35780631610f7621461047e57806317cc915c146104bc57806321fc045a146104e6575b005b34801561035e57600080fd5b506103506004803603602081101561037557600080fd5b50356001600160a01b0316610ca6565b34801561039157600080fd5b5061039a610d11565b6040805163ffffffff9092168252519081900360200190f35b3480156103bf57600080fd5b5061042e600480360360208110156103d657600080fd5b810190602081018135600160201b8111156103f057600080fd5b82018360208201111561040257600080fd5b803590602001918460208302840111600160201b8311171561042357600080fd5b509092509050610d24565b60408051602080825283518183015283519192839290830191858101910280838360005b8381101561046a578181015183820152602001610452565b505050509050019250505060405180910390f35b34801561048a57600080fd5b506104a8600480360360208110156104a157600080fd5b5035610dac565b604080519115158252519081900360200190f35b3480156104c857600080fd5b506104a8600480360360208110156104df57600080fd5b5035610dc1565b3480156104f257600080fd5b506104fb610dd6565b604080516001600160a01b039092168252519081900360200190f35b34801561052357600080fd5b5061039a610de5565b34801561053857600080fd5b5061055c6004803603604081101561054f57600080fd5b5080359060200135610df1565b60408051918252519081900360200190f35b34801561057a57600080fd5b5061055c610f15565b34801561058f57600080fd5b50610350600480360360208110156105a657600080fd5b503563ffffffff16610f1b565b3480156105bf57600080fd5b5061039a610fdd565b3480156105d457600080fd5b5061055c610fe9565b3480156105e957600080fd5b506103506004803603602081101561060057600080fd5b50356001600160a01b031661100d565b34801561061c57600080fd5b5061039a611078565b34801561063157600080fd5b5061039a61108b565b34801561064657600080fd5b506104fb61109d565b34801561065b57600080fd5b506103506110ac565b34801561067057600080fd5b506103506004803603602081101561068757600080fd5b50356001600160a01b031661116d565b3480156106a357600080fd5b506104a8600480360360208110156106ba57600080fd5b5035611281565b3480156106cd57600080fd5b5061055c6112f4565b3480156106e257600080fd5b50610350600480360360208110156106f957600080fd5b50356001600160a01b03166112fa565b34801561071557600080fd5b5061055c611365565b34801561072a57600080fd5b506104a861136b565b34801561073f57600080fd5b506104a86004803603602081101561075657600080fd5b503561137b565b34801561076957600080fd5b5061055c611390565b34801561077e57600080fd5b506104a86004803603602081101561079557600080fd5b5035611396565b3480156107a857600080fd5b506103506113ab565b3480156107bd57600080fd5b506104fb611466565b3480156107d257600080fd5b5061039a611475565b3480156107e757600080fd5b5061042e600480360360208110156107fe57600080fd5b810190602081018135600160201b81111561081857600080fd5b82018360208201111561082a57600080fd5b803590602001918460208302840111600160201b8311171561084b57600080fd5b509092509050611481565b34801561086257600080fd5b506104fb611502565b34801561087757600080fd5b5061055c611511565b34801561088c57600080fd5b506104a8600480360360208110156108a357600080fd5b50356001600160a01b0316611517565b610350600480360360208110156108c957600080fd5b503561152c565b61035060048036036101008110156108e757600080fd5b810190602081018135600160201b81111561090157600080fd5b82018360208201111561091357600080fd5b803590602001918460018302840111600160201b8311171561093457600080fd5b91935091508035906020810135906040810135906001600160a01b03606082013581169160808101359091169060a08101359060c00135611658565b34801561097c57600080fd5b5061055c611a8f565b34801561099157600080fd5b5061055c611a95565b3480156109a657600080fd5b5061055c611ab5565b3480156109bb57600080fd5b506104fb611abb565b3480156109d057600080fd5b5061055c600480360360208110156109e757600080fd5b5035611aca565b610350600480360360e0811015610a0457600080fd5b810190602081018135600160201b811115610a1e57600080fd5b820183602082011115610a3057600080fd5b803590602001918460018302840111600160201b83111715610a5157600080fd5b91935091508035906020810135906001600160a01b03604082013581169160608101359091169060808101359060a00135611ade565b348015610a9357600080fd5b506104a860048036036020811015610aaa57600080fd5b5035611f90565b348015610abd57600080fd5b506104fb611fb9565b348015610ad257600080fd5b5061039a611fc8565b348015610ae757600080fd5b5061055c611fcd565b348015610afc57600080fd5b5061035060048036036020811015610b1357600080fd5b50356001600160a01b0316611fd3565b348015610b2f57600080fd5b5061055c6120ef565b348015610b4457600080fd5b506104a860048036036020811015610b5b57600080fd5b50356120f5565b348015610b6e57600080fd5b5061055c60048036036020811015610b8557600080fd5b503561210a565b348015610b9857600080fd5b5061055c612128565b348015610bad57600080fd5b5061055c60048036036020811015610bc457600080fd5b503561214c565b348015610bd757600080fd5b5061035060048036036101c0811015610bef57600080fd5b506001600160a01b038135811691602081013582169160408201359163ffffffff606082013581169260808301359091169160a081013582169160c082013581169160e08101358216916101008201351690610120810135906101408101359061016081013590610180810135906101a00135612159565b348015610c7357600080fd5b506104fb6121ca565b348015610c8857600080fd5b5061039a6121d9565b348015610c9d57600080fd5b5061055c6121ec565b6073546001600160a01b03163314610cef5760405162461bcd60e51b81526004018080602001828103825260258152602001806135196025913960400191505060405180910390fd5b607380546001600160a01b0319166001600160a01b0392909216919091179055565b606b54600160201b900463ffffffff1681565b604080518281526020808402820101909152606090828015610d50578160200160208202803883390190505b50905060005b82811015610da557610d79848483818110610d6d57fe5b9050602002013561137b565b15610d9d576001828281518110610d8c57fe5b911515602092830291909101909101525b600101610d56565b5092915050565b606f6020526000908152604090205460ff1681565b606e6020526000908152604090205460ff1681565b6075546001600160a01b031681565b60695463ffffffff1681565b60408051600280825260608083018452600093909291906020830190803883390190505090508360001c81600081518110610e2857fe5b6020026020010181815250508260001c81600181518110610e4557fe5b602002602001018181525050600073__Hasher________________________________63c4420fb4836040518263ffffffff1660e01b81526004018080602001828103825283818151815260200191508051906020019060200280838360005b83811015610ebd578181015183820152602001610ea5565b505050509050019250505060206040518083038186803b158015610ee057600080fd5b505af4158015610ef4573d6000803e3d6000fd5b505050506040513d6020811015610f0a57600080fd5b505195945050505050565b60685481565b6073546001600160a01b03163314610f645760405162461bcd60e51b81526004018080602001828103825260258152602001806135196025913960400191505060405180910390fd5b606b54600160401b900460ff1615610fb1576040805162461bcd60e51b815260206004820152601f602482015260008051602061323b833981519152604482015290519081900360640190fd5b606b805460ff60401b1916600160401b179055610fcd816121f2565b50606b805460ff60401b19169055565b606b5463ffffffff1681565b7f30644e72e131a029b85045b68181585d2833e84879b9709143e1f593f000000181565b6073546001600160a01b031633146110565760405162461bcd60e51b81526004018080602001828103825260258152602001806135196025913960400191505060405180910390fd5b607280546001600160a01b0319166001600160a01b0392909216919091179055565b607254600160a01b900463ffffffff1681565b60005462010000900463ffffffff1681565b6073546001600160a01b031681565b6073546001600160a01b031633146110f55760405162461bcd60e51b81526004018080602001828103825260258152602001806135196025913960400191505060405180910390fd5b606b54600160401b900460ff1615611142576040805162461bcd60e51b815260206004820152601f602482015260008051602061323b833981519152604482015290519081900360640190fd5b606b80546073805460ff60a01b1916600160a01b17905560ff60401b19908116600160401b17169055565b6073546001600160a01b031633146111b65760405162461bcd60e51b81526004018080602001828103825260258152602001806135196025913960400191505060405180910390fd5b606b54600160401b900460ff1615611203576040805162461bcd60e51b815260206004820152601f602482015260008051602061323b833981519152604482015290519081900360640190fd5b606b805460ff60401b1916600160401b1790556001600160a01b0381166000818152607460209081526040808320805460ff1916905580519384529083019190915280517f6d322066f37f873d4ea983fd3c62fe4d7a1d5d6461ae6950297b949745344e059281900390910190a150606b805460ff60401b19169055565b600081611290575060006112ef565b60035463ffffffff165b60048163ffffffff16606481106112ad57fe5b01548314156112c05760019150506112ef565b63ffffffff81166112cf575060645b6003546000199091019063ffffffff8083169116141561129a5760009150505b919050565b60795481565b6073546001600160a01b031633146113435760405162461bcd60e51b81526004018080602001828103825260258152602001806135196025913960400191505060405180910390fd5b607180546001600160a01b0319166001600160a01b0392909216919091179055565b606d5481565b607354600160a01b900460ff1681565b6000908152606f602052604090205460ff1690565b606a5481565b60706020526000908152604090205460ff1681565b6073546001600160a01b031633146113f45760405162461bcd60e51b81526004018080602001828103825260258152602001806135196025913960400191505060405180910390fd5b606b54600160401b900460ff1615611441576040805162461bcd60e51b815260206004820152601f602482015260008051602061323b833981519152604482015290519081900360640190fd5b606b80546073805460ff60a01b1916905560ff60401b19908116600160401b17169055565b6071546001600160a01b031681565b60035463ffffffff1681565b6040805182815260208084028201019091526060908280156114ad578160200160208202803883390190505b50905060005b82811015610da5576114d68484838181106114ca57fe5b905060200201356120f5565b156114fa5760018282815181106114e957fe5b911515602092830291909101909101525b6001016114b3565b607c546001600160a01b031681565b607e5481565b60746020526000908152604090205460ff1681565b606b54600160401b900460ff1615611579576040805162461bcd60e51b815260206004820152601f602482015260008051602061323b833981519152604482015290519081900360640190fd5b606b805460ff60401b1916600160401b17905560008181526070602052604090205460ff16156115da5760405162461bcd60e51b81526004018080602001828103825260218152602001806134306021913960400191505060405180910390fd5b60006115e582612255565b6000838152607060205260409020805460ff191660011790559050611608612488565b6040805163ffffffff83168152426020820152815184927fa945e51eec50ab98c161376f0db4cf2aeba3ec92755fe2fcd388bdbbb80ff196928290030190a25050606b805460ff60401b19169055565b606b54600160401b900460ff16156116a5576040805162461bcd60e51b815260206004820152601f602482015260008051602061323b833981519152604482015290519081900360640190fd5b606b805460ff60401b1916600160401b1790556073548390600160a01b900460ff1615611735576001600160a01b03811660009081526074602052604090205460ff16611735576040805162461bcd60e51b81526020600482015260196024820152782737ba1030903bb434ba32b634b9ba32b2103932b630bcb2b960391b604482015290519081900360640190fd5b606c5483111561178c576040805162461bcd60e51b815260206004820152601a60248201527f4665652065786365656473207472616e736665722076616c7565000000000000604482015290519081900360640190fd5b6000878152606e602052604090205460ff16156117da5760405162461bcd60e51b81526004018080602001828103825260388152602001806133a26038913960400191505060405180910390fd5b6000868152606e602052604090205460ff16156118285760405162461bcd60e51b81526004018080602001828103825260368152602001806132f26036913960400191505060405180910390fd5b61183188611281565b611882576040805162461bcd60e51b815260206004820152601c60248201527f43616e6e6f742066696e6420796f7572206d65726b6c6520726f6f7400000000604482015290519081900360640190fd5b6071546040805160e080820183528b8252602082018b90528183018a90526001600160a01b038981166060840152888116608084015260a0830188905260c08301879052925163598da1d160e01b8152929093169263598da1d1928e928e9290916004810191829160240190849080838360005b8381101561190e5781810151838201526020016118f6565b505050509050018281038252858582818152602001925080828437600081840152601f19601f820116905080830192505050945050505050602060405180830381600087803b15801561196057600080fd5b505af1158015611974573d6000803e3d6000fd5b505050506040513d602081101561198a57600080fd5b50516119d6576040805162461bcd60e51b815260206004820152601660248201527524b73b30b634b2103bb4ba34323930bb90383937b7b360511b604482015290519081900360640190fd5b6000878152606e602090815260408083208054600160ff1991821681179092558a85528285208054821683179055606f909352922080549091169091179055611a21858585856125bb565b604080516001600160a01b038781168252602082018a9052818301899052606082018690529151918616917fb9632a5273eccb6a6c4f89035ced459ebb3db29e0ad807721982f4960602242d9181900360800190a25050606b805460ff60401b191690555050505050505050565b607a5481565b60035460009060049063ffffffff1660648110611aae57fe5b0154905090565b60765481565b607b546001600160a01b031681565b60048160648110611ad757fe5b0154905081565b606b54600160401b900460ff1615611b2b576040805162461bcd60e51b815260206004820152601f602482015260008051602061323b833981519152604482015290519081900360640190fd5b606b805460ff60401b1916600160401b1790556073548390600160a01b900460ff1615611bbb576001600160a01b03811660009081526074602052604090205460ff16611bbb576040805162461bcd60e51b81526020600482015260196024820152782737ba1030903bb434ba32b634b9ba32b2103932b630bcb2b960391b604482015290519081900360640190fd5b606d54831115611c12576040805162461bcd60e51b815260206004820152601a60248201527f4665652065786365656473207472616e736665722076616c7565000000000000604482015290519081900360640190fd5b6000868152606f602052604090205460ff1615611c605760405162461bcd60e51b81526004018080602001828103825260298152602001806134766029913960400191505060405180910390fd5b611c6987611f90565b611cba576040805162461bcd60e51b815260206004820152601c60248201527f43616e6e6f742066696e6420796f7572206d65726b6c6520726f6f7400000000604482015290519081900360640190fd5b6072546040805160c080820183528a8252602082018a90526001600160a01b038981168385015288811660608401526080830188905260a08301879052925163695ef6f960e01b8152929093169263695ef6f9928d928d9290916004810191829160240190849080838360005b83811015611d3f578181015183820152602001611d27565b505050509050018281038252858582818152602001925080828437600081840152601f19601f820116905080830192505050945050505050602060405180830381600087803b158015611d9157600080fd5b505af1158015611da5573d6000803e3d6000fd5b505050506040513d6020811015611dbb57600080fd5b5051611e05576040805162461bcd60e51b815260206004820152601460248201527324b73b30b634b2103932bbb0b93210383937b7b360611b604482015290519081900360640190fd5b607954607254600160a01b900463ffffffff161415611e7057607754606d81905560725460408051928352600160a01b90910463ffffffff16602083015280517f9387af17fcab2a35cbf86e21b2472b4ffae5072fdb57c71e9dece59d7b16035b9281900390910190a15b607a54607254600160a01b900463ffffffff161415611edb57607854606d81905560725460408051928352600160a01b90910463ffffffff16602083015280517f9387af17fcab2a35cbf86e21b2472b4ffae5072fdb57c71e9dece59d7b16035b9281900390910190a15b6000868152606f60205260409020805460ff19166001179055611f00858585856128c0565b60728054600163ffffffff600160a01b808404821692909201160263ffffffff60a01b19909116179055604080516001600160a01b038781168252602082018990528183018690529151918616917fd372214d98616c555c2fbc3e9e729a309374d6c2aa7c20e84c73c4af5e44e6189181900360600190a25050606b805460ff60401b1916905550505050505050565b600081611f9f575060006112ef565b606854821415611fb1575060016112ef565b506000919050565b607d546001600160a01b031681565b606481565b60775481565b6073546001600160a01b0316331461201c5760405162461bcd60e51b81526004018080602001828103825260258152602001806135196025913960400191505060405180910390fd5b606b54600160401b900460ff1615612069576040805162461bcd60e51b815260206004820152601f602482015260008051602061323b833981519152604482015290519081900360640190fd5b606b805460ff60401b1916600160401b1790556001600160a01b038116600081815260746020908152604091829020805460ff191660011790819055825193845260ff1615159083015280517f6d322066f37f873d4ea983fd3c62fe4d7a1d5d6461ae6950297b949745344e059281900390910190a150606b805460ff60401b19169055565b606c5481565b6000908152606e602052604090205460ff1690565b6002818154811061211757fe5b600091825260209091200154905081565b7f2fe54c60d3acabf3343a35b6eba15db4821b340f76e741e2249685ed4899af6c81565b6001818154811061211757fe5b61216d8e8e8e8e8e8e8e8c8c8c8c8c6129d8565b5050607b80546001600160a01b03199081167324a42fd28c976a61df5d00d0599c34c4f90748c817909155607c80546001600160a01b03978816908316179055607d80549590961694169390931790935550505050505050505050565b6072546001600160a01b031681565b600354600160201b900463ffffffff1681565b60785481565b606b805463ffffffff808416600160201b90810267ffffffff00000000199093169290921792839055604080519290930416815290517f8a953a9fd53611ff032fe393666876e8fc502dc48c18a937a45280549418117d9181900360200190a150565b60035460008054909163ffffffff600160201b909104811691620100009004811660020a168114156122b85760405162461bcd60e51b815260040180806020018281038252602f81526020018061325b602f913960400191505060405180910390fd5b6003805463ffffffff600160201b80830482166001019091160267ffffffff000000001990911617905582600080805b60005463ffffffff620100009091048116908216101561239657600185166123525783925060028163ffffffff168154811061232057fe5b906000526020600020015491508360018263ffffffff168154811061234157fe5b600091825260209091200155612376565b60018163ffffffff168154811061236557fe5b906000526020600020015492508391505b6123808383610df1565b9350600263ffffffff86160494506001016122e8565b5060035460649063ffffffff908116600101166003805463ffffffff19169290910663ffffffff9081169290921790819055849160049116606481106123d857fe5b0155606b5463ffffffff600160201b820481169181164303161061246a57606a8054606881905590849055606b80546069805463ffffffff80841663ffffffff19928316179283905592164383161790925560408051929091168252602082019290925281517f2d3068354e972bf0c8d6fe282f80eb1d53366239061970704dad47beba98f164929181900390910190a15b5050600354600160201b900463ffffffff1660001901949350505050565b606c5434146124c85760405162461bcd60e51b815260040180806020018281038252603881526020018061328a6038913960400191505060405180910390fd5b607b5460408051630261bf8b60e01b8152905147926001600160a01b031691630261bf8b916004808301926020929190829003018186803b15801561250c57600080fd5b505afa158015612520573d6000803e3d6000fd5b505050506040513d602081101561253657600080fd5b5051607d5460408051636968703360e11b81526001600160a01b039283166004820152602481018590526000604482018190529151929093169263d2d0e06692859260648084019391929182900301818588803b15801561259657600080fd5b505af11580156125aa573d6000803e3d6000fd5b5050607e8054600101905550505050565b34156125f85760405162461bcd60e51b815260040180806020018281038252603581526020018061353e6035913960400191505060405180910390fd5b80156126355760405162461bcd60e51b81526004018080602001828103825260348152602001806133da6034913960400191505060405180910390fd5b6000607e54116126765760405162461bcd60e51b815260040180806020018281038252602581526020018061334f6025913960400191505060405180910390fd5b607c54604080516370a0823160e01b8152306004820152905147926000926001600160a01b03909116916370a0823191602480820192602092909190829003018186803b1580156126c657600080fd5b505afa1580156126da573d6000803e3d6000fd5b505050506040513d60208110156126f057600080fd5b5051607e54909150600090612706908390612b9e565b607c546040805163db006a7560e01b81526004810184905290519293506001600160a01b039091169163db006a759160248082019260009290919082900301818387803b15801561275657600080fd5b505af115801561276a573d6000803e3d6000fd5b505050506000479050600061277f8286612be7565b6040519091506000906001600160a01b038b1690898403908381818185875af1925050503d80600081146127cf576040519150601f19603f3d011682016040523d82523d6000602084013e6127d4565b606091505b50509050806128145760405162461bcd60e51b81526004018080602001828103825260258152602001806134516025913960400191505060405180910390fd5b87156128aa576040516001600160a01b038a16908990600081818185875af1925050503d8060008114612863576040519150601f19603f3d011682016040523d82523d6000602084013e612868565b606091505b505080915050806128aa5760405162461bcd60e51b815260040180806020018281038252602381526020018061349f6023913960400191505060405180910390fd5b5050607e80546000190190555050505050505050565b8034146128fe5760405162461bcd60e51b81526004018080602001828103825260308152602001806132c26030913960400191505060405180910390fd5b607554606d5461291c916001600160a01b0316908690859003612c29565b811561293957607554612939906001600160a01b03168484612c29565b80156129d2576040516000906001600160a01b0386169083908381818185875af1925050503d806000811461298a576040519150601f19603f3d011682016040523d82523d6000602084013e61298f565b606091505b50509050806129d0576040516001600160a01b0385169083156108fc029084906000818181858888f193505050501580156129ce573d6000803e3d6000fd5b505b505b50505050565b600054610100900460ff16806129f157506129f1612c80565b806129ff575060005460ff16155b612a3a5760405162461bcd60e51b815260040180806020018281038252602e815260200180613374602e913960400191505060405180910390fd5b600054610100900460ff16158015612a65576000805460ff1961ff0019909116610100171660011790555b612a6f8a8a612c86565b60008b11612aae5760405162461bcd60e51b815260040180806020018281038252602d8152602001806134c2602d913960400191505060405180910390fd5b8560768190555084607781905550836078819055508260798190555081607a819055508c607160006101000a8154816001600160a01b0302191690836001600160a01b031602179055508b607260006101000a8154816001600160a01b0302191690836001600160a01b0316021790555087607360006101000a8154816001600160a01b0302191690836001600160a01b031602179055508a606c81905550607654606d8190555086607560006101000a8154816001600160a01b0302191690836001600160a01b031602179055508015612b8f576000805461ff00191690555b50505050505050505050505050565b6000612be083836040518060400160405280601a81526020017f536166654d6174683a206469766973696f6e206279207a65726f000000000000815250612f4a565b9392505050565b6000612be083836040518060400160405280601e81526020017f536166654d6174683a207375627472616374696f6e206f766572666c6f770000815250612fec565b604080516001600160a01b038416602482015260448082018490528251808303909101815260649091019091526020810180516001600160e01b031663a9059cbb60e01b179052612c7b908490613046565b505050565b303b1590565b600054610100900460ff1680612c9f5750612c9f612c80565b80612cad575060005460ff16155b612ce85760405162461bcd60e51b815260040180806020018281038252602e815260200180613374602e913960400191505060405180910390fd5b600054610100900460ff16158015612d13576000805460ff1961ff0019909116610100171660011790555b60008363ffffffff1611612d585760405162461bcd60e51b81526004018080602001828103825260278152602001806133286027913960400191505060405180910390fd5b60208363ffffffff1610612d9d5760405162461bcd60e51b815260040180806020018281038252602281526020018061340e6022913960400191505060405180910390fd5b6000805463ffffffff808616620100000265ffffffff000019909216919091178255606b8054918516600160201b0267ffffffff00000000199092169190911790556002805460018181019092557f2fe54c60d3acabf3343a35b6eba15db4821b340f76e741e2249685ed4899af6c7f405787fa12a823e0f2b7631cc41b3ba8828b3321ca811111fa75cd3aa3bb5ace90910181905581548083018355928290527fb10e2d527612073b26eecdfd717e6a320cf44b4afac2b0732d9fcbe2b7fa0cf69092018290555b60005463ffffffff6201000090910481169082161015612ef557612e8a8283610df1565b6002805460018181019092557f405787fa12a823e0f2b7631cc41b3ba8828b3321ca811111fa75cd3aa3bb5ace018290558054808201825560008290527fb10e2d527612073b26eecdfd717e6a320cf44b4afac2b0732d9fcbe2b7fa0cf60182905590925001612e66565b50612f008182610df1565b600481905560688190556069805463ffffffff431663ffffffff199182168117909255606a92909255606b8054909216179055508015612c7b576000805461ff0019169055505050565b60008183612fd65760405162461bcd60e51b81526004018080602001828103825283818151815260200191508051906020019080838360005b83811015612f9b578181015183820152602001612f83565b50505050905090810190601f168015612fc85780820380516001836020036101000a031916815260200191505b509250505060405180910390fd5b506000838581612fe257fe5b0495945050505050565b6000818484111561303e5760405162461bcd60e51b8152602060048201818152835160248401528351909283926044909101919085019080838360008315612f9b578181015183820152602001612f83565b505050900390565b613058826001600160a01b03166131fe565b6130a9576040805162461bcd60e51b815260206004820152601f60248201527f5361666545524332303a2063616c6c20746f206e6f6e2d636f6e747261637400604482015290519081900360640190fd5b60006060836001600160a01b0316836040518082805190602001908083835b602083106130e75780518252601f1990920191602091820191016130c8565b6001836020036101000a0380198251168184511680821785525050505050509050019150506000604051808303816000865af19150503d8060008114613149576040519150601f19603f3d011682016040523d82523d6000602084013e61314e565b606091505b5091509150816131a5576040805162461bcd60e51b815260206004820181905260248201527f5361666545524332303a206c6f772d6c6576656c2063616c6c206661696c6564604482015290519081900360640190fd5b8051156129d2578080602001905160208110156131c157600080fd5b50516129d25760405162461bcd60e51b815260040180806020018281038252602a8152602001806134ef602a913960400191505060405180910390fd5b6000813f7fc5d2460186f7233c927e7db2dcc703c0e500b653ca82273b7bfad8045d85a47081811480159061323257508115155b94935050505056fe5265656e7472616e637947756172643a207265656e7472616e742063616c6c004d65726b6c6520747265652069732066756c6c2e204e6f206d6f7265206c656166732063616e206265206164646564506c656173652073656e6420606d697844656e6f6d696e6174696f6e602045544820616c6f6e672077697468207472616e73616374696f6e496e636f727265637420726566756e6420616d6f756e742072656365697665642062792074686520636f6e747261637454686520726577617264206e6f746520686173206265656e20616c7265616479207370656e7420666f72207769746864726177696e675f747265654c6576656c732073686f756c642062652067726561746572207468616e207a65726f4e756d626572206f66206465706f7369746f7273206d75737420626520706f736974697665496e697469616c697a61626c653a20636f6e747261637420697320616c726561647920696e697469616c697a6564546865207769746864726177206e6f746520686173206265656e20616c7265616479207370656e7420666f72207769746864726177696e67526566756e642076616c756520697320737570706f73656420746f206265207a65726f20666f722045544820696e7374616e63655f747265654c6576656c732073686f756c64206265206c657373207468616e20333254686520636f6d6d69746d656e7420686173206265656e207375626d69747465647061796d656e7420746f205f726563697069656e7420646964206e6f7420676f207468727554686520726577617264206e6f746520686173206265656e20616c72656164792072656465656d65647061796d656e7420746f205f72656c6179657220646964206e6f7420676f20746872754465706f7369742064656e6f6d696e6174696f6e2073686f756c642062652067726561746572207468616e20305361666545524332303a204552433230206f7065726174696f6e20646964206e6f7420737563636565644f6e6c79206f70657261746f722063616e2063616c6c20746869732066756e6374696f6e2e4d6573736167652076616c756520697320737570706f73656420746f206265207a65726f20666f722045544820696e7374616e6365a265627a7a72315820e8f26532f9130ef0496a66f5bbd03f6450e8ca85eea2c0f68adb0d2f7c350db464736f6c63430005110032",
  "source": "pragma solidity ^0.5.17;\n\nimport \"./BlenderCore.sol\";\nimport \"@openzeppelin/contracts/math/SafeMath.sol\";\n\ninterface AToken {\n    function balanceOf(address _user) external view returns (uint256);\n\n    function redeem(uint256 _amount) external;\n}\n\ninterface ALendingPool {\n    function deposit(\n        address _reserve,\n        uint256 _amount,\n        uint16 _referralCode\n    ) external payable;\n}\n\ninterface ALendingPoolAddressesProvider {\n    function getLendingPool() external view returns (address);\n}\n\ncontract AETHBlender is Initializable, BlenderCore {\n    ALendingPoolAddressesProvider public lendingPoolAddressesProvider;\n    AToken public aToken;\n    address public reserve;\n    uint256 public depositors;\n\n    // DO NOT implement a constructor because this is an upgradable logic.\n    // Use the initialize function as a constructor.\n    constructor() public {}\n\n    function initialize(\n        WVerifier _withdrawVerifier,\n        RVerifier _rewardVerifier,\n        uint256 _d_denomination,\n        uint32 _merkleTreeHeight,\n        uint32 _blockCount,\n        address _operator,\n        address _blnd,\n        address _aToken,\n        address _reserve,\n        uint256 _firstStageReward,\n        uint256 _secondStageReward,\n        uint256 _thirdStageReward,\n        uint256 _firstStageDepositors,\n        uint256 _secondStageDepositors\n    ) public {\n        // call the initialize function of the parent contract (the constructor of the parent contract)\n        BlenderCore._initialize(\n            _withdrawVerifier,\n            _rewardVerifier,\n            _d_denomination,\n            _merkleTreeHeight,\n            _blockCount,\n            _operator,\n            _blnd,\n            _firstStageReward,\n            _secondStageReward,\n            _thirdStageReward,\n            _firstStageDepositors,\n            _secondStageDepositors\n        );\n        // constructor logic\n        lendingPoolAddressesProvider = ALendingPoolAddressesProvider(\n            0x24a42fD28C976A61Df5D00D0599C34c4f90748c8\n        );\n        aToken = AToken(_aToken);\n        reserve = _reserve;\n    }\n\n    function _processDeposit() internal {\n        require(\n            msg.value == d_denomination,\n            \"Please send `mixDenomination` ETH along with transaction\"\n        );\n        // Deposit all the balance\n        uint256 balance = address(this).balance;\n        ALendingPool(lendingPoolAddressesProvider.getLendingPool())\n            .deposit\n            .value(balance)(reserve, balance, 0);\n        depositors++;\n    }\n\n    function _processWithdraw(\n        address payable _recipient,\n        address payable _relayer,\n        uint256 _fee,\n        uint256 _refund\n    ) internal {\n        require(\n            msg.value == 0,\n            \"Message value is supposed to be zero for ETH instance\"\n        );\n        require(\n            _refund == 0,\n            \"Refund value is supposed to be zero for ETH instance\"\n        );\n        require(depositors > 0, \"Number of depositors must be positive\");\n\n        uint256 beforeBalance = address(this).balance;\n        uint256 aBalance = aToken.balanceOf(address(this));\n        uint256 redeemAmount = SafeMath.div(aBalance, depositors);\n        aToken.redeem(redeemAmount);\n        uint256 afterBalance = address(this).balance;\n        uint256 redeemedAmount = SafeMath.sub(afterBalance, beforeBalance);\n\n        (bool success, ) = _recipient.call.value(redeemedAmount - _fee)(\"\");\n        require(success, \"payment to _recipient did not go thru\");\n        if (_fee > 0) {\n            (success, ) = _relayer.call.value(_fee)(\"\");\n            require(success, \"payment to _relayer did not go thru\");\n        }\n        depositors--;\n    }\n\n    function() external payable {}\n}\n",
  "compiler": {
    "name": "solc",
    "version": "0.5.17+commit.d19bba13.Emscripten.clang"
  },
  "schemaVersion": "3.2.4",
  "devdoc": {
    "methods": {
      "addRelayer(address)": {
        "details": "operator can add a relayer to the whitelist."
      },
      "changeOperator(address)": {
        "details": "operator can change his address "
      },
      "deposit(bytes32)": {
        "details": "Deposit funds into the contract. The caller must send (for ETH) or approve (for ERC20) value equal to or `denomination` of this instance.",
        "params": {
          "_commitment": "the note commitment, which is PedersenHash(nullifier + secret)"
        }
      },
      "disableRelayerWhitelisting()": {
        "details": "operator can disable relayer whitelisting"
      },
      "enableRelayerWhitelisting()": {
        "details": "operator can enable relayer whitelisting"
      },
      "getLastRoot()": {
        "details": "Returns the last root"
      },
      "isKnownRoot(bytes32)": {
        "details": "Whether the root is present in the root history"
      },
      "isRedeemArray(bytes32[])": {
        "details": "whether an array of notes is already spent "
      },
      "isSpent(bytes32)": {
        "details": "whether a note is already spent "
      },
      "isSpentArray(bytes32[])": {
        "details": "whether an array of notes is already spent "
      },
      "removeRelayer(address)": {
        "details": "operator can remove a relayer from the whitelist."
      },
      "setBlockCount(uint32)": {
        "details": "operator can change the number of blocks between the current and next reward roots"
      },
      "updateWithdrawVerifier(address)": {
        "details": "allow operator to update SNARK verification keys. This is needed to update keys after the final trusted setup ceremony is held. After that operator rights are supposed to be transferred to zero address"
      },
      "withdraw(bytes,bytes32,bytes32,bytes32,address,address,uint256,uint256)": {
        "details": "Withdraw a deposit from the contract. `proof` is a zkSNARK proof data, and input is an array of circuit public inputs `input` array consists of: - merkle root of all deposits in the contract - hash of unique deposit nullifier to prevent double spends - the recipient of funds - optional fee that goes to the transaction sender (usually a relay)"
      }
    }
  },
  "userdoc": {
    "methods": {}
  }
}