{
  "contractName": "ERC20Blender",
  "abi": [
    {
      "inputs": [],
      "payable": false,
      "stateMutability": "nonpayable",
      "type": "constructor"
    },
    {
      "anonymous": false,
      "inputs": [
        {
          "indexed": false,
          "internalType": "uint32",
          "name": "blockCount",
          "type": "uint32"
        }
      ],
      "name": "BlockCountUpdate",
      "type": "event"
    },
    {
      "anonymous": false,
      "inputs": [
        {
          "indexed": true,
          "internalType": "bytes32",
          "name": "commitment",
          "type": "bytes32"
        },
        {
          "indexed": false,
          "internalType": "uint32",
          "name": "leafIndex",
          "type": "uint32"
        },
        {
          "indexed": false,
          "internalType": "uint256",
          "name": "timestamp",
          "type": "uint256"
        }
      ],
      "name": "Deposit",
      "type": "event"
    },
    {
      "anonymous": false,
      "inputs": [
        {
          "indexed": false,
          "internalType": "address",
          "name": "relayer",
          "type": "address"
        },
        {
          "indexed": false,
          "internalType": "bool",
          "name": "permitted",
          "type": "bool"
        }
      ],
      "name": "RelayerUpdate",
      "type": "event"
    },
    {
      "anonymous": false,
      "inputs": [
        {
          "indexed": false,
          "internalType": "address",
          "name": "to",
          "type": "address"
        },
        {
          "indexed": false,
          "internalType": "bytes32",
          "name": "rewardNullifierHash",
          "type": "bytes32"
        },
        {
          "indexed": true,
          "internalType": "address",
          "name": "relayer",
          "type": "address"
        },
        {
          "indexed": false,
          "internalType": "uint256",
          "name": "fee",
          "type": "uint256"
        }
      ],
      "name": "Reward",
      "type": "event"
    },
    {
      "anonymous": false,
      "inputs": [
        {
          "indexed": false,
          "internalType": "uint32",
          "name": "updateAtBlock",
          "type": "uint32"
        },
        {
          "indexed": false,
          "internalType": "bytes32",
          "name": "newRewardRoot",
          "type": "bytes32"
        }
      ],
      "name": "RewardUpdate",
      "type": "event"
    },
    {
      "anonymous": false,
      "inputs": [
        {
          "indexed": false,
          "internalType": "address",
          "name": "to",
          "type": "address"
        },
        {
          "indexed": false,
          "internalType": "bytes32",
          "name": "withdrawNullifierHash",
          "type": "bytes32"
        },
        {
          "indexed": false,
          "internalType": "bytes32",
          "name": "rewardNullifierHash",
          "type": "bytes32"
        },
        {
          "indexed": true,
          "internalType": "address",
          "name": "relayer",
          "type": "address"
        },
        {
          "indexed": false,
          "internalType": "uint256",
          "name": "fee",
          "type": "uint256"
        }
      ],
      "name": "Withdrawal",
      "type": "event"
    },
    {
      "anonymous": false,
      "inputs": [
        {
          "indexed": false,
          "internalType": "uint256",
          "name": "r_denomination",
          "type": "uint256"
        },
        {
          "indexed": false,
          "internalType": "uint32",
          "name": "leafIndex",
          "type": "uint32"
        }
      ],
      "name": "rewardUpdate",
      "type": "event"
    },
    {
      "constant": true,
      "inputs": [],
      "name": "FIELD_SIZE",
      "outputs": [
        {
          "internalType": "uint256",
          "name": "",
          "type": "uint256"
        }
      ],
      "payable": false,
      "stateMutability": "view",
      "type": "function"
    },
    {
      "constant": true,
      "inputs": [],
      "name": "ROOT_HISTORY_SIZE",
      "outputs": [
        {
          "internalType": "uint32",
          "name": "",
          "type": "uint32"
        }
      ],
      "payable": false,
      "stateMutability": "view",
      "type": "function"
    },
    {
      "constant": true,
      "inputs": [],
      "name": "ZERO_VALUE",
      "outputs": [
        {
          "internalType": "uint256",
          "name": "",
          "type": "uint256"
        }
      ],
      "payable": false,
      "stateMutability": "view",
      "type": "function"
    },
    {
      "constant": false,
      "inputs": [
        {
          "internalType": "address",
          "name": "_relayer",
          "type": "address"
        }
      ],
      "name": "addRelayer",
      "outputs": [],
      "payable": false,
      "stateMutability": "nonpayable",
      "type": "function"
    },
    {
      "constant": true,
      "inputs": [],
      "name": "blnd",
      "outputs": [
        {
          "internalType": "address",
          "name": "",
          "type": "address"
        }
      ],
      "payable": false,
      "stateMutability": "view",
      "type": "function"
    },
    {
      "constant": true,
      "inputs": [],
      "name": "blockCount",
      "outputs": [
        {
          "internalType": "uint32",
          "name": "",
          "type": "uint32"
        }
      ],
      "payable": false,
      "stateMutability": "view",
      "type": "function"
    },
    {
      "constant": false,
      "inputs": [
        {
          "internalType": "address",
          "name": "_newOperator",
          "type": "address"
        }
      ],
      "name": "changeOperator",
      "outputs": [],
      "payable": false,
      "stateMutability": "nonpayable",
      "type": "function"
    },
    {
      "constant": true,
      "inputs": [
        {
          "internalType": "bytes32",
          "name": "",
          "type": "bytes32"
        }
      ],
      "name": "commitments",
      "outputs": [
        {
          "internalType": "bool",
          "name": "",
          "type": "bool"
        }
      ],
      "payable": false,
      "stateMutability": "view",
      "type": "function"
    },
    {
      "constant": true,
      "inputs": [],
      "name": "currentRootIndex",
      "outputs": [
        {
          "internalType": "uint32",
          "name": "",
          "type": "uint32"
        }
      ],
      "payable": false,
      "stateMutability": "view",
      "type": "function"
    },
    {
      "constant": true,
      "inputs": [],
      "name": "d_denomination",
      "outputs": [
        {
          "internalType": "uint256",
          "name": "",
          "type": "uint256"
        }
      ],
      "payable": false,
      "stateMutability": "view",
      "type": "function"
    },
    {
      "constant": false,
      "inputs": [
        {
          "internalType": "bytes32",
          "name": "_commitment",
          "type": "bytes32"
        }
      ],
      "name": "deposit",
      "outputs": [],
      "payable": true,
      "stateMutability": "payable",
      "type": "function"
    },
    {
      "constant": false,
      "inputs": [],
      "name": "disableRelayerWhitelisting",
      "outputs": [],
      "payable": false,
      "stateMutability": "nonpayable",
      "type": "function"
    },
    {
      "constant": false,
      "inputs": [],
      "name": "enableRelayerWhitelisting",
      "outputs": [],
      "payable": false,
      "stateMutability": "nonpayable",
      "type": "function"
    },
    {
      "constant": true,
      "inputs": [
        {
          "internalType": "uint256",
          "name": "",
          "type": "uint256"
        }
      ],
      "name": "filledSubtrees",
      "outputs": [
        {
          "internalType": "bytes32",
          "name": "",
          "type": "bytes32"
        }
      ],
      "payable": false,
      "stateMutability": "view",
      "type": "function"
    },
    {
      "constant": true,
      "inputs": [],
      "name": "firstStageDepositors",
      "outputs": [
        {
          "internalType": "uint256",
          "name": "",
          "type": "uint256"
        }
      ],
      "payable": false,
      "stateMutability": "view",
      "type": "function"
    },
    {
      "constant": true,
      "inputs": [],
      "name": "firstStageReward",
      "outputs": [
        {
          "internalType": "uint256",
          "name": "",
          "type": "uint256"
        }
      ],
      "payable": false,
      "stateMutability": "view",
      "type": "function"
    },
    {
      "constant": true,
      "inputs": [],
      "name": "getLastRoot",
      "outputs": [
        {
          "internalType": "bytes32",
          "name": "",
          "type": "bytes32"
        }
      ],
      "payable": false,
      "stateMutability": "view",
      "type": "function"
    },
    {
      "constant": true,
      "inputs": [
        {
          "internalType": "bytes32",
          "name": "_left",
          "type": "bytes32"
        },
        {
          "internalType": "bytes32",
          "name": "_right",
          "type": "bytes32"
        }
      ],
      "name": "hashLeftRight",
      "outputs": [
        {
          "internalType": "bytes32",
          "name": "",
          "type": "bytes32"
        }
      ],
      "payable": false,
      "stateMutability": "pure",
      "type": "function"
    },
    {
      "constant": true,
      "inputs": [
        {
          "internalType": "bytes32",
          "name": "_root",
          "type": "bytes32"
        }
      ],
      "name": "isKnownRoot",
      "outputs": [
        {
          "internalType": "bool",
          "name": "",
          "type": "bool"
        }
      ],
      "payable": false,
      "stateMutability": "view",
      "type": "function"
    },
    {
      "constant": true,
      "inputs": [
        {
          "internalType": "bytes32",
          "name": "_rwdHash",
          "type": "bytes32"
        }
      ],
      "name": "isRedeem",
      "outputs": [
        {
          "internalType": "bool",
          "name": "",
          "type": "bool"
        }
      ],
      "payable": false,
      "stateMutability": "view",
      "type": "function"
    },
    {
      "constant": true,
      "inputs": [
        {
          "internalType": "bytes32[]",
          "name": "_nullifierHashes",
          "type": "bytes32[]"
        }
      ],
      "name": "isRedeemArray",
      "outputs": [
        {
          "internalType": "bool[]",
          "name": "redeem",
          "type": "bool[]"
        }
      ],
      "payable": false,
      "stateMutability": "view",
      "type": "function"
    },
    {
      "constant": true,
      "inputs": [
        {
          "internalType": "bytes32",
          "name": "_rroot",
          "type": "bytes32"
        }
      ],
      "name": "isRewardRoot",
      "outputs": [
        {
          "internalType": "bool",
          "name": "",
          "type": "bool"
        }
      ],
      "payable": false,
      "stateMutability": "view",
      "type": "function"
    },
    {
      "constant": true,
      "inputs": [
        {
          "internalType": "bytes32",
          "name": "_wdrHash",
          "type": "bytes32"
        }
      ],
      "name": "isSpent",
      "outputs": [
        {
          "internalType": "bool",
          "name": "",
          "type": "bool"
        }
      ],
      "payable": false,
      "stateMutability": "view",
      "type": "function"
    },
    {
      "constant": true,
      "inputs": [
        {
          "internalType": "bytes32[]",
          "name": "_nullifierHashes",
          "type": "bytes32[]"
        }
      ],
      "name": "isSpentArray",
      "outputs": [
        {
          "internalType": "bool[]",
          "name": "spent",
          "type": "bool[]"
        }
      ],
      "payable": false,
      "stateMutability": "view",
      "type": "function"
    },
    {
      "constant": true,
      "inputs": [],
      "name": "levels",
      "outputs": [
        {
          "internalType": "uint32",
          "name": "",
          "type": "uint32"
        }
      ],
      "payable": false,
      "stateMutability": "view",
      "type": "function"
    },
    {
      "constant": true,
      "inputs": [],
      "name": "nextIndex",
      "outputs": [
        {
          "internalType": "uint32",
          "name": "",
          "type": "uint32"
        }
      ],
      "payable": false,
      "stateMutability": "view",
      "type": "function"
    },
    {
      "constant": true,
      "inputs": [
        {
          "internalType": "bytes32",
          "name": "",
          "type": "bytes32"
        }
      ],
      "name": "nullifierHashes",
      "outputs": [
        {
          "internalType": "bool",
          "name": "",
          "type": "bool"
        }
      ],
      "payable": false,
      "stateMutability": "view",
      "type": "function"
    },
    {
      "constant": true,
      "inputs": [],
      "name": "operator",
      "outputs": [
        {
          "internalType": "address",
          "name": "",
          "type": "address"
        }
      ],
      "payable": false,
      "stateMutability": "view",
      "type": "function"
    },
    {
      "constant": true,
      "inputs": [],
      "name": "r_denomination",
      "outputs": [
        {
          "internalType": "uint256",
          "name": "",
          "type": "uint256"
        }
      ],
      "payable": false,
      "stateMutability": "view",
      "type": "function"
    },
    {
      "constant": true,
      "inputs": [
        {
          "internalType": "address",
          "name": "",
          "type": "address"
        }
      ],
      "name": "relayerWhitelist",
      "outputs": [
        {
          "internalType": "bool",
          "name": "",
          "type": "bool"
        }
      ],
      "payable": false,
      "stateMutability": "view",
      "type": "function"
    },
    {
      "constant": true,
      "inputs": [],
      "name": "relayerWhitelistingEnabled",
      "outputs": [
        {
          "internalType": "bool",
          "name": "",
          "type": "bool"
        }
      ],
      "payable": false,
      "stateMutability": "view",
      "type": "function"
    },
    {
      "constant": false,
      "inputs": [
        {
          "internalType": "address",
          "name": "_relayer",
          "type": "address"
        }
      ],
      "name": "removeRelayer",
      "outputs": [],
      "payable": false,
      "stateMutability": "nonpayable",
      "type": "function"
    },
    {
      "constant": false,
      "inputs": [
        {
          "internalType": "bytes",
          "name": "_rproof",
          "type": "bytes"
        },
        {
          "internalType": "bytes32",
          "name": "_rroot",
          "type": "bytes32"
        },
        {
          "internalType": "bytes32",
          "name": "_rwdHash",
          "type": "bytes32"
        },
        {
          "internalType": "address payable",
          "name": "_recipient",
          "type": "address"
        },
        {
          "internalType": "address payable",
          "name": "_relayer",
          "type": "address"
        },
        {
          "internalType": "uint256",
          "name": "_fee",
          "type": "uint256"
        },
        {
          "internalType": "uint256",
          "name": "_refund",
          "type": "uint256"
        }
      ],
      "name": "reward",
      "outputs": [],
      "payable": true,
      "stateMutability": "payable",
      "type": "function"
    },
    {
      "constant": true,
      "inputs": [],
      "name": "rewardCounter",
      "outputs": [
        {
          "internalType": "uint32",
          "name": "",
          "type": "uint32"
        }
      ],
      "payable": false,
      "stateMutability": "view",
      "type": "function"
    },
    {
      "constant": true,
      "inputs": [],
      "name": "rewardCurrentBlocknum",
      "outputs": [
        {
          "internalType": "uint32",
          "name": "",
          "type": "uint32"
        }
      ],
      "payable": false,
      "stateMutability": "view",
      "type": "function"
    },
    {
      "constant": true,
      "inputs": [],
      "name": "rewardCurrentRoot",
      "outputs": [
        {
          "internalType": "bytes32",
          "name": "",
          "type": "bytes32"
        }
      ],
      "payable": false,
      "stateMutability": "view",
      "type": "function"
    },
    {
      "constant": true,
      "inputs": [],
      "name": "rewardNextBlocknum",
      "outputs": [
        {
          "internalType": "uint32",
          "name": "",
          "type": "uint32"
        }
      ],
      "payable": false,
      "stateMutability": "view",
      "type": "function"
    },
    {
      "constant": true,
      "inputs": [],
      "name": "rewardNextRoot",
      "outputs": [
        {
          "internalType": "bytes32",
          "name": "",
          "type": "bytes32"
        }
      ],
      "payable": false,
      "stateMutability": "view",
      "type": "function"
    },
    {
      "constant": true,
      "inputs": [
        {
          "internalType": "bytes32",
          "name": "",
          "type": "bytes32"
        }
      ],
      "name": "rewardNullifierHashes",
      "outputs": [
        {
          "internalType": "bool",
          "name": "",
          "type": "bool"
        }
      ],
      "payable": false,
      "stateMutability": "view",
      "type": "function"
    },
    {
      "constant": true,
      "inputs": [],
      "name": "rewardVerifier",
      "outputs": [
        {
          "internalType": "contract RVerifier",
          "name": "",
          "type": "address"
        }
      ],
      "payable": false,
      "stateMutability": "view",
      "type": "function"
    },
    {
      "constant": true,
      "inputs": [
        {
          "internalType": "uint256",
          "name": "",
          "type": "uint256"
        }
      ],
      "name": "roots",
      "outputs": [
        {
          "internalType": "bytes32",
          "name": "",
          "type": "bytes32"
        }
      ],
      "payable": false,
      "stateMutability": "view",
      "type": "function"
    },
    {
      "constant": true,
      "inputs": [],
      "name": "secondStageDepositors",
      "outputs": [
        {
          "internalType": "uint256",
          "name": "",
          "type": "uint256"
        }
      ],
      "payable": false,
      "stateMutability": "view",
      "type": "function"
    },
    {
      "constant": true,
      "inputs": [],
      "name": "secondStageReward",
      "outputs": [
        {
          "internalType": "uint256",
          "name": "",
          "type": "uint256"
        }
      ],
      "payable": false,
      "stateMutability": "view",
      "type": "function"
    },
    {
      "constant": false,
      "inputs": [
        {
          "internalType": "uint32",
          "name": "_blockCount",
          "type": "uint32"
        }
      ],
      "name": "setBlockCount",
      "outputs": [],
      "payable": false,
      "stateMutability": "nonpayable",
      "type": "function"
    },
    {
      "constant": true,
      "inputs": [],
      "name": "thirdStageReward",
      "outputs": [
        {
          "internalType": "uint256",
          "name": "",
          "type": "uint256"
        }
      ],
      "payable": false,
      "stateMutability": "view",
      "type": "function"
    },
    {
      "constant": true,
      "inputs": [],
      "name": "token",
      "outputs": [
        {
          "internalType": "address",
          "name": "",
          "type": "address"
        }
      ],
      "payable": false,
      "stateMutability": "view",
      "type": "function"
    },
    {
      "constant": false,
      "inputs": [
        {
          "internalType": "address",
          "name": "_newVerifier",
          "type": "address"
        }
      ],
      "name": "updateRewardVerifier",
      "outputs": [],
      "payable": false,
      "stateMutability": "nonpayable",
      "type": "function"
    },
    {
      "constant": false,
      "inputs": [
        {
          "internalType": "address",
          "name": "_newVerifier",
          "type": "address"
        }
      ],
      "name": "updateWithdrawVerifier",
      "outputs": [],
      "payable": false,
      "stateMutability": "nonpayable",
      "type": "function"
    },
    {
      "constant": false,
      "inputs": [
        {
          "internalType": "bytes",
          "name": "_proof",
          "type": "bytes"
        },
        {
          "internalType": "bytes32",
          "name": "_root",
          "type": "bytes32"
        },
        {
          "internalType": "bytes32",
          "name": "_wdrHash",
          "type": "bytes32"
        },
        {
          "internalType": "bytes32",
          "name": "_rwdHash",
          "type": "bytes32"
        },
        {
          "internalType": "address payable",
          "name": "_recipient",
          "type": "address"
        },
        {
          "internalType": "address payable",
          "name": "_relayer",
          "type": "address"
        },
        {
          "internalType": "uint256",
          "name": "_fee",
          "type": "uint256"
        },
        {
          "internalType": "uint256",
          "name": "_refund",
          "type": "uint256"
        }
      ],
      "name": "withdraw",
      "outputs": [],
      "payable": true,
      "stateMutability": "payable",
      "type": "function"
    },
    {
      "constant": true,
      "inputs": [],
      "name": "withdrawVerifier",
      "outputs": [
        {
          "internalType": "contract WVerifier",
          "name": "",
          "type": "address"
        }
      ],
      "payable": false,
      "stateMutability": "view",
      "type": "function"
    },
    {
      "constant": true,
      "inputs": [
        {
          "internalType": "uint256",
          "name": "",
          "type": "uint256"
        }
      ],
      "name": "zeros",
      "outputs": [
        {
          "internalType": "bytes32",
          "name": "",
          "type": "bytes32"
        }
      ],
      "payable": false,
      "stateMutability": "view",
      "type": "function"
    },
    {
      "constant": false,
      "inputs": [
        {
          "internalType": "contract WVerifier",
          "name": "_withdrawVerifier",
          "type": "address"
        },
        {
          "internalType": "contract RVerifier",
          "name": "_rewardVerifier",
          "type": "address"
        },
        {
          "internalType": "uint256",
          "name": "_d_denomination",
          "type": "uint256"
        },
        {
          "internalType": "uint32",
          "name": "_merkleTreeHeight",
          "type": "uint32"
        },
        {
          "internalType": "uint32",
          "name": "_blockCount",
          "type": "uint32"
        },
        {
          "internalType": "address",
          "name": "_operator",
          "type": "address"
        },
        {
          "internalType": "address",
          "name": "_blnd",
          "type": "address"
        },
        {
          "internalType": "address",
          "name": "_token",
          "type": "address"
        },
        {
          "internalType": "uint256",
          "name": "_firstStageReward",
          "type": "uint256"
        },
        {
          "internalType": "uint256",
          "name": "_secondStageReward",
          "type": "uint256"
        },
        {
          "internalType": "uint256",
          "name": "_thirdStageReward",
          "type": "uint256"
        },
        {
          "internalType": "uint256",
          "name": "_firstStageDepositors",
          "type": "uint256"
        },
        {
          "internalType": "uint256",
          "name": "_secondStageDepositors",
          "type": "uint256"
        }
      ],
      "name": "initialize",
      "outputs": [],
      "payable": false,
      "stateMutability": "nonpayable",
      "type": "function"
    }
  ],
  "bytecode": "0x608060405234801561001057600080fd5b50612fe8806100206000396000f3fe6080604052600436106102ff5760003560e01c806385534e9d11610190578063c526cb5f116100dc578063e829558811610095578063f9406cf31161006f578063f9406cf314610bc0578063fc0c546a14610bd5578063fc7e9c6f14610bea578063fe7dab5214610bff576102ff565b8063e829558814610b57578063ec73295914610b81578063f178e47c14610b96576102ff565b8063c526cb5f14610a91578063cd87a3b414610abb578063d866151714610ad0578063dd39f00d14610ae5578063e16f7cd414610b18578063e5285dcc14610b2d576102ff565b8063b214faa511610149578063ba70f75711610123578063ba70f757146109a4578063bb0e824b146109b9578063c2b40ae4146109ce578063c3f436b7146109f8576102ff565b8063b214faa5146108d2578063b7433691146108ef578063b9fae5f11461098f576102ff565b806385534e9d14610750578063864eb1641461076557806390eeb02b1461077a5780639fa12d0b1461078f578063aa2762c41461080a578063ad5dd7ed1461089f576102ff565b80634c6423e11161024f5780636f2f36d7116102085780637d67423f116101e25780637d67423f146106d25780638036bcc9146106e757806383922d2914610711578063839df94514610726576102ff565b80636f2f36d71461067557806375c231281461068a57806378c66697146106bd576102ff565b80634c6423e1146105c45780634ecf518b146105d9578063570ca735146105ee578063585334e31461060357806360f0a5ac146106185780636d9833e31461064b576102ff565b80632e2d40ce116102bc5780633cac0bb8116102965780633cac0bb8146105375780633ce0de9b14610567578063414a37ba1461057c57806343d0152014610591576102ff565b80632e2d40ce146104cb57806338bf282e146104e05780633a1fa64314610522576102ff565b806306394c9b1461030457806307225b4d1461033957806309087f0c146103675780631610f7621461043257806317cc915c1461047057806321fc045a1461049a575b600080fd5b34801561031057600080fd5b506103376004803603602081101561032757600080fd5b50356001600160a01b0316610c14565b005b34801561034557600080fd5b5061034e610c7f565b6040805163ffffffff9092168252519081900360200190f35b34801561037357600080fd5b506103e26004803603602081101561038a57600080fd5b810190602081018135600160201b8111156103a457600080fd5b8201836020820111156103b657600080fd5b803590602001918460208302840111600160201b831117156103d757600080fd5b509092509050610c92565b60408051602080825283518183015283519192839290830191858101910280838360005b8381101561041e578181015183820152602001610406565b505050509050019250505060405180910390f35b34801561043e57600080fd5b5061045c6004803603602081101561045557600080fd5b5035610d1a565b604080519115158252519081900360200190f35b34801561047c57600080fd5b5061045c6004803603602081101561049357600080fd5b5035610d2f565b3480156104a657600080fd5b506104af610d44565b604080516001600160a01b039092168252519081900360200190f35b3480156104d757600080fd5b5061034e610d53565b3480156104ec57600080fd5b506105106004803603604081101561050357600080fd5b5080359060200135610d5f565b60408051918252519081900360200190f35b34801561052e57600080fd5b50610510610e83565b34801561054357600080fd5b506103376004803603602081101561055a57600080fd5b503563ffffffff16610e89565b34801561057357600080fd5b5061034e610f4b565b34801561058857600080fd5b50610510610f57565b34801561059d57600080fd5b50610337600480360360208110156105b457600080fd5b50356001600160a01b0316610f7b565b3480156105d057600080fd5b5061034e610fe6565b3480156105e557600080fd5b5061034e610ff9565b3480156105fa57600080fd5b506104af61100b565b34801561060f57600080fd5b5061033761101a565b34801561062457600080fd5b506103376004803603602081101561063b57600080fd5b50356001600160a01b03166110db565b34801561065757600080fd5b5061045c6004803603602081101561066e57600080fd5b50356111ef565b34801561068157600080fd5b50610510611262565b34801561069657600080fd5b50610337600480360360208110156106ad57600080fd5b50356001600160a01b0316611268565b3480156106c957600080fd5b506105106112d3565b3480156106de57600080fd5b5061045c6112d9565b3480156106f357600080fd5b5061045c6004803603602081101561070a57600080fd5b50356112e9565b34801561071d57600080fd5b506105106112fe565b34801561073257600080fd5b5061045c6004803603602081101561074957600080fd5b5035611304565b34801561075c57600080fd5b50610337611319565b34801561077157600080fd5b506104af6113d4565b34801561078657600080fd5b5061034e6113e3565b34801561079b57600080fd5b506103e2600480360360208110156107b257600080fd5b810190602081018135600160201b8111156107cc57600080fd5b8201836020820111156107de57600080fd5b803590602001918460208302840111600160201b831117156107ff57600080fd5b5090925090506113ef565b34801561081657600080fd5b5061033760048036036101a081101561082e57600080fd5b506001600160a01b038135811691602081013582169160408201359163ffffffff606082013581169260808301359091169160a081013582169160c082013581169160e081013590911690610100810135906101208101359061014081013590610160810135906101800135611470565b3480156108ab57600080fd5b5061045c600480360360208110156108c257600080fd5b50356001600160a01b031661154e565b610337600480360360208110156108e857600080fd5b5035611563565b610337600480360361010081101561090657600080fd5b810190602081018135600160201b81111561092057600080fd5b82018360208201111561093257600080fd5b803590602001918460018302840111600160201b8311171561095357600080fd5b91935091508035906020810135906040810135906001600160a01b03606082013581169160808101359091169060a08101359060c0013561168f565b34801561099b57600080fd5b50610510611ac6565b3480156109b057600080fd5b50610510611acc565b3480156109c557600080fd5b50610510611aec565b3480156109da57600080fd5b50610510600480360360208110156109f157600080fd5b5035611af2565b610337600480360360e0811015610a0e57600080fd5b810190602081018135600160201b811115610a2857600080fd5b820183602082011115610a3a57600080fd5b803590602001918460018302840111600160201b83111715610a5b57600080fd5b91935091508035906020810135906001600160a01b03604082013581169160608101359091169060808101359060a00135611b06565b348015610a9d57600080fd5b5061045c60048036036020811015610ab457600080fd5b5035611fb8565b348015610ac757600080fd5b5061034e611fe1565b348015610adc57600080fd5b50610510611fe6565b348015610af157600080fd5b5061033760048036036020811015610b0857600080fd5b50356001600160a01b0316611fec565b348015610b2457600080fd5b50610510612108565b348015610b3957600080fd5b5061045c60048036036020811015610b5057600080fd5b503561210e565b348015610b6357600080fd5b5061051060048036036020811015610b7a57600080fd5b5035612123565b348015610b8d57600080fd5b50610510612141565b348015610ba257600080fd5b5061051060048036036020811015610bb957600080fd5b5035612165565b348015610bcc57600080fd5b506104af612172565b348015610be157600080fd5b506104af612181565b348015610bf657600080fd5b5061034e612190565b348015610c0b57600080fd5b506105106121a3565b6073546001600160a01b03163314610c5d5760405162461bcd60e51b8152600401808060200182810382526025815260200180612f8f6025913960400191505060405180910390fd5b607380546001600160a01b0319166001600160a01b0392909216919091179055565b606b54600160201b900463ffffffff1681565b604080518281526020808402820101909152606090828015610cbe578160200160208202803883390190505b50905060005b82811015610d1357610ce7848483818110610cdb57fe5b905060200201356112e9565b15610d0b576001828281518110610cfa57fe5b911515602092830291909101909101525b600101610cc4565b5092915050565b606f6020526000908152604090205460ff1681565b606e6020526000908152604090205460ff1681565b6075546001600160a01b031681565b60695463ffffffff1681565b60408051600280825260608083018452600093909291906020830190803883390190505090508360001c81600081518110610d9657fe5b6020026020010181815250508260001c81600181518110610db357fe5b602002602001018181525050600073__Hasher________________________________63c4420fb4836040518263ffffffff1660e01b81526004018080602001828103825283818151815260200191508051906020019060200280838360005b83811015610e2b578181015183820152602001610e13565b505050509050019250505060206040518083038186803b158015610e4e57600080fd5b505af4158015610e62573d6000803e3d6000fd5b505050506040513d6020811015610e7857600080fd5b505195945050505050565b60685481565b6073546001600160a01b03163314610ed25760405162461bcd60e51b8152600401808060200182810382526025815260200180612f8f6025913960400191505060405180910390fd5b606b54600160401b900460ff1615610f1f576040805162461bcd60e51b815260206004820152601f6024820152600080516020612d5a833981519152604482015290519081900360640190fd5b606b805460ff60401b1916600160401b179055610f3b816121a9565b50606b805460ff60401b19169055565b606b5463ffffffff1681565b7f30644e72e131a029b85045b68181585d2833e84879b9709143e1f593f000000181565b6073546001600160a01b03163314610fc45760405162461bcd60e51b8152600401808060200182810382526025815260200180612f8f6025913960400191505060405180910390fd5b607280546001600160a01b0319166001600160a01b0392909216919091179055565b607254600160a01b900463ffffffff1681565b60005462010000900463ffffffff1681565b6073546001600160a01b031681565b6073546001600160a01b031633146110635760405162461bcd60e51b8152600401808060200182810382526025815260200180612f8f6025913960400191505060405180910390fd5b606b54600160401b900460ff16156110b0576040805162461bcd60e51b815260206004820152601f6024820152600080516020612d5a833981519152604482015290519081900360640190fd5b606b80546073805460ff60a01b1916600160a01b17905560ff60401b19908116600160401b17169055565b6073546001600160a01b031633146111245760405162461bcd60e51b8152600401808060200182810382526025815260200180612f8f6025913960400191505060405180910390fd5b606b54600160401b900460ff1615611171576040805162461bcd60e51b815260206004820152601f6024820152600080516020612d5a833981519152604482015290519081900360640190fd5b606b805460ff60401b1916600160401b1790556001600160a01b0381166000818152607460209081526040808320805460ff1916905580519384529083019190915280517f6d322066f37f873d4ea983fd3c62fe4d7a1d5d6461ae6950297b949745344e059281900390910190a150606b805460ff60401b19169055565b6000816111fe5750600061125d565b60035463ffffffff165b60048163ffffffff166064811061121b57fe5b015483141561122e57600191505061125d565b63ffffffff811661123d575060645b6003546000199091019063ffffffff808316911614156112085760009150505b919050565b60795481565b6073546001600160a01b031633146112b15760405162461bcd60e51b8152600401808060200182810382526025815260200180612f8f6025913960400191505060405180910390fd5b607180546001600160a01b0319166001600160a01b0392909216919091179055565b606d5481565b607354600160a01b900460ff1681565b6000908152606f602052604090205460ff1690565b606a5481565b60706020526000908152604090205460ff1681565b6073546001600160a01b031633146113625760405162461bcd60e51b8152600401808060200182810382526025815260200180612f8f6025913960400191505060405180910390fd5b606b54600160401b900460ff16156113af576040805162461bcd60e51b815260206004820152601f6024820152600080516020612d5a833981519152604482015290519081900360640190fd5b606b80546073805460ff60a01b1916905560ff60401b19908116600160401b17169055565b6071546001600160a01b031681565b60035463ffffffff1681565b60408051828152602080840282010190915260609082801561141b578160200160208202803883390190505b50905060005b82811015610d135761144484848381811061143857fe5b9050602002013561210e565b1561146857600182828151811061145757fe5b911515602092830291909101909101525b600101611421565b600054610100900460ff1680611489575061148961220c565b80611497575060005460ff16155b6114d25760405162461bcd60e51b815260040180806020018281038252602e815260200180612e36602e913960400191505060405180910390fd5b600054610100900460ff161580156114fd576000805460ff1961ff0019909116610100171660011790555b6115118e8e8e8e8e8e8e8d8d8d8d8d612212565b607b80546001600160a01b0319166001600160a01b038916179055801561153e576000805461ff00191690555b5050505050505050505050505050565b60746020526000908152604090205460ff1681565b606b54600160401b900460ff16156115b0576040805162461bcd60e51b815260206004820152601f6024820152600080516020612d5a833981519152604482015290519081900360640190fd5b606b805460ff60401b1916600160401b17905560008181526070602052604090205460ff16156116115760405162461bcd60e51b8152600401808060200182810382526021815260200180612ebe6021913960400191505060405180910390fd5b600061161c826123d8565b6000838152607060205260409020805460ff19166001179055905061163f61260b565b6040805163ffffffff83168152426020820152815184927fa945e51eec50ab98c161376f0db4cf2aeba3ec92755fe2fcd388bdbbb80ff196928290030190a25050606b805460ff60401b19169055565b606b54600160401b900460ff16156116dc576040805162461bcd60e51b815260206004820152601f6024820152600080516020612d5a833981519152604482015290519081900360640190fd5b606b805460ff60401b1916600160401b1790556073548390600160a01b900460ff161561176c576001600160a01b03811660009081526074602052604090205460ff1661176c576040805162461bcd60e51b81526020600482015260196024820152782737ba1030903bb434ba32b634b9ba32b2103932b630bcb2b960391b604482015290519081900360640190fd5b606c548311156117c3576040805162461bcd60e51b815260206004820152601a60248201527f4665652065786365656473207472616e736665722076616c7565000000000000604482015290519081900360640190fd5b6000878152606e602052604090205460ff16156118115760405162461bcd60e51b8152600401808060200182810382526038815260200180612e646038913960400191505060405180910390fd5b6000868152606e602052604090205460ff161561185f5760405162461bcd60e51b8152600401808060200182810382526036815260200180612dd96036913960400191505060405180910390fd5b611868886111ef565b6118b9576040805162461bcd60e51b815260206004820152601c60248201527f43616e6e6f742066696e6420796f7572206d65726b6c6520726f6f7400000000604482015290519081900360640190fd5b6071546040805160e080820183528b8252602082018b90528183018a90526001600160a01b038981166060840152888116608084015260a0830188905260c08301879052925163598da1d160e01b8152929093169263598da1d1928e928e9290916004810191829160240190849080838360005b8381101561194557818101518382015260200161192d565b505050509050018281038252858582818152602001925080828437600081840152601f19601f820116905080830192505050945050505050602060405180830381600087803b15801561199757600080fd5b505af11580156119ab573d6000803e3d6000fd5b505050506040513d60208110156119c157600080fd5b5051611a0d576040805162461bcd60e51b815260206004820152601660248201527524b73b30b634b2103bb4ba34323930bb90383937b7b360511b604482015290519081900360640190fd5b6000878152606e602090815260408083208054600160ff1991821681179092558a85528285208054821683179055606f909352922080549091169091179055611a5885858585612667565b604080516001600160a01b038781168252602082018a9052818301899052606082018690529151918616917fb9632a5273eccb6a6c4f89035ced459ebb3db29e0ad807721982f4960602242d9181900360800190a25050606b805460ff60401b191690555050505050505050565b607a5481565b60035460009060049063ffffffff1660648110611ae557fe5b0154905090565b60765481565b60048160648110611aff57fe5b0154905081565b606b54600160401b900460ff1615611b53576040805162461bcd60e51b815260206004820152601f6024820152600080516020612d5a833981519152604482015290519081900360640190fd5b606b805460ff60401b1916600160401b1790556073548390600160a01b900460ff1615611be3576001600160a01b03811660009081526074602052604090205460ff16611be3576040805162461bcd60e51b81526020600482015260196024820152782737ba1030903bb434ba32b634b9ba32b2103932b630bcb2b960391b604482015290519081900360640190fd5b606d54831115611c3a576040805162461bcd60e51b815260206004820152601a60248201527f4665652065786365656473207472616e736665722076616c7565000000000000604482015290519081900360640190fd5b6000868152606f602052604090205460ff1615611c885760405162461bcd60e51b8152600401808060200182810382526029815260200180612f0f6029913960400191505060405180910390fd5b611c9187611fb8565b611ce2576040805162461bcd60e51b815260206004820152601c60248201527f43616e6e6f742066696e6420796f7572206d65726b6c6520726f6f7400000000604482015290519081900360640190fd5b6072546040805160c080820183528a8252602082018a90526001600160a01b038981168385015288811660608401526080830188905260a08301879052925163695ef6f960e01b8152929093169263695ef6f9928d928d9290916004810191829160240190849080838360005b83811015611d67578181015183820152602001611d4f565b505050509050018281038252858582818152602001925080828437600081840152601f19601f820116905080830192505050945050505050602060405180830381600087803b158015611db957600080fd5b505af1158015611dcd573d6000803e3d6000fd5b505050506040513d6020811015611de357600080fd5b5051611e2d576040805162461bcd60e51b815260206004820152601460248201527324b73b30b634b2103932bbb0b93210383937b7b360611b604482015290519081900360640190fd5b607954607254600160a01b900463ffffffff161415611e9857607754606d81905560725460408051928352600160a01b90910463ffffffff16602083015280517f9387af17fcab2a35cbf86e21b2472b4ffae5072fdb57c71e9dece59d7b16035b9281900390910190a15b607a54607254600160a01b900463ffffffff161415611f0357607854606d81905560725460408051928352600160a01b90910463ffffffff16602083015280517f9387af17fcab2a35cbf86e21b2472b4ffae5072fdb57c71e9dece59d7b16035b9281900390910190a15b6000868152606f60205260409020805460ff19166001179055611f288585858561277f565b60728054600163ffffffff600160a01b808404821692909201160263ffffffff60a01b19909116179055604080516001600160a01b038781168252602082018990528183018690529151918616917fd372214d98616c555c2fbc3e9e729a309374d6c2aa7c20e84c73c4af5e44e6189181900360600190a25050606b805460ff60401b1916905550505050505050565b600081611fc75750600061125d565b606854821415611fd95750600161125d565b506000919050565b606481565b60775481565b6073546001600160a01b031633146120355760405162461bcd60e51b8152600401808060200182810382526025815260200180612f8f6025913960400191505060405180910390fd5b606b54600160401b900460ff1615612082576040805162461bcd60e51b815260206004820152601f6024820152600080516020612d5a833981519152604482015290519081900360640190fd5b606b805460ff60401b1916600160401b1790556001600160a01b038116600081815260746020908152604091829020805460ff191660011790819055825193845260ff1615159083015280517f6d322066f37f873d4ea983fd3c62fe4d7a1d5d6461ae6950297b949745344e059281900390910190a150606b805460ff60401b19169055565b606c5481565b6000908152606e602052604090205460ff1690565b6002818154811061213057fe5b600091825260209091200154905081565b7f2fe54c60d3acabf3343a35b6eba15db4821b340f76e741e2249685ed4899af6c81565b6001818154811061213057fe5b6072546001600160a01b031681565b607b546001600160a01b031681565b600354600160201b900463ffffffff1681565b60785481565b606b805463ffffffff808416600160201b90810267ffffffff00000000199093169290921792839055604080519290930416815290517f8a953a9fd53611ff032fe393666876e8fc502dc48c18a937a45280549418117d9181900360200190a150565b303b1590565b600054610100900460ff168061222b575061222b61220c565b80612239575060005460ff16155b6122745760405162461bcd60e51b815260040180806020018281038252602e815260200180612e36602e913960400191505060405180910390fd5b600054610100900460ff1615801561229f576000805460ff1961ff0019909116610100171660011790555b6122a98a8a6127f8565b60008b116122e85760405162461bcd60e51b815260040180806020018281038252602d815260200180612f38602d913960400191505060405180910390fd5b8560768190555084607781905550836078819055508260798190555081607a819055508c607160006101000a8154816001600160a01b0302191690836001600160a01b031602179055508b607260006101000a8154816001600160a01b0302191690836001600160a01b0316021790555087607360006101000a8154816001600160a01b0302191690836001600160a01b031602179055508a606c81905550607654606d8190555086607560006101000a8154816001600160a01b0302191690836001600160a01b0316021790555080156123c9576000805461ff00191690555b50505050505050505050505050565b60035460008054909163ffffffff600160201b909104811691620100009004811660020a1681141561243b5760405162461bcd60e51b815260040180806020018281038252602f815260200180612d7a602f913960400191505060405180910390fd5b6003805463ffffffff600160201b80830482166001019091160267ffffffff000000001990911617905582600080805b60005463ffffffff620100009091048116908216101561251957600185166124d55783925060028163ffffffff16815481106124a357fe5b906000526020600020015491508360018263ffffffff16815481106124c457fe5b6000918252602090912001556124f9565b60018163ffffffff16815481106124e857fe5b906000526020600020015492508391505b6125038383610d5f565b9350600263ffffffff861604945060010161246b565b5060035460649063ffffffff908116600101166003805463ffffffff19169290910663ffffffff90811692909217908190558491600491166064811061255b57fe5b0155606b5463ffffffff600160201b82048116918116430316106125ed57606a8054606881905590849055606b80546069805463ffffffff80841663ffffffff19928316179283905592164383161790925560408051929091168252602082019290925281517f2d3068354e972bf0c8d6fe282f80eb1d53366239061970704dad47beba98f164929181900390910190a15b5050600354600160201b900463ffffffff1660001901949350505050565b34156126485760405162461bcd60e51b8152600401808060200182810382526030815260200180612edf6030913960400191505060405180910390fd5b607b54606c54612665916001600160a01b03169033903090612abd565b565b8034146126a55760405162461bcd60e51b8152600401808060200182810382526030815260200180612da96030913960400191505060405180910390fd5b607b54606c546126c3916001600160a01b0316908690859003612b17565b81156126e057607b546126e0906001600160a01b03168484612b17565b8015612779576040516000906001600160a01b0386169083908381818185875af1925050503d8060008114612731576040519150601f19603f3d011682016040523d82523d6000602084013e612736565b606091505b5050905080612777576040516001600160a01b0385169083156108fc029084906000818181858888f19350505050158015612775573d6000803e3d6000fd5b505b505b50505050565b8034146127bd5760405162461bcd60e51b8152600401808060200182810382526030815260200180612da96030913960400191505060405180910390fd5b607554606d546127db916001600160a01b0316908690859003612b17565b81156126e0576075546126e0906001600160a01b03168484612b17565b600054610100900460ff1680612811575061281161220c565b8061281f575060005460ff16155b61285a5760405162461bcd60e51b815260040180806020018281038252602e815260200180612e36602e913960400191505060405180910390fd5b600054610100900460ff16158015612885576000805460ff1961ff0019909116610100171660011790555b60008363ffffffff16116128ca5760405162461bcd60e51b8152600401808060200182810382526027815260200180612e0f6027913960400191505060405180910390fd5b60208363ffffffff161061290f5760405162461bcd60e51b8152600401808060200182810382526022815260200180612e9c6022913960400191505060405180910390fd5b6000805463ffffffff808616620100000265ffffffff000019909216919091178255606b8054918516600160201b0267ffffffff00000000199092169190911790556002805460018181019092557f2fe54c60d3acabf3343a35b6eba15db4821b340f76e741e2249685ed4899af6c7f405787fa12a823e0f2b7631cc41b3ba8828b3321ca811111fa75cd3aa3bb5ace90910181905581548083018355928290527fb10e2d527612073b26eecdfd717e6a320cf44b4afac2b0732d9fcbe2b7fa0cf69092018290555b60005463ffffffff6201000090910481169082161015612a67576129fc8283610d5f565b6002805460018181019092557f405787fa12a823e0f2b7631cc41b3ba8828b3321ca811111fa75cd3aa3bb5ace018290558054808201825560008290527fb10e2d527612073b26eecdfd717e6a320cf44b4afac2b0732d9fcbe2b7fa0cf601829055909250016129d8565b50612a728182610d5f565b600481905560688190556069805463ffffffff431663ffffffff199182168117909255606a92909255606b8054909216179055508015612ab8576000805461ff00191690555b505050565b604080516001600160a01b0385811660248301528416604482015260648082018490528251808303909101815260849091019091526020810180516001600160e01b03166323b872dd60e01b179052612779908590612b65565b604080516001600160a01b038416602482015260448082018490528251808303909101815260649091019091526020810180516001600160e01b031663a9059cbb60e01b179052612ab89084905b612b77826001600160a01b0316612d1d565b612bc8576040805162461bcd60e51b815260206004820152601f60248201527f5361666545524332303a2063616c6c20746f206e6f6e2d636f6e747261637400604482015290519081900360640190fd5b60006060836001600160a01b0316836040518082805190602001908083835b60208310612c065780518252601f199092019160209182019101612be7565b6001836020036101000a0380198251168184511680821785525050505050509050019150506000604051808303816000865af19150503d8060008114612c68576040519150601f19603f3d011682016040523d82523d6000602084013e612c6d565b606091505b509150915081612cc4576040805162461bcd60e51b815260206004820181905260248201527f5361666545524332303a206c6f772d6c6576656c2063616c6c206661696c6564604482015290519081900360640190fd5b80511561277957808060200190516020811015612ce057600080fd5b50516127795760405162461bcd60e51b815260040180806020018281038252602a815260200180612f65602a913960400191505060405180910390fd5b6000813f7fc5d2460186f7233c927e7db2dcc703c0e500b653ca82273b7bfad8045d85a470818114801590612d5157508115155b94935050505056fe5265656e7472616e637947756172643a207265656e7472616e742063616c6c004d65726b6c6520747265652069732066756c6c2e204e6f206d6f7265206c656166732063616e206265206164646564496e636f727265637420726566756e6420616d6f756e742072656365697665642062792074686520636f6e747261637454686520726577617264206e6f746520686173206265656e20616c7265616479207370656e7420666f72207769746864726177696e675f747265654c6576656c732073686f756c642062652067726561746572207468616e207a65726f496e697469616c697a61626c653a20636f6e747261637420697320616c726561647920696e697469616c697a6564546865207769746864726177206e6f746520686173206265656e20616c7265616479207370656e7420666f72207769746864726177696e675f747265654c6576656c732073686f756c64206265206c657373207468616e20333254686520636f6d6d69746d656e7420686173206265656e207375626d69747465644554482076616c756520697320737570706f73656420746f206265203020666f7220455243323020696e7374616e636554686520726577617264206e6f746520686173206265656e20616c72656164792072656465656d65644465706f7369742064656e6f6d696e6174696f6e2073686f756c642062652067726561746572207468616e20305361666545524332303a204552433230206f7065726174696f6e20646964206e6f7420737563636565644f6e6c79206f70657261746f722063616e2063616c6c20746869732066756e6374696f6e2ea265627a7a72315820741abd6d1b58accc2c506c74aa97fd6bb3086af1022184347b7ca4247886f7a664736f6c63430005110032",
  "source": "pragma solidity 0.5.17;\n\nimport \"./BlenderCore.sol\";\nimport \"@openzeppelin/contracts/token/ERC20/SafeERC20.sol\";\nimport \"./proxy/Initializable.sol\";\n\ncontract ERC20Blender is Initializable, BlenderCore {\n    address public token;\n\n    // DO NOT implement a constructor because this is an upgradable logic.\n    // Use the initialize function as a constructor.\n    constructor() public {}\n\n    function initialize(\n        WVerifier _withdrawVerifier,\n        RVerifier _rewardVerifier,\n        uint256 _d_denomination,\n        uint32 _merkleTreeHeight,\n        uint32 _blockCount,\n        address _operator,\n        address _blnd,\n        address _token,\n        uint256 _firstStageReward,\n        uint256 _secondStageReward,\n        uint256 _thirdStageReward,\n        uint256 _firstStageDepositors,\n        uint256 _secondStageDepositors\n    ) public initializer {\n        // call the initialize function of the parent contract (the constructor of the parent contract)\n        BlenderCore._initialize(\n            _withdrawVerifier,\n            _rewardVerifier,\n            _d_denomination,\n            _merkleTreeHeight,\n            _blockCount,\n            _operator,\n            _blnd,\n            _firstStageReward,\n            _secondStageReward,\n            _thirdStageReward,\n            _firstStageDepositors,\n            _secondStageDepositors\n        );\n        // constructor logic\n        token = _token;\n    }\n\n    function _processDeposit() internal {\n        require(\n            msg.value == 0,\n            \"ETH value is supposed to be 0 for ERC20 instance\"\n        );\n        SafeERC20.safeTransferFrom(\n            IERC20(token),\n            msg.sender,\n            address(this),\n            d_denomination\n        );\n        // equal to deposit\n    }\n\n    function _processWithdraw(\n        address payable _recipient,\n        address payable _relayer,\n        uint256 _fee,\n        uint256 _refund\n    ) internal {\n        require(\n            msg.value == _refund,\n            \"Incorrect refund amount received by the contract\"\n        );\n\n        SafeERC20.safeTransfer(\n            IERC20(token),\n            _recipient,\n            d_denomination - _fee\n        );\n        if (_fee > 0) {\n            SafeERC20.safeTransfer(IERC20(token), _relayer, _fee);\n        }\n\n        if (_refund > 0) {\n            (bool success, ) = _recipient.call.value(_refund)(\"\");\n            if (!success) {\n                // let's return _refund back to the relayer\n                _relayer.transfer(_refund);\n            }\n        }\n    }\n}\n",
  "compiler": {
    "name": "solc",
    "version": "0.5.17+commit.d19bba13.Emscripten.clang"
  },
  "schemaVersion": "3.2.4",
  "devdoc": {
    "methods": {
      "addRelayer(address)": {
        "details": "operator can add a relayer to the whitelist."
      },
      "changeOperator(address)": {
        "details": "operator can change his address "
      },
      "deposit(bytes32)": {
        "details": "Deposit funds into the contract. The caller must send (for ETH) or approve (for ERC20) value equal to or `denomination` of this instance.",
        "params": {
          "_commitment": "the note commitment, which is PedersenHash(nullifier + secret)"
        }
      },
      "disableRelayerWhitelisting()": {
        "details": "operator can disable relayer whitelisting"
      },
      "enableRelayerWhitelisting()": {
        "details": "operator can enable relayer whitelisting"
      },
      "getLastRoot()": {
        "details": "Returns the last root"
      },
      "isKnownRoot(bytes32)": {
        "details": "Whether the root is present in the root history"
      },
      "isRedeemArray(bytes32[])": {
        "details": "whether an array of notes is already spent "
      },
      "isSpent(bytes32)": {
        "details": "whether a note is already spent "
      },
      "isSpentArray(bytes32[])": {
        "details": "whether an array of notes is already spent "
      },
      "removeRelayer(address)": {
        "details": "operator can remove a relayer from the whitelist."
      },
      "setBlockCount(uint32)": {
        "details": "operator can change the number of blocks between the current and next reward roots"
      },
      "updateWithdrawVerifier(address)": {
        "details": "allow operator to update SNARK verification keys. This is needed to update keys after the final trusted setup ceremony is held. After that operator rights are supposed to be transferred to zero address"
      },
      "withdraw(bytes,bytes32,bytes32,bytes32,address,address,uint256,uint256)": {
        "details": "Withdraw a deposit from the contract. `proof` is a zkSNARK proof data, and input is an array of circuit public inputs `input` array consists of: - merkle root of all deposits in the contract - hash of unique deposit nullifier to prevent double spends - the recipient of funds - optional fee that goes to the transaction sender (usually a relay)"
      }
    }
  },
  "userdoc": {
    "methods": {}
  }
}