{
  "contractName": "ETHBlender",
  "abi": [
    {
      "inputs": [],
      "payable": false,
      "stateMutability": "nonpayable",
      "type": "constructor"
    },
    {
      "anonymous": false,
      "inputs": [
        {
          "indexed": false,
          "internalType": "uint32",
          "name": "blockCount",
          "type": "uint32"
        }
      ],
      "name": "BlockCountUpdate",
      "type": "event"
    },
    {
      "anonymous": false,
      "inputs": [
        {
          "indexed": true,
          "internalType": "bytes32",
          "name": "commitment",
          "type": "bytes32"
        },
        {
          "indexed": false,
          "internalType": "uint32",
          "name": "leafIndex",
          "type": "uint32"
        },
        {
          "indexed": false,
          "internalType": "uint256",
          "name": "timestamp",
          "type": "uint256"
        }
      ],
      "name": "Deposit",
      "type": "event"
    },
    {
      "anonymous": false,
      "inputs": [
        {
          "indexed": false,
          "internalType": "address",
          "name": "relayer",
          "type": "address"
        },
        {
          "indexed": false,
          "internalType": "bool",
          "name": "permitted",
          "type": "bool"
        }
      ],
      "name": "RelayerUpdate",
      "type": "event"
    },
    {
      "anonymous": false,
      "inputs": [
        {
          "indexed": false,
          "internalType": "address",
          "name": "to",
          "type": "address"
        },
        {
          "indexed": false,
          "internalType": "bytes32",
          "name": "rewardNullifierHash",
          "type": "bytes32"
        },
        {
          "indexed": true,
          "internalType": "address",
          "name": "relayer",
          "type": "address"
        },
        {
          "indexed": false,
          "internalType": "uint256",
          "name": "fee",
          "type": "uint256"
        }
      ],
      "name": "Reward",
      "type": "event"
    },
    {
      "anonymous": false,
      "inputs": [
        {
          "indexed": false,
          "internalType": "uint32",
          "name": "updateAtBlock",
          "type": "uint32"
        },
        {
          "indexed": false,
          "internalType": "bytes32",
          "name": "newRewardRoot",
          "type": "bytes32"
        }
      ],
      "name": "RewardUpdate",
      "type": "event"
    },
    {
      "anonymous": false,
      "inputs": [
        {
          "indexed": false,
          "internalType": "address",
          "name": "to",
          "type": "address"
        },
        {
          "indexed": false,
          "internalType": "bytes32",
          "name": "withdrawNullifierHash",
          "type": "bytes32"
        },
        {
          "indexed": false,
          "internalType": "bytes32",
          "name": "rewardNullifierHash",
          "type": "bytes32"
        },
        {
          "indexed": true,
          "internalType": "address",
          "name": "relayer",
          "type": "address"
        },
        {
          "indexed": false,
          "internalType": "uint256",
          "name": "fee",
          "type": "uint256"
        }
      ],
      "name": "Withdrawal",
      "type": "event"
    },
    {
      "anonymous": false,
      "inputs": [
        {
          "indexed": false,
          "internalType": "uint256",
          "name": "r_denomination",
          "type": "uint256"
        },
        {
          "indexed": false,
          "internalType": "uint32",
          "name": "leafIndex",
          "type": "uint32"
        }
      ],
      "name": "rewardUpdate",
      "type": "event"
    },
    {
      "constant": true,
      "inputs": [],
      "name": "FIELD_SIZE",
      "outputs": [
        {
          "internalType": "uint256",
          "name": "",
          "type": "uint256"
        }
      ],
      "payable": false,
      "stateMutability": "view",
      "type": "function"
    },
    {
      "constant": true,
      "inputs": [],
      "name": "ROOT_HISTORY_SIZE",
      "outputs": [
        {
          "internalType": "uint32",
          "name": "",
          "type": "uint32"
        }
      ],
      "payable": false,
      "stateMutability": "view",
      "type": "function"
    },
    {
      "constant": true,
      "inputs": [],
      "name": "ZERO_VALUE",
      "outputs": [
        {
          "internalType": "uint256",
          "name": "",
          "type": "uint256"
        }
      ],
      "payable": false,
      "stateMutability": "view",
      "type": "function"
    },
    {
      "constant": false,
      "inputs": [
        {
          "internalType": "address",
          "name": "_relayer",
          "type": "address"
        }
      ],
      "name": "addRelayer",
      "outputs": [],
      "payable": false,
      "stateMutability": "nonpayable",
      "type": "function"
    },
    {
      "constant": true,
      "inputs": [],
      "name": "blnd",
      "outputs": [
        {
          "internalType": "address",
          "name": "",
          "type": "address"
        }
      ],
      "payable": false,
      "stateMutability": "view",
      "type": "function"
    },
    {
      "constant": true,
      "inputs": [],
      "name": "blockCount",
      "outputs": [
        {
          "internalType": "uint32",
          "name": "",
          "type": "uint32"
        }
      ],
      "payable": false,
      "stateMutability": "view",
      "type": "function"
    },
    {
      "constant": false,
      "inputs": [
        {
          "internalType": "address",
          "name": "_newOperator",
          "type": "address"
        }
      ],
      "name": "changeOperator",
      "outputs": [],
      "payable": false,
      "stateMutability": "nonpayable",
      "type": "function"
    },
    {
      "constant": true,
      "inputs": [
        {
          "internalType": "bytes32",
          "name": "",
          "type": "bytes32"
        }
      ],
      "name": "commitments",
      "outputs": [
        {
          "internalType": "bool",
          "name": "",
          "type": "bool"
        }
      ],
      "payable": false,
      "stateMutability": "view",
      "type": "function"
    },
    {
      "constant": true,
      "inputs": [],
      "name": "currentRootIndex",
      "outputs": [
        {
          "internalType": "uint32",
          "name": "",
          "type": "uint32"
        }
      ],
      "payable": false,
      "stateMutability": "view",
      "type": "function"
    },
    {
      "constant": true,
      "inputs": [],
      "name": "d_denomination",
      "outputs": [
        {
          "internalType": "uint256",
          "name": "",
          "type": "uint256"
        }
      ],
      "payable": false,
      "stateMutability": "view",
      "type": "function"
    },
    {
      "constant": false,
      "inputs": [
        {
          "internalType": "bytes32",
          "name": "_commitment",
          "type": "bytes32"
        }
      ],
      "name": "deposit",
      "outputs": [],
      "payable": true,
      "stateMutability": "payable",
      "type": "function"
    },
    {
      "constant": false,
      "inputs": [],
      "name": "disableRelayerWhitelisting",
      "outputs": [],
      "payable": false,
      "stateMutability": "nonpayable",
      "type": "function"
    },
    {
      "constant": false,
      "inputs": [],
      "name": "enableRelayerWhitelisting",
      "outputs": [],
      "payable": false,
      "stateMutability": "nonpayable",
      "type": "function"
    },
    {
      "constant": true,
      "inputs": [
        {
          "internalType": "uint256",
          "name": "",
          "type": "uint256"
        }
      ],
      "name": "filledSubtrees",
      "outputs": [
        {
          "internalType": "bytes32",
          "name": "",
          "type": "bytes32"
        }
      ],
      "payable": false,
      "stateMutability": "view",
      "type": "function"
    },
    {
      "constant": true,
      "inputs": [],
      "name": "firstStageDepositors",
      "outputs": [
        {
          "internalType": "uint256",
          "name": "",
          "type": "uint256"
        }
      ],
      "payable": false,
      "stateMutability": "view",
      "type": "function"
    },
    {
      "constant": true,
      "inputs": [],
      "name": "firstStageReward",
      "outputs": [
        {
          "internalType": "uint256",
          "name": "",
          "type": "uint256"
        }
      ],
      "payable": false,
      "stateMutability": "view",
      "type": "function"
    },
    {
      "constant": true,
      "inputs": [],
      "name": "getLastRoot",
      "outputs": [
        {
          "internalType": "bytes32",
          "name": "",
          "type": "bytes32"
        }
      ],
      "payable": false,
      "stateMutability": "view",
      "type": "function"
    },
    {
      "constant": true,
      "inputs": [
        {
          "internalType": "bytes32",
          "name": "_left",
          "type": "bytes32"
        },
        {
          "internalType": "bytes32",
          "name": "_right",
          "type": "bytes32"
        }
      ],
      "name": "hashLeftRight",
      "outputs": [
        {
          "internalType": "bytes32",
          "name": "",
          "type": "bytes32"
        }
      ],
      "payable": false,
      "stateMutability": "pure",
      "type": "function"
    },
    {
      "constant": true,
      "inputs": [
        {
          "internalType": "bytes32",
          "name": "_root",
          "type": "bytes32"
        }
      ],
      "name": "isKnownRoot",
      "outputs": [
        {
          "internalType": "bool",
          "name": "",
          "type": "bool"
        }
      ],
      "payable": false,
      "stateMutability": "view",
      "type": "function"
    },
    {
      "constant": true,
      "inputs": [
        {
          "internalType": "bytes32",
          "name": "_rwdHash",
          "type": "bytes32"
        }
      ],
      "name": "isRedeem",
      "outputs": [
        {
          "internalType": "bool",
          "name": "",
          "type": "bool"
        }
      ],
      "payable": false,
      "stateMutability": "view",
      "type": "function"
    },
    {
      "constant": true,
      "inputs": [
        {
          "internalType": "bytes32[]",
          "name": "_nullifierHashes",
          "type": "bytes32[]"
        }
      ],
      "name": "isRedeemArray",
      "outputs": [
        {
          "internalType": "bool[]",
          "name": "redeem",
          "type": "bool[]"
        }
      ],
      "payable": false,
      "stateMutability": "view",
      "type": "function"
    },
    {
      "constant": true,
      "inputs": [
        {
          "internalType": "bytes32",
          "name": "_rroot",
          "type": "bytes32"
        }
      ],
      "name": "isRewardRoot",
      "outputs": [
        {
          "internalType": "bool",
          "name": "",
          "type": "bool"
        }
      ],
      "payable": false,
      "stateMutability": "view",
      "type": "function"
    },
    {
      "constant": true,
      "inputs": [
        {
          "internalType": "bytes32",
          "name": "_wdrHash",
          "type": "bytes32"
        }
      ],
      "name": "isSpent",
      "outputs": [
        {
          "internalType": "bool",
          "name": "",
          "type": "bool"
        }
      ],
      "payable": false,
      "stateMutability": "view",
      "type": "function"
    },
    {
      "constant": true,
      "inputs": [
        {
          "internalType": "bytes32[]",
          "name": "_nullifierHashes",
          "type": "bytes32[]"
        }
      ],
      "name": "isSpentArray",
      "outputs": [
        {
          "internalType": "bool[]",
          "name": "spent",
          "type": "bool[]"
        }
      ],
      "payable": false,
      "stateMutability": "view",
      "type": "function"
    },
    {
      "constant": true,
      "inputs": [],
      "name": "levels",
      "outputs": [
        {
          "internalType": "uint32",
          "name": "",
          "type": "uint32"
        }
      ],
      "payable": false,
      "stateMutability": "view",
      "type": "function"
    },
    {
      "constant": true,
      "inputs": [],
      "name": "nextIndex",
      "outputs": [
        {
          "internalType": "uint32",
          "name": "",
          "type": "uint32"
        }
      ],
      "payable": false,
      "stateMutability": "view",
      "type": "function"
    },
    {
      "constant": true,
      "inputs": [
        {
          "internalType": "bytes32",
          "name": "",
          "type": "bytes32"
        }
      ],
      "name": "nullifierHashes",
      "outputs": [
        {
          "internalType": "bool",
          "name": "",
          "type": "bool"
        }
      ],
      "payable": false,
      "stateMutability": "view",
      "type": "function"
    },
    {
      "constant": true,
      "inputs": [],
      "name": "operator",
      "outputs": [
        {
          "internalType": "address",
          "name": "",
          "type": "address"
        }
      ],
      "payable": false,
      "stateMutability": "view",
      "type": "function"
    },
    {
      "constant": true,
      "inputs": [],
      "name": "r_denomination",
      "outputs": [
        {
          "internalType": "uint256",
          "name": "",
          "type": "uint256"
        }
      ],
      "payable": false,
      "stateMutability": "view",
      "type": "function"
    },
    {
      "constant": true,
      "inputs": [
        {
          "internalType": "address",
          "name": "",
          "type": "address"
        }
      ],
      "name": "relayerWhitelist",
      "outputs": [
        {
          "internalType": "bool",
          "name": "",
          "type": "bool"
        }
      ],
      "payable": false,
      "stateMutability": "view",
      "type": "function"
    },
    {
      "constant": true,
      "inputs": [],
      "name": "relayerWhitelistingEnabled",
      "outputs": [
        {
          "internalType": "bool",
          "name": "",
          "type": "bool"
        }
      ],
      "payable": false,
      "stateMutability": "view",
      "type": "function"
    },
    {
      "constant": false,
      "inputs": [
        {
          "internalType": "address",
          "name": "_relayer",
          "type": "address"
        }
      ],
      "name": "removeRelayer",
      "outputs": [],
      "payable": false,
      "stateMutability": "nonpayable",
      "type": "function"
    },
    {
      "constant": false,
      "inputs": [
        {
          "internalType": "bytes",
          "name": "_rproof",
          "type": "bytes"
        },
        {
          "internalType": "bytes32",
          "name": "_rroot",
          "type": "bytes32"
        },
        {
          "internalType": "bytes32",
          "name": "_rwdHash",
          "type": "bytes32"
        },
        {
          "internalType": "address payable",
          "name": "_recipient",
          "type": "address"
        },
        {
          "internalType": "address payable",
          "name": "_relayer",
          "type": "address"
        },
        {
          "internalType": "uint256",
          "name": "_fee",
          "type": "uint256"
        },
        {
          "internalType": "uint256",
          "name": "_refund",
          "type": "uint256"
        }
      ],
      "name": "reward",
      "outputs": [],
      "payable": true,
      "stateMutability": "payable",
      "type": "function"
    },
    {
      "constant": true,
      "inputs": [],
      "name": "rewardCounter",
      "outputs": [
        {
          "internalType": "uint32",
          "name": "",
          "type": "uint32"
        }
      ],
      "payable": false,
      "stateMutability": "view",
      "type": "function"
    },
    {
      "constant": true,
      "inputs": [],
      "name": "rewardCurrentBlocknum",
      "outputs": [
        {
          "internalType": "uint32",
          "name": "",
          "type": "uint32"
        }
      ],
      "payable": false,
      "stateMutability": "view",
      "type": "function"
    },
    {
      "constant": true,
      "inputs": [],
      "name": "rewardCurrentRoot",
      "outputs": [
        {
          "internalType": "bytes32",
          "name": "",
          "type": "bytes32"
        }
      ],
      "payable": false,
      "stateMutability": "view",
      "type": "function"
    },
    {
      "constant": true,
      "inputs": [],
      "name": "rewardNextBlocknum",
      "outputs": [
        {
          "internalType": "uint32",
          "name": "",
          "type": "uint32"
        }
      ],
      "payable": false,
      "stateMutability": "view",
      "type": "function"
    },
    {
      "constant": true,
      "inputs": [],
      "name": "rewardNextRoot",
      "outputs": [
        {
          "internalType": "bytes32",
          "name": "",
          "type": "bytes32"
        }
      ],
      "payable": false,
      "stateMutability": "view",
      "type": "function"
    },
    {
      "constant": true,
      "inputs": [
        {
          "internalType": "bytes32",
          "name": "",
          "type": "bytes32"
        }
      ],
      "name": "rewardNullifierHashes",
      "outputs": [
        {
          "internalType": "bool",
          "name": "",
          "type": "bool"
        }
      ],
      "payable": false,
      "stateMutability": "view",
      "type": "function"
    },
    {
      "constant": true,
      "inputs": [],
      "name": "rewardVerifier",
      "outputs": [
        {
          "internalType": "contract RVerifier",
          "name": "",
          "type": "address"
        }
      ],
      "payable": false,
      "stateMutability": "view",
      "type": "function"
    },
    {
      "constant": true,
      "inputs": [
        {
          "internalType": "uint256",
          "name": "",
          "type": "uint256"
        }
      ],
      "name": "roots",
      "outputs": [
        {
          "internalType": "bytes32",
          "name": "",
          "type": "bytes32"
        }
      ],
      "payable": false,
      "stateMutability": "view",
      "type": "function"
    },
    {
      "constant": true,
      "inputs": [],
      "name": "secondStageDepositors",
      "outputs": [
        {
          "internalType": "uint256",
          "name": "",
          "type": "uint256"
        }
      ],
      "payable": false,
      "stateMutability": "view",
      "type": "function"
    },
    {
      "constant": true,
      "inputs": [],
      "name": "secondStageReward",
      "outputs": [
        {
          "internalType": "uint256",
          "name": "",
          "type": "uint256"
        }
      ],
      "payable": false,
      "stateMutability": "view",
      "type": "function"
    },
    {
      "constant": false,
      "inputs": [
        {
          "internalType": "uint32",
          "name": "_blockCount",
          "type": "uint32"
        }
      ],
      "name": "setBlockCount",
      "outputs": [],
      "payable": false,
      "stateMutability": "nonpayable",
      "type": "function"
    },
    {
      "constant": true,
      "inputs": [],
      "name": "thirdStageReward",
      "outputs": [
        {
          "internalType": "uint256",
          "name": "",
          "type": "uint256"
        }
      ],
      "payable": false,
      "stateMutability": "view",
      "type": "function"
    },
    {
      "constant": false,
      "inputs": [
        {
          "internalType": "address",
          "name": "_newVerifier",
          "type": "address"
        }
      ],
      "name": "updateRewardVerifier",
      "outputs": [],
      "payable": false,
      "stateMutability": "nonpayable",
      "type": "function"
    },
    {
      "constant": false,
      "inputs": [
        {
          "internalType": "address",
          "name": "_newVerifier",
          "type": "address"
        }
      ],
      "name": "updateWithdrawVerifier",
      "outputs": [],
      "payable": false,
      "stateMutability": "nonpayable",
      "type": "function"
    },
    {
      "constant": false,
      "inputs": [
        {
          "internalType": "bytes",
          "name": "_proof",
          "type": "bytes"
        },
        {
          "internalType": "bytes32",
          "name": "_root",
          "type": "bytes32"
        },
        {
          "internalType": "bytes32",
          "name": "_wdrHash",
          "type": "bytes32"
        },
        {
          "internalType": "bytes32",
          "name": "_rwdHash",
          "type": "bytes32"
        },
        {
          "internalType": "address payable",
          "name": "_recipient",
          "type": "address"
        },
        {
          "internalType": "address payable",
          "name": "_relayer",
          "type": "address"
        },
        {
          "internalType": "uint256",
          "name": "_fee",
          "type": "uint256"
        },
        {
          "internalType": "uint256",
          "name": "_refund",
          "type": "uint256"
        }
      ],
      "name": "withdraw",
      "outputs": [],
      "payable": true,
      "stateMutability": "payable",
      "type": "function"
    },
    {
      "constant": true,
      "inputs": [],
      "name": "withdrawVerifier",
      "outputs": [
        {
          "internalType": "contract WVerifier",
          "name": "",
          "type": "address"
        }
      ],
      "payable": false,
      "stateMutability": "view",
      "type": "function"
    },
    {
      "constant": true,
      "inputs": [
        {
          "internalType": "uint256",
          "name": "",
          "type": "uint256"
        }
      ],
      "name": "zeros",
      "outputs": [
        {
          "internalType": "bytes32",
          "name": "",
          "type": "bytes32"
        }
      ],
      "payable": false,
      "stateMutability": "view",
      "type": "function"
    },
    {
      "constant": false,
      "inputs": [
        {
          "internalType": "contract WVerifier",
          "name": "_withdrawVerifier",
          "type": "address"
        },
        {
          "internalType": "contract RVerifier",
          "name": "_rewardVerifier",
          "type": "address"
        },
        {
          "internalType": "uint256",
          "name": "_d_denomination",
          "type": "uint256"
        },
        {
          "internalType": "uint32",
          "name": "_merkleTreeHeight",
          "type": "uint32"
        },
        {
          "internalType": "uint32",
          "name": "_blockCount",
          "type": "uint32"
        },
        {
          "internalType": "address",
          "name": "_operator",
          "type": "address"
        },
        {
          "internalType": "address",
          "name": "_blnd",
          "type": "address"
        },
        {
          "internalType": "uint256",
          "name": "_firstStageReward",
          "type": "uint256"
        },
        {
          "internalType": "uint256",
          "name": "_secondStageReward",
          "type": "uint256"
        },
        {
          "internalType": "uint256",
          "name": "_thirdStageReward",
          "type": "uint256"
        },
        {
          "internalType": "uint256",
          "name": "_firstStageDepositors",
          "type": "uint256"
        },
        {
          "internalType": "uint256",
          "name": "_secondStageDepositors",
          "type": "uint256"
        }
      ],
      "name": "initialize",
      "outputs": [],
      "payable": false,
      "stateMutability": "nonpayable",
      "type": "function"
    }
  ],
  "bytecode": "0x608060405234801561001057600080fd5b50613101806100206000396000f3fe6080604052600436106102e45760003560e01c8063839df94511610190578063c526cb5f116100dc578063e5285dcc11610095578063f178e47c1161006f578063f178e47c14610b70578063f9406cf314610b9a578063fc7e9c6f14610baf578063fe7dab5214610bc4576102e4565b8063e5285dcc14610b07578063e829558814610b31578063ec73295914610b5b576102e4565b8063c526cb5f146109e1578063cd87a3b414610a0b578063d866151714610a20578063dd39f00d14610a35578063e16f7cd414610a68578063e2f7279114610a7d576102e4565b8063b214faa511610149578063ba70f75711610123578063ba70f757146108f4578063bb0e824b14610909578063c2b40ae41461091e578063c3f436b714610948576102e4565b8063b214faa514610822578063b74336911461083f578063b9fae5f1146108df576102e4565b8063839df9451461070b57806385534e9d14610735578063864eb1641461074a57806390eeb02b1461075f5780639fa12d0b14610774578063ad5dd7ed146107ef576102e4565b806343d015201161024f5780636d9833e31161020857806378c66697116101e257806378c66697146106a25780637d67423f146106b75780638036bcc9146106cc57806383922d29146106f6576102e4565b80636d9833e3146106305780636f2f36d71461065a57806375c231281461066f576102e4565b806343d01520146105765780634c6423e1146105a95780634ecf518b146105be578063570ca735146105d3578063585334e3146105e857806360f0a5ac146105fd576102e4565b80632e2d40ce116102a15780632e2d40ce146104b057806338bf282e146104c55780633a1fa643146105075780633cac0bb81461051c5780633ce0de9b1461054c578063414a37ba14610561576102e4565b806306394c9b146102e957806307225b4d1461031e57806309087f0c1461034c5780631610f7621461041757806317cc915c1461045557806321fc045a1461047f575b600080fd5b3480156102f557600080fd5b5061031c6004803603602081101561030c57600080fd5b50356001600160a01b0316610bd9565b005b34801561032a57600080fd5b50610333610c44565b6040805163ffffffff9092168252519081900360200190f35b34801561035857600080fd5b506103c76004803603602081101561036f57600080fd5b810190602081018135600160201b81111561038957600080fd5b82018360208201111561039b57600080fd5b803590602001918460208302840111600160201b831117156103bc57600080fd5b509092509050610c57565b60408051602080825283518183015283519192839290830191858101910280838360005b838110156104035781810151838201526020016103eb565b505050509050019250505060405180910390f35b34801561042357600080fd5b506104416004803603602081101561043a57600080fd5b5035610cdf565b604080519115158252519081900360200190f35b34801561046157600080fd5b506104416004803603602081101561047857600080fd5b5035610cf4565b34801561048b57600080fd5b50610494610d09565b604080516001600160a01b039092168252519081900360200190f35b3480156104bc57600080fd5b50610333610d18565b3480156104d157600080fd5b506104f5600480360360408110156104e857600080fd5b5080359060200135610d24565b60408051918252519081900360200190f35b34801561051357600080fd5b506104f5610e48565b34801561052857600080fd5b5061031c6004803603602081101561053f57600080fd5b503563ffffffff16610e4e565b34801561055857600080fd5b50610333610f10565b34801561056d57600080fd5b506104f5610f1c565b34801561058257600080fd5b5061031c6004803603602081101561059957600080fd5b50356001600160a01b0316610f40565b3480156105b557600080fd5b50610333610fab565b3480156105ca57600080fd5b50610333610fbe565b3480156105df57600080fd5b50610494610fd0565b3480156105f457600080fd5b5061031c610fdf565b34801561060957600080fd5b5061031c6004803603602081101561062057600080fd5b50356001600160a01b03166110a0565b34801561063c57600080fd5b506104416004803603602081101561065357600080fd5b50356111b4565b34801561066657600080fd5b506104f5611227565b34801561067b57600080fd5b5061031c6004803603602081101561069257600080fd5b50356001600160a01b031661122d565b3480156106ae57600080fd5b506104f5611298565b3480156106c357600080fd5b5061044161129e565b3480156106d857600080fd5b50610441600480360360208110156106ef57600080fd5b50356112ae565b34801561070257600080fd5b506104f56112c3565b34801561071757600080fd5b506104416004803603602081101561072e57600080fd5b50356112c9565b34801561074157600080fd5b5061031c6112de565b34801561075657600080fd5b50610494611399565b34801561076b57600080fd5b506103336113a8565b34801561078057600080fd5b506103c76004803603602081101561079757600080fd5b810190602081018135600160201b8111156107b157600080fd5b8201836020820111156107c357600080fd5b803590602001918460208302840111600160201b831117156107e457600080fd5b5090925090506113b4565b3480156107fb57600080fd5b506104416004803603602081101561081257600080fd5b50356001600160a01b0316611435565b61031c6004803603602081101561083857600080fd5b503561144a565b61031c600480360361010081101561085657600080fd5b810190602081018135600160201b81111561087057600080fd5b82018360208201111561088257600080fd5b803590602001918460018302840111600160201b831117156108a357600080fd5b91935091508035906020810135906040810135906001600160a01b03606082013581169160808101359091169060a08101359060c00135611576565b3480156108eb57600080fd5b506104f56119ad565b34801561090057600080fd5b506104f56119b3565b34801561091557600080fd5b506104f56119d3565b34801561092a57600080fd5b506104f56004803603602081101561094157600080fd5b50356119d9565b61031c600480360360e081101561095e57600080fd5b810190602081018135600160201b81111561097857600080fd5b82018360208201111561098a57600080fd5b803590602001918460018302840111600160201b831117156109ab57600080fd5b91935091508035906020810135906001600160a01b03604082013581169160608101359091169060808101359060a001356119ed565b3480156109ed57600080fd5b5061044160048036036020811015610a0457600080fd5b5035611e9f565b348015610a1757600080fd5b50610333611ec8565b348015610a2c57600080fd5b506104f5611ecd565b348015610a4157600080fd5b5061031c60048036036020811015610a5857600080fd5b50356001600160a01b0316611ed3565b348015610a7457600080fd5b506104f5611fef565b348015610a8957600080fd5b5061031c6004803603610180811015610aa157600080fd5b506001600160a01b038135811691602081013582169160408201359163ffffffff606082013581169260808301359091169160a081013582169160c0820135169060e0810135906101008101359061012081013590610140810135906101600135611ff5565b348015610b1357600080fd5b5061044160048036036020811015610b2a57600080fd5b50356120b7565b348015610b3d57600080fd5b506104f560048036036020811015610b5457600080fd5b50356120cc565b348015610b6757600080fd5b506104f56120ea565b348015610b7c57600080fd5b506104f560048036036020811015610b9357600080fd5b503561210e565b348015610ba657600080fd5b5061049461211b565b348015610bbb57600080fd5b5061033361212a565b348015610bd057600080fd5b506104f561213d565b6073546001600160a01b03163314610c225760405162461bcd60e51b81526004018080602001828103825260258152602001806130736025913960400191505060405180910390fd5b607380546001600160a01b0319166001600160a01b0392909216919091179055565b606b54600160201b900463ffffffff1681565b604080518281526020808402820101909152606090828015610c83578160200160208202803883390190505b50905060005b82811015610cd857610cac848483818110610ca057fe5b905060200201356112ae565b15610cd0576001828281518110610cbf57fe5b911515602092830291909101909101525b600101610c89565b5092915050565b606f6020526000908152604090205460ff1681565b606e6020526000908152604090205460ff1681565b6075546001600160a01b031681565b60695463ffffffff1681565b60408051600280825260608083018452600093909291906020830190803883390190505090508360001c81600081518110610d5b57fe5b6020026020010181815250508260001c81600181518110610d7857fe5b602002602001018181525050600073__Hasher________________________________63c4420fb4836040518263ffffffff1660e01b81526004018080602001828103825283818151815260200191508051906020019060200280838360005b83811015610df0578181015183820152602001610dd8565b505050509050019250505060206040518083038186803b158015610e1357600080fd5b505af4158015610e27573d6000803e3d6000fd5b505050506040513d6020811015610e3d57600080fd5b505195945050505050565b60685481565b6073546001600160a01b03163314610e975760405162461bcd60e51b81526004018080602001828103825260258152602001806130736025913960400191505060405180910390fd5b606b54600160401b900460ff1615610ee4576040805162461bcd60e51b815260206004820152601f6024820152600080516020612dba833981519152604482015290519081900360640190fd5b606b805460ff60401b1916600160401b179055610f0081612143565b50606b805460ff60401b19169055565b606b5463ffffffff1681565b7f30644e72e131a029b85045b68181585d2833e84879b9709143e1f593f000000181565b6073546001600160a01b03163314610f895760405162461bcd60e51b81526004018080602001828103825260258152602001806130736025913960400191505060405180910390fd5b607280546001600160a01b0319166001600160a01b0392909216919091179055565b607254600160a01b900463ffffffff1681565b60005462010000900463ffffffff1681565b6073546001600160a01b031681565b6073546001600160a01b031633146110285760405162461bcd60e51b81526004018080602001828103825260258152602001806130736025913960400191505060405180910390fd5b606b54600160401b900460ff1615611075576040805162461bcd60e51b815260206004820152601f6024820152600080516020612dba833981519152604482015290519081900360640190fd5b606b80546073805460ff60a01b1916600160a01b17905560ff60401b19908116600160401b17169055565b6073546001600160a01b031633146110e95760405162461bcd60e51b81526004018080602001828103825260258152602001806130736025913960400191505060405180910390fd5b606b54600160401b900460ff1615611136576040805162461bcd60e51b815260206004820152601f6024820152600080516020612dba833981519152604482015290519081900360640190fd5b606b805460ff60401b1916600160401b1790556001600160a01b0381166000818152607460209081526040808320805460ff1916905580519384529083019190915280517f6d322066f37f873d4ea983fd3c62fe4d7a1d5d6461ae6950297b949745344e059281900390910190a150606b805460ff60401b19169055565b6000816111c357506000611222565b60035463ffffffff165b60048163ffffffff16606481106111e057fe5b01548314156111f3576001915050611222565b63ffffffff8116611202575060645b6003546000199091019063ffffffff808316911614156111cd5760009150505b919050565b60795481565b6073546001600160a01b031633146112765760405162461bcd60e51b81526004018080602001828103825260258152602001806130736025913960400191505060405180910390fd5b607180546001600160a01b0319166001600160a01b0392909216919091179055565b606d5481565b607354600160a01b900460ff1681565b6000908152606f602052604090205460ff1690565b606a5481565b60706020526000908152604090205460ff1681565b6073546001600160a01b031633146113275760405162461bcd60e51b81526004018080602001828103825260258152602001806130736025913960400191505060405180910390fd5b606b54600160401b900460ff1615611374576040805162461bcd60e51b815260206004820152601f6024820152600080516020612dba833981519152604482015290519081900360640190fd5b606b80546073805460ff60a01b1916905560ff60401b19908116600160401b17169055565b6071546001600160a01b031681565b60035463ffffffff1681565b6040805182815260208084028201019091526060908280156113e0578160200160208202803883390190505b50905060005b82811015610cd8576114098484838181106113fd57fe5b905060200201356120b7565b1561142d57600182828151811061141c57fe5b911515602092830291909101909101525b6001016113e6565b60746020526000908152604090205460ff1681565b606b54600160401b900460ff1615611497576040805162461bcd60e51b815260206004820152601f6024820152600080516020612dba833981519152604482015290519081900360640190fd5b606b805460ff60401b1916600160401b17905560008181526070602052604090205460ff16156114f85760405162461bcd60e51b8152600401808060200182810382526021815260200180612f8a6021913960400191505060405180910390fd5b6000611503826121a6565b6000838152607060205260409020805460ff1916600117905590506115266123d9565b6040805163ffffffff83168152426020820152815184927fa945e51eec50ab98c161376f0db4cf2aeba3ec92755fe2fcd388bdbbb80ff196928290030190a25050606b805460ff60401b19169055565b606b54600160401b900460ff16156115c3576040805162461bcd60e51b815260206004820152601f6024820152600080516020612dba833981519152604482015290519081900360640190fd5b606b805460ff60401b1916600160401b1790556073548390600160a01b900460ff1615611653576001600160a01b03811660009081526074602052604090205460ff16611653576040805162461bcd60e51b81526020600482015260196024820152782737ba1030903bb434ba32b634b9ba32b2103932b630bcb2b960391b604482015290519081900360640190fd5b606c548311156116aa576040805162461bcd60e51b815260206004820152601a60248201527f4665652065786365656473207472616e736665722076616c7565000000000000604482015290519081900360640190fd5b6000878152606e602052604090205460ff16156116f85760405162461bcd60e51b8152600401808060200182810382526038815260200180612efc6038913960400191505060405180910390fd5b6000868152606e602052604090205460ff16156117465760405162461bcd60e51b8152600401808060200182810382526036815260200180612e716036913960400191505060405180910390fd5b61174f886111b4565b6117a0576040805162461bcd60e51b815260206004820152601c60248201527f43616e6e6f742066696e6420796f7572206d65726b6c6520726f6f7400000000604482015290519081900360640190fd5b6071546040805160e080820183528b8252602082018b90528183018a90526001600160a01b038981166060840152888116608084015260a0830188905260c08301879052925163598da1d160e01b8152929093169263598da1d1928e928e9290916004810191829160240190849080838360005b8381101561182c578181015183820152602001611814565b505050509050018281038252858582818152602001925080828437600081840152601f19601f820116905080830192505050945050505050602060405180830381600087803b15801561187e57600080fd5b505af1158015611892573d6000803e3d6000fd5b505050506040513d60208110156118a857600080fd5b50516118f4576040805162461bcd60e51b815260206004820152601660248201527524b73b30b634b2103bb4ba34323930bb90383937b7b360511b604482015290519081900360640190fd5b6000878152606e602090815260408083208054600160ff1991821681179092558a85528285208054821683179055606f90935292208054909116909117905561193f8585858561241b565b604080516001600160a01b038781168252602082018a9052818301899052606082018690529151918616917fb9632a5273eccb6a6c4f89035ced459ebb3db29e0ad807721982f4960602242d9181900360800190a25050606b805460ff60401b191690555050505050505050565b607a5481565b60035460009060049063ffffffff16606481106119cc57fe5b0154905090565b60765481565b600481606481106119e657fe5b0154905081565b606b54600160401b900460ff1615611a3a576040805162461bcd60e51b815260206004820152601f6024820152600080516020612dba833981519152604482015290519081900360640190fd5b606b805460ff60401b1916600160401b1790556073548390600160a01b900460ff1615611aca576001600160a01b03811660009081526074602052604090205460ff16611aca576040805162461bcd60e51b81526020600482015260196024820152782737ba1030903bb434ba32b634b9ba32b2103932b630bcb2b960391b604482015290519081900360640190fd5b606d54831115611b21576040805162461bcd60e51b815260206004820152601a60248201527f4665652065786365656473207472616e736665722076616c7565000000000000604482015290519081900360640190fd5b6000868152606f602052604090205460ff1615611b6f5760405162461bcd60e51b8152600401808060200182810382526029815260200180612fd06029913960400191505060405180910390fd5b611b7887611e9f565b611bc9576040805162461bcd60e51b815260206004820152601c60248201527f43616e6e6f742066696e6420796f7572206d65726b6c6520726f6f7400000000604482015290519081900360640190fd5b6072546040805160c080820183528a8252602082018a90526001600160a01b038981168385015288811660608401526080830188905260a08301879052925163695ef6f960e01b8152929093169263695ef6f9928d928d9290916004810191829160240190849080838360005b83811015611c4e578181015183820152602001611c36565b505050509050018281038252858582818152602001925080828437600081840152601f19601f820116905080830192505050945050505050602060405180830381600087803b158015611ca057600080fd5b505af1158015611cb4573d6000803e3d6000fd5b505050506040513d6020811015611cca57600080fd5b5051611d14576040805162461bcd60e51b815260206004820152601460248201527324b73b30b634b2103932bbb0b93210383937b7b360611b604482015290519081900360640190fd5b607954607254600160a01b900463ffffffff161415611d7f57607754606d81905560725460408051928352600160a01b90910463ffffffff16602083015280517f9387af17fcab2a35cbf86e21b2472b4ffae5072fdb57c71e9dece59d7b16035b9281900390910190a15b607a54607254600160a01b900463ffffffff161415611dea57607854606d81905560725460408051928352600160a01b90910463ffffffff16602083015280517f9387af17fcab2a35cbf86e21b2472b4ffae5072fdb57c71e9dece59d7b16035b9281900390910190a15b6000868152606f60205260409020805460ff19166001179055611e0f858585856125c8565b60728054600163ffffffff600160a01b808404821692909201160263ffffffff60a01b19909116179055604080516001600160a01b038781168252602082018990528183018690529151918616917fd372214d98616c555c2fbc3e9e729a309374d6c2aa7c20e84c73c4af5e44e6189181900360600190a25050606b805460ff60401b1916905550505050505050565b600081611eae57506000611222565b606854821415611ec057506001611222565b506000919050565b606481565b60775481565b6073546001600160a01b03163314611f1c5760405162461bcd60e51b81526004018080602001828103825260258152602001806130736025913960400191505060405180910390fd5b606b54600160401b900460ff1615611f69576040805162461bcd60e51b815260206004820152601f6024820152600080516020612dba833981519152604482015290519081900360640190fd5b606b805460ff60401b1916600160401b1790556001600160a01b038116600081815260746020908152604091829020805460ff191660011790819055825193845260ff1615159083015280517f6d322066f37f873d4ea983fd3c62fe4d7a1d5d6461ae6950297b949745344e059281900390910190a150606b805460ff60401b19169055565b606c5481565b600054610100900460ff168061200e575061200e6126df565b8061201c575060005460ff16155b6120575760405162461bcd60e51b815260040180806020018281038252602e815260200180612ece602e913960400191505060405180910390fd5b600054610100900460ff16158015612082576000805460ff1961ff0019909116610100171660011790555b6120968d8d8d8d8d8d8d8d8d8d8d8d6126e5565b80156120a8576000805461ff00191690555b50505050505050505050505050565b6000908152606e602052604090205460ff1690565b600281815481106120d957fe5b600091825260209091200154905081565b7f2fe54c60d3acabf3343a35b6eba15db4821b340f76e741e2249685ed4899af6c81565b600181815481106120d957fe5b6072546001600160a01b031681565b600354600160201b900463ffffffff1681565b60785481565b606b805463ffffffff808416600160201b90810267ffffffff00000000199093169290921792839055604080519290930416815290517f8a953a9fd53611ff032fe393666876e8fc502dc48c18a937a45280549418117d9181900360200190a150565b60035460008054909163ffffffff600160201b909104811691620100009004811660020a168114156122095760405162461bcd60e51b815260040180806020018281038252602f815260200180612dda602f913960400191505060405180910390fd5b6003805463ffffffff600160201b80830482166001019091160267ffffffff000000001990911617905582600080805b60005463ffffffff62010000909104811690821610156122e757600185166122a35783925060028163ffffffff168154811061227157fe5b906000526020600020015491508360018263ffffffff168154811061229257fe5b6000918252602090912001556122c7565b60018163ffffffff16815481106122b657fe5b906000526020600020015492508391505b6122d18383610d24565b9350600263ffffffff8616049450600101612239565b5060035460649063ffffffff908116600101166003805463ffffffff19169290910663ffffffff90811692909217908190558491600491166064811061232957fe5b0155606b5463ffffffff600160201b82048116918116430316106123bb57606a8054606881905590849055606b80546069805463ffffffff80841663ffffffff19928316179283905592164383161790925560408051929091168252602082019290925281517f2d3068354e972bf0c8d6fe282f80eb1d53366239061970704dad47beba98f164929181900390910190a15b5050600354600160201b900463ffffffff1660001901949350505050565b606c5434146124195760405162461bcd60e51b8152600401808060200182810382526038815260200180612e096038913960400191505060405180910390fd5b565b34156124585760405162461bcd60e51b81526004018080602001828103825260358152602001806130986035913960400191505060405180910390fd5b80156124955760405162461bcd60e51b8152600401808060200182810382526034815260200180612f346034913960400191505060405180910390fd5b606c546040516000916001600160a01b0387169190859003908381818185875af1925050503d80600081146124e6576040519150601f19603f3d011682016040523d82523d6000602084013e6124eb565b606091505b505090508061252b5760405162461bcd60e51b8152600401808060200182810382526025815260200180612fab6025913960400191505060405180910390fd5b82156125c1576040516001600160a01b038516908490600081818185875af1925050503d806000811461257a576040519150601f19603f3d011682016040523d82523d6000602084013e61257f565b606091505b505080915050806125c15760405162461bcd60e51b8152600401808060200182810382526023815260200180612ff96023913960400191505060405180910390fd5b5050505050565b8034146126065760405162461bcd60e51b8152600401808060200182810382526030815260200180612e416030913960400191505060405180910390fd5b607554606d54612624916001600160a01b03169086908590036128aa565b811561264157607554612641906001600160a01b031684846128aa565b80156126d9576040516000906001600160a01b0386169083908381818185875af1925050503d8060008114612692576040519150601f19603f3d011682016040523d82523d6000602084013e612697565b606091505b50509050806125c1576040516001600160a01b0385169083156108fc029084906000818181858888f193505050501580156126d6573d6000803e3d6000fd5b50505b50505050565b303b1590565b600054610100900460ff16806126fe57506126fe6126df565b8061270c575060005460ff16155b6127475760405162461bcd60e51b815260040180806020018281038252602e815260200180612ece602e913960400191505060405180910390fd5b600054610100900460ff16158015612772576000805460ff1961ff0019909116610100171660011790555b61277c8a8a612901565b60008b116127bb5760405162461bcd60e51b815260040180806020018281038252602d81526020018061301c602d913960400191505060405180910390fd5b8560768190555084607781905550836078819055508260798190555081607a819055508c607160006101000a8154816001600160a01b0302191690836001600160a01b031602179055508b607260006101000a8154816001600160a01b0302191690836001600160a01b0316021790555087607360006101000a8154816001600160a01b0302191690836001600160a01b031602179055508a606c81905550607654606d8190555086607560006101000a8154816001600160a01b0302191690836001600160a01b0316021790555080156120a8576000805461ff001916905550505050505050505050505050565b604080516001600160a01b038416602482015260448082018490528251808303909101815260649091019091526020810180516001600160e01b031663a9059cbb60e01b1790526128fc908490612bc5565b505050565b600054610100900460ff168061291a575061291a6126df565b80612928575060005460ff16155b6129635760405162461bcd60e51b815260040180806020018281038252602e815260200180612ece602e913960400191505060405180910390fd5b600054610100900460ff1615801561298e576000805460ff1961ff0019909116610100171660011790555b60008363ffffffff16116129d35760405162461bcd60e51b8152600401808060200182810382526027815260200180612ea76027913960400191505060405180910390fd5b60208363ffffffff1610612a185760405162461bcd60e51b8152600401808060200182810382526022815260200180612f686022913960400191505060405180910390fd5b6000805463ffffffff808616620100000265ffffffff000019909216919091178255606b8054918516600160201b0267ffffffff00000000199092169190911790556002805460018181019092557f2fe54c60d3acabf3343a35b6eba15db4821b340f76e741e2249685ed4899af6c7f405787fa12a823e0f2b7631cc41b3ba8828b3321ca811111fa75cd3aa3bb5ace90910181905581548083018355928290527fb10e2d527612073b26eecdfd717e6a320cf44b4afac2b0732d9fcbe2b7fa0cf69092018290555b60005463ffffffff6201000090910481169082161015612b7057612b058283610d24565b6002805460018181019092557f405787fa12a823e0f2b7631cc41b3ba8828b3321ca811111fa75cd3aa3bb5ace018290558054808201825560008290527fb10e2d527612073b26eecdfd717e6a320cf44b4afac2b0732d9fcbe2b7fa0cf60182905590925001612ae1565b50612b7b8182610d24565b600481905560688190556069805463ffffffff431663ffffffff199182168117909255606a92909255606b80549092161790555080156128fc576000805461ff0019169055505050565b612bd7826001600160a01b0316612d7d565b612c28576040805162461bcd60e51b815260206004820152601f60248201527f5361666545524332303a2063616c6c20746f206e6f6e2d636f6e747261637400604482015290519081900360640190fd5b60006060836001600160a01b0316836040518082805190602001908083835b60208310612c665780518252601f199092019160209182019101612c47565b6001836020036101000a0380198251168184511680821785525050505050509050019150506000604051808303816000865af19150503d8060008114612cc8576040519150601f19603f3d011682016040523d82523d6000602084013e612ccd565b606091505b509150915081612d24576040805162461bcd60e51b815260206004820181905260248201527f5361666545524332303a206c6f772d6c6576656c2063616c6c206661696c6564604482015290519081900360640190fd5b8051156126d957808060200190516020811015612d4057600080fd5b50516126d95760405162461bcd60e51b815260040180806020018281038252602a815260200180613049602a913960400191505060405180910390fd5b6000813f7fc5d2460186f7233c927e7db2dcc703c0e500b653ca82273b7bfad8045d85a470818114801590612db157508115155b94935050505056fe5265656e7472616e637947756172643a207265656e7472616e742063616c6c004d65726b6c6520747265652069732066756c6c2e204e6f206d6f7265206c656166732063616e206265206164646564506c656173652073656e6420606d697844656e6f6d696e6174696f6e602045544820616c6f6e672077697468207472616e73616374696f6e496e636f727265637420726566756e6420616d6f756e742072656365697665642062792074686520636f6e747261637454686520726577617264206e6f746520686173206265656e20616c7265616479207370656e7420666f72207769746864726177696e675f747265654c6576656c732073686f756c642062652067726561746572207468616e207a65726f496e697469616c697a61626c653a20636f6e747261637420697320616c726561647920696e697469616c697a6564546865207769746864726177206e6f746520686173206265656e20616c7265616479207370656e7420666f72207769746864726177696e67526566756e642076616c756520697320737570706f73656420746f206265207a65726f20666f722045544820696e7374616e63655f747265654c6576656c732073686f756c64206265206c657373207468616e20333254686520636f6d6d69746d656e7420686173206265656e207375626d69747465647061796d656e7420746f205f726563697069656e7420646964206e6f7420676f207468727554686520726577617264206e6f746520686173206265656e20616c72656164792072656465656d65647061796d656e7420746f205f72656c6179657220646964206e6f7420676f20746872754465706f7369742064656e6f6d696e6174696f6e2073686f756c642062652067726561746572207468616e20305361666545524332303a204552433230206f7065726174696f6e20646964206e6f7420737563636565644f6e6c79206f70657261746f722063616e2063616c6c20746869732066756e6374696f6e2e4d6573736167652076616c756520697320737570706f73656420746f206265207a65726f20666f722045544820696e7374616e6365a265627a7a7231582087e2ead029443dea375b26f017736f6206cbb5a424c20fa38d946277598afa4664736f6c63430005110032",
  "source": "pragma solidity ^0.5.17;\n\nimport \"./BlenderCore.sol\";\n\ncontract ETHBlender is BlenderCore {\n    // DO NOT implement a constructor because this is an upgradable logic.\n    // Use the initialize function as a constructor.\n    constructor() public {}\n\n    function initialize(\n        WVerifier _withdrawVerifier,\n        RVerifier _rewardVerifier,\n        uint256 _d_denomination,\n        uint32 _merkleTreeHeight,\n        uint32 _blockCount,\n        address _operator,\n        address _blnd,\n        uint256 _firstStageReward,\n        uint256 _secondStageReward,\n        uint256 _thirdStageReward,\n        uint256 _firstStageDepositors,\n        uint256 _secondStageDepositors\n    ) public initializer {\n        // call the initialize function of the parent contract (the constructor of the parent contract)\n        BlenderCore._initialize(\n            _withdrawVerifier,\n            _rewardVerifier,\n            _d_denomination,\n            _merkleTreeHeight,\n            _blockCount,\n            _operator,\n            _blnd,\n            _firstStageReward,\n            _secondStageReward,\n            _thirdStageReward,\n            _firstStageDepositors,\n            _secondStageDepositors\n        );\n    }\n\n    function _processDeposit() internal {\n        require(\n            msg.value == d_denomination,\n            \"Please send `mixDenomination` ETH along with transaction\"\n        );\n    }\n\n    function _processWithdraw(\n        address payable _recipient,\n        address payable _relayer,\n        uint256 _fee,\n        uint256 _refund\n    ) internal {\n        require(\n            msg.value == 0,\n            \"Message value is supposed to be zero for ETH instance\"\n        );\n        require(\n            _refund == 0,\n            \"Refund value is supposed to be zero for ETH instance\"\n        );\n\n        (bool success, ) = _recipient.call.value(d_denomination - _fee)(\"\");\n        require(success, \"payment to _recipient did not go thru\");\n        if (_fee > 0) {\n            (success, ) = _relayer.call.value(_fee)(\"\");\n            require(success, \"payment to _relayer did not go thru\");\n        }\n    }\n}\n",
  "compiler": {
    "name": "solc",
    "version": "0.5.17+commit.d19bba13.Emscripten.clang"
  },
  "schemaVersion": "3.2.4",
  "devdoc": {
    "methods": {
      "addRelayer(address)": {
        "details": "operator can add a relayer to the whitelist."
      },
      "changeOperator(address)": {
        "details": "operator can change his address "
      },
      "deposit(bytes32)": {
        "details": "Deposit funds into the contract. The caller must send (for ETH) or approve (for ERC20) value equal to or `denomination` of this instance.",
        "params": {
          "_commitment": "the note commitment, which is PedersenHash(nullifier + secret)"
        }
      },
      "disableRelayerWhitelisting()": {
        "details": "operator can disable relayer whitelisting"
      },
      "enableRelayerWhitelisting()": {
        "details": "operator can enable relayer whitelisting"
      },
      "getLastRoot()": {
        "details": "Returns the last root"
      },
      "isKnownRoot(bytes32)": {
        "details": "Whether the root is present in the root history"
      },
      "isRedeemArray(bytes32[])": {
        "details": "whether an array of notes is already spent "
      },
      "isSpent(bytes32)": {
        "details": "whether a note is already spent "
      },
      "isSpentArray(bytes32[])": {
        "details": "whether an array of notes is already spent "
      },
      "removeRelayer(address)": {
        "details": "operator can remove a relayer from the whitelist."
      },
      "setBlockCount(uint32)": {
        "details": "operator can change the number of blocks between the current and next reward roots"
      },
      "updateWithdrawVerifier(address)": {
        "details": "allow operator to update SNARK verification keys. This is needed to update keys after the final trusted setup ceremony is held. After that operator rights are supposed to be transferred to zero address"
      },
      "withdraw(bytes,bytes32,bytes32,bytes32,address,address,uint256,uint256)": {
        "details": "Withdraw a deposit from the contract. `proof` is a zkSNARK proof data, and input is an array of circuit public inputs `input` array consists of: - merkle root of all deposits in the contract - hash of unique deposit nullifier to prevent double spends - the recipient of funds - optional fee that goes to the transaction sender (usually a relay)"
      }
    }
  },
  "userdoc": {
    "methods": {}
  }
}