{
  "contractName": "TokenDistribution",
  "abi": [
    {
      "inputs": [
        {
          "internalType": "address",
          "name": "_blenderToken",
          "type": "address"
        }
      ],
      "payable": false,
      "stateMutability": "nonpayable",
      "type": "constructor"
    },
    {
      "constant": true,
      "inputs": [],
      "name": "blenderToken",
      "outputs": [
        {
          "internalType": "address",
          "name": "",
          "type": "address"
        }
      ],
      "payable": false,
      "stateMutability": "view",
      "type": "function"
    },
    {
      "constant": false,
      "inputs": [],
      "name": "distribute",
      "outputs": [],
      "payable": false,
      "stateMutability": "nonpayable",
      "type": "function"
    }
  ],
  "bytecode": "0x608060405234801561001057600080fd5b50604051610f69380380610f698339818101604052602081101561003357600080fd5b5051600080546001600160a01b039092166001600160a01b0319909216919091179055610f04806100656000396000f3fe608060405234801561001057600080fd5b50600436106100365760003560e01c8063e4fc6b6d1461003b578063f46ac0d714610045575b600080fd5b610043610069565b005b61004d610ea1565b604080516001600160a01b039092168252519081900360200190f35b610071610eb0565b5060408051610f00810182527308b6a59ac871755c31c9be3d97feea2667235170815273bda739ba00dce7c929a166a9f3240b1c5482702560208083019190915273dea25b606ba90158235ffda1e5367b13cbb68a7e8284015273a8d76a8bbc935065bcfd69ce52f2defd578942a0606083015273546d390105991e4c4f84d32b9113a9d6d79e893b60808301527382a5a3c77c4675279708f7e9a5b3ca99100aed2a60a083015273fb261cc28a992c0d3b60a74dd8f06efb98c03ee060c0830152730e66eb9b8b5bccfcf828e778ba3aaa01df8093e160e083015273972583e48bb44275bd6b233db998c64ec3c92a3c6101008301527354207deb1846f2fde31399104f9f65b54d8f7b9b610120830152738c1b79d59dc85f7a777ccc589c2aff811a8cd71061014083015273a805ef281aeebf0b4078b13b76da1f77e13da9b061016083015273cbc9fff339fa22a3789757c615f03a26d1a490b461018083015273a3de358a5063e90ff05e554554a8d6f95b3122566101a0830152739cd552f30224a10cdf08efad7dfedd4c46561fcb6101c083015273fa30ebeab60e69e1e2c06a0aa99619165f44d28e6101e08301527337cae8948747ab3b266326ae4da8db34320c6fcf6102008301527330a88709598821e16b8534d0d1418c275b437e1061022083015273f82b3486724a7d4dfda947165116b3467de4288361024083015273b53dccb82c88b90a18382af8b661ef48cd4f6de161026083015273645a98bff83f4847c0166ddd138a5b1032bc85d4610280830152733f2ee5857452742284a71140749ead48cae26c406102a0830152730c939900506edeb05c405917f065b443c768228d6102c0830152739491444845699b3d2f8e46f89a10a3e912dedf946102e0830152739bd0f5132ecbfcf150b066bff57d2914d249706c61030083015273d6101f812dd867f0ff98bc19042ce5361ef61bae610320830152738d1ae04f1afaf95e6ce214629fad8b7022b9de27610340830152738545e92f82f6f413517bf64b519f116952256c4f61036083015273d3b962cb15ce7d73f0a72ffb916b4b63d2dc072c61038083015273f9adff2a6abd11ef10afeea6137952b3d4aa36fb6103a0830152731e2fc5b1cee10f4a50126d7f14396144e3ca23ba6103c083015273a00b9ee52c1ff058b5564eac262e74b954f3c11a6103e083015273e28f7bba552e23429311e19aa054dbb339fcbf4361040083015273dbae150d82579d3f13b8a8899238683b96316de26104208301527336b9b8e83c70ad9e582b94cd48df5e4248bdffcb61044083015273593757b7797f481b9735b618044137963c4466a1610460830152730b179e6d225e09bc7cce0bebebb766cd8c1bfab261048083015273045866c0ec80c64bd9be6d1c86d1e540e0ac31136104a083015273a22aca9a3340b1e73ecdee9bbca9d3dee82bf5356104c083015273f61a55ca33bab80494d91397f20e4bd9a3cde5f96104e083015273d6404d36c47c23648f025bad8d9509bb6626fc3c610500830152736174d9e3dc45435c95ddbd199231a0f40e96533a61052083015273f21fef8031b6f89f18679a38bd58fe56f9c505826105408301527375b38bb73197ce62c8a04d12863d62f7d849747f61056083015273311363a9b8fc7b757fe7720f1062ab0978d59ba76105808301527329474bea443c6b59ec31eca15f66eac4f00edc1c6105a083015273c677638ecdcdc986fc40189b0de8eaea8f37a0496105c083015273a3887361a18b586838deb5fda0131ca6357079ec6105e0830152734985fc9066c31e4c8b6ea4c66a3294125d2f3887610600830152736d98a55a50dbc72d3f248b152a6ff424f67b48df61062083015273a5b424c7f42d110a5fcfdb7509fbde0dd8ae5b956106408301527382d3e1ec601702bcd659bbbac441df8c11bad3a161066083015273a7c4b5259e3a575a34758b8b67f7efab01ab6adf610680830152730e3b519b8d81b19d26beef37727128a22a230bc86106a083015273f338f35fcd0e58fdfa9c818da6845408870707ce6106c0830152733511d4d5dec6897f6cc2606e6d3f0e3d3e68ce896106e083015273a3c09910d8699a95c31bf749fb7ca29f56701b1461070083015273c80366a1f846905a78284590422249410750989c610720830152731c7e8e74b2ed1900ffb40e3a16267fd508d571b8610740830152730938c2e52fc7e5af79f47c14327bd02358a96d9d610760830152736ff8c4179e10be7938bea5ea34f5818db1d2406561078083015273cf0fa72d65400a1d5db7e1f26f487c319d02f0a96107a0830152736c1fa247d5cd9e9d04a49a45007f325449ff0c806107c083015273f7b6a98786437516824ec527543c7361eb21da6a6107e083015273f10ee062e64dcce116a9e6f2a2f05c39c668550f61080083015273665dbd304135dbde01a00c373dd296961a5bebdf61082083015273e7be9ed865115d5ac09cc7462bd0319e64a839ca6108408301527353d1137fda5b287a0b73c32838fbc8a465ec774d610860830152735b1a5f66bc4f4c745a950588a5a8565d711db43d61088083015273e979aa72b9ca4d16c10e4bcfb42638d6c7439bb86108a083015273d200fa06c7bd5c44be4f16e1538e8424871e8b8f6108c083015273e95938043123e35e81de6b09d19a7e109eb6e9fd6108e08301527321a1f8142e60dfa5d3bb88440beeee2430b9fa4361090083015273753bc440b37931939e2da1e90d8096950907a9ed61092083015273c1811ffbb5f0b0e3a76a5d8575d3f661ac1cd217610940830152732100e35c1c56dc097e25a76482bbf2da5e7466196109608301527368d31bfce66a42180f8f5df13539226d777590316109808301527309d649c42ff81694446a8f5f0d2e4a0da057f4b86109a08301527319d268acbc44123d8d0cf897a475eb124fff58b86109c0830152735d1ad68ff6b8d546cce585d08c2c0a17e2c144bf6109e08301527388df47a353b069154fd7f6d0f8a0f3d88bbf4f1a610a0083015273baf332aac2a5e17a5c338f176eb586f6f5b7d3e7610a2083015273048fab1fe674132a174e68e34d19529f8ff56a9f610a408301527342bd54f301bf969a70b3a9cadf6b56b6c23ed379610a6083015273dcacdf0beef8ab7a9c9c3d5ce165de57dc2b43a7610a8083015273eea95c9570f670f15fb66c9eabf542befb2e6726610aa083015273c813756f00983ececc518c0c1bad653212bd5c72610ac083015273246b2672c5d0ad6bc63389e921bd4aa357dc407b610ae08301527322adf9ac068264d615f7cdfebd3950e90483e02a610b0083015273828be474f7ed79c2d2eab289ca95713c7063ce5b610b208301527307991a85bdd9268d3641b9b3e31abdc2a81c9c10610b408301527353bcde3df94626a149e3e0fadef4eeb091ed5744610b6083015273b4e748416d14dd926ed0350317e7242be9f615ff610b80830152734969daf96c0780248b236bc8c1d66b2b5805e8c2610ba08301527311b0774bd2cc0247d0cc59b68dc62cde6594fdb6610bc083015273887587a89b74b9e381a3dcb23562247d84bb3bcb610be083015273e7f2d88d69f7f2bf35c3f288bc2502f67a138505610c0083015273bba84991a295760f9165d92c495c8a6d9822d2c1610c208301527365205134fe17d4bec3dec9669dd48828cb6d39f7610c4083015273749e2a16a54776b9fec23139a4f624db49d9ae1b610c6083015273c3b58a6be4caedb2f4837f2fb5a37f4bb254bc62610c8083015273af6e6cc90aae1232316ce6a4e1b3404ac4b9e17a610ca083015273977362c39a09bc91fa65d107e5ae6a0e6fca3c3a610cc08301527386d0c2a8b51cdb8184d80a42e10a3aa0a85ecae7610ce0830152739468c8190d4cb6dbccb59885bca1011cedc5123f610d00830152738e2924fd9f2cdf4548e0c9f8633575b920f5825c610d2083015273d75d55de6787e1b339cc157e0a5e228c367da427610d408301527371ae1ab5d1ffd9e4a95055089fd21dbe9d9d5b3a610d6083015273daeebb7a0e5ee2d0015045ce21fc76e129973719610d8083015273b330e6624e922c3d164314957a884cc26f67542c610da083015273cf73597f3a101a835f92ca61119e0b7f32872c8d610dc0830152739c276f77bc2de61ea0ce7c7540e3bcd11110ba16610de083015273d0e31f9ab5042d7357ab48c436c6cb9901cc4010610e0083015273db92ad296d044cf1f0368f9a444e0b3de5c36f0b610e2083015273c2ab01a5caf1bc6c75d26de737c2fe215ef56bab610e4083015273e8b54c246d3e2a2aa1ecc0663d95b14dab93ff49610e6083015273c01de2511f9aabbae3d68c5b4903621b30d9c010610e808301527331f695ad4458caf4b491f7ee21d2be74693e653e610ea08301527306905638d3d54b06fea65364eb7248653b497175610ec0830152736dbdf98110e8d32b9e9452ac77d592f9b73c4ed7610ee083015260005483516370a0823160e01b8152306004820152935192936001600160a01b039091169283926370a082319260248082019391829003018186803b158015610d6557600080fd5b505afa158015610d79573d6000803e3d6000fd5b505050506040513d6020811015610d8f57600080fd5b50516a6342fd08f00f637800000014610de2576040805162461bcd60e51b815260206004820152601060248201526f125390d3d4949150d508105353d5539560821b604482015290519081900360640190fd5b60005b6078811015610e9c57816001600160a01b031663a9059cbb848360788110610e0957fe5b602002015169d3c21bcecceda10000006040518363ffffffff1660e01b815260040180836001600160a01b03166001600160a01b0316815260200182815260200192505050602060405180830381600087803b158015610e6857600080fd5b505af1158015610e7c573d6000803e3d6000fd5b505050506040513d6020811015610e9257600080fd5b5050600101610de5565b505050565b6000546001600160a01b031681565b60405180610f000160405280607890602082028038833950919291505056fea265627a7a72315820accae65d6e0557b7e29312213ef978a75e6da9955f2af920370e276cbfc181d264736f6c63430005110032",
  "source": "pragma solidity ^0.5.17;\n\nimport \"./BlenderToken.sol\";\n\ncontract TokenDistribution {\n    address public blenderToken;\n\n    constructor(address _blenderToken) public {\n        blenderToken = _blenderToken;\n    }\n\n    function distribute() external {\n        address payable[120] memory receivers = [\n            0x08B6a59Ac871755C31C9be3d97FeEA2667235170,\n            0xbda739BA00Dce7c929a166A9F3240b1C54827025,\n            0xdEa25b606BA90158235FFDA1E5367b13CbB68a7E,\n            0xA8D76a8Bbc935065BCFd69Ce52f2Defd578942A0,\n            0x546D390105991E4C4F84D32b9113A9D6D79E893b,\n            0x82a5A3C77C4675279708f7e9a5b3cA99100Aed2a,\n            0xfB261cc28a992C0D3B60A74DD8f06efB98c03eE0,\n            0x0e66Eb9b8b5bCCfCf828e778BA3aaa01DF8093e1,\n            0x972583e48Bb44275Bd6B233dB998C64ec3C92a3C,\n            0x54207DEB1846F2fdE31399104f9F65b54D8f7B9B,\n            0x8c1b79d59DC85F7A777CcC589c2AfF811A8cd710,\n            0xa805Ef281AeEBf0b4078B13B76dA1f77E13da9B0,\n            0xCBc9Fff339Fa22A3789757C615F03a26d1A490b4,\n            0xA3DE358a5063E90Ff05E554554A8d6f95B312256,\n            0x9cD552F30224a10cDf08eFAd7DFedd4C46561fCb,\n            0xfA30ebEAB60E69E1E2c06A0aA99619165F44D28E,\n            0x37cAE8948747aB3B266326ae4da8db34320C6FcF,\n            0x30a88709598821E16B8534d0d1418c275b437e10,\n            0xF82B3486724a7d4DFdA947165116B3467dE42883,\n            0xB53dCCB82C88b90a18382AF8b661eF48CD4F6dE1,\n            0x645a98Bff83F4847c0166DDd138A5b1032bC85d4,\n            0x3f2eE5857452742284A71140749Ead48CaE26c40,\n            0x0C939900506Edeb05C405917F065b443c768228D,\n            0x9491444845699b3d2F8e46f89a10A3e912DEDf94,\n            0x9bd0F5132EcBfcf150B066BfF57D2914d249706C,\n            0xD6101F812dd867f0FF98bC19042ce5361ef61BaE,\n            0x8d1aE04f1AfaF95E6Ce214629fAD8b7022B9dE27,\n            0x8545E92F82F6f413517BF64b519F116952256C4f,\n            0xd3B962cB15cE7d73f0a72FFb916B4B63D2dc072c,\n            0xF9aDff2a6ABd11eF10AFeeA6137952B3d4aA36Fb,\n            0x1E2Fc5b1ceE10F4A50126D7F14396144E3Ca23Ba,\n            0xA00B9Ee52c1ff058b5564eAC262E74b954f3C11A,\n            0xe28f7BbA552e23429311e19AA054dbb339FcBF43,\n            0xDbAE150d82579d3f13b8a8899238683b96316DE2,\n            0x36B9B8e83C70aD9E582b94Cd48dF5e4248bdFFCB,\n            0x593757B7797F481b9735B618044137963C4466A1,\n            0x0B179e6d225E09BC7CCE0bebEbb766Cd8C1bFab2,\n            0x045866C0ec80C64bd9bE6d1C86D1e540e0Ac3113,\n            0xa22aCa9a3340b1e73ECdEE9BBCa9d3dee82Bf535,\n            0xF61A55cA33bAb80494D91397f20e4bd9A3cDe5F9,\n            0xD6404d36C47c23648f025Bad8d9509bB6626Fc3C,\n            0x6174D9e3dC45435C95ddbD199231A0F40e96533a,\n            0xf21FEF8031b6f89f18679a38Bd58Fe56F9c50582,\n            0x75b38bb73197ce62C8a04D12863D62F7d849747f,\n            0x311363A9B8fC7B757fE7720f1062aB0978d59Ba7,\n            0x29474bEa443C6b59ec31EcA15f66eac4F00EDC1c,\n            0xc677638EcDcdc986Fc40189b0dE8EaeA8f37A049,\n            0xA3887361a18b586838DEb5fda0131Ca6357079eC,\n            0x4985fC9066C31E4c8b6ea4C66a3294125D2F3887,\n            0x6d98A55a50DbC72D3F248b152A6fF424F67b48Df,\n            0xA5B424C7f42D110A5FCFdb7509fbDe0DD8Ae5B95,\n            0x82d3E1eC601702BCD659BBbac441DF8c11BAD3A1,\n            0xa7C4B5259e3a575A34758B8B67F7EFAB01Ab6Adf,\n            0x0E3b519B8d81B19D26BeEF37727128A22A230Bc8,\n            0xf338F35Fcd0e58FDFA9c818Da6845408870707Ce,\n            0x3511d4d5dec6897f6cC2606E6D3f0E3d3E68cE89,\n            0xa3C09910d8699a95C31Bf749fB7Ca29F56701B14,\n            0xc80366A1F846905A78284590422249410750989C,\n            0x1c7E8E74B2ed1900FfB40e3A16267Fd508d571b8,\n            0x0938c2e52FC7E5af79f47C14327BD02358A96d9d,\n            0x6fF8c4179e10be7938bEA5EA34F5818Db1d24065,\n            0xCf0fa72D65400A1d5Db7e1f26F487C319d02F0a9,\n            0x6C1Fa247d5cD9E9d04A49a45007f325449FF0C80,\n            0xF7b6A98786437516824eC527543C7361eB21da6A,\n            0xf10ee062E64dccE116A9e6f2A2f05C39c668550f,\n            0x665dbD304135dbdE01A00C373Dd296961A5BEbDF,\n            0xE7BE9eD865115D5Ac09cc7462bD0319e64A839ca,\n            0x53d1137FdA5b287A0B73C32838Fbc8A465EC774D,\n            0x5b1A5f66BC4f4C745A950588A5a8565d711Db43d,\n            0xe979aa72b9cA4D16c10e4BCFb42638D6C7439BB8,\n            0xD200fa06c7Bd5c44be4F16e1538E8424871E8b8F,\n            0xE95938043123E35E81dE6B09d19a7E109Eb6e9fd,\n            0x21A1f8142e60DFa5d3bB88440BEEeE2430b9fA43,\n            0x753bC440B37931939e2DA1e90D8096950907A9Ed,\n            0xC1811fFbB5F0b0e3a76a5d8575d3f661Ac1cd217,\n            0x2100e35c1C56dC097E25a76482bBf2da5e746619,\n            0x68d31bFCe66a42180F8f5DF13539226d77759031,\n            0x09D649c42ff81694446a8F5F0D2E4A0DA057F4B8,\n            0x19D268AcBC44123d8D0cF897a475eB124fFf58b8,\n            0x5D1aD68ff6b8d546Cce585d08C2c0a17E2c144bf,\n            0x88DF47A353B069154Fd7f6d0f8A0f3D88bbF4F1a,\n            0xBaF332AAC2A5E17a5c338f176eb586f6F5b7D3E7,\n            0x048FAB1Fe674132A174E68e34d19529F8ff56A9F,\n            0x42BD54F301bf969a70B3A9cADf6B56b6c23eD379,\n            0xdCACDF0beef8AB7A9c9c3d5Ce165De57DC2B43A7,\n            0xeea95C9570F670F15Fb66C9EAbF542bEFb2E6726,\n            0xC813756f00983ecECC518c0c1baD653212Bd5c72,\n            0x246B2672c5d0aD6bc63389e921BD4aA357Dc407b,\n            0x22AdF9Ac068264D615f7CDFEBd3950E90483E02A,\n            0x828bE474F7Ed79c2D2EAb289Ca95713C7063ce5b,\n            0x07991A85bdd9268d3641b9b3E31aBDc2A81C9C10,\n            0x53bCdE3dF94626A149e3e0fAdeF4eEB091Ed5744,\n            0xB4E748416D14DD926Ed0350317E7242bE9f615Ff,\n            0x4969daF96c0780248B236bc8C1d66B2B5805e8C2,\n            0x11b0774BD2cC0247D0Cc59b68DC62CDe6594fdb6,\n            0x887587a89B74b9e381a3DCb23562247D84bB3bCb,\n            0xe7F2d88d69f7F2bF35c3F288bc2502F67a138505,\n            0xBba84991a295760f9165d92c495C8A6D9822D2c1,\n            0x65205134FE17D4beC3deC9669DD48828Cb6d39F7,\n            0x749e2A16A54776b9FEc23139a4f624Db49D9aE1b,\n            0xC3b58A6Be4Caedb2F4837f2FB5A37f4bb254bc62,\n            0xAF6e6cC90AAE1232316ce6A4E1B3404AC4b9e17a,\n            0x977362C39a09Bc91Fa65D107e5ae6A0E6FCa3C3A,\n            0x86d0c2a8b51cdB8184d80a42E10A3aa0A85ECae7,\n            0x9468C8190D4cB6dbccB59885BcA1011CeDc5123F,\n            0x8e2924fd9F2CDf4548E0c9f8633575b920F5825C,\n            0xD75d55dE6787e1B339CC157e0A5e228c367dA427,\n            0x71ae1ab5D1FfD9e4A95055089fD21dbe9D9D5B3A,\n            0xdAEeBb7A0e5eE2D0015045CE21fc76e129973719,\n            0xb330E6624e922c3D164314957a884cc26F67542c,\n            0xCF73597f3A101a835F92Ca61119e0b7f32872C8d,\n            0x9c276f77BC2DE61ea0ce7c7540E3Bcd11110BA16,\n            0xD0e31f9AB5042D7357aB48C436c6cB9901cC4010,\n            0xDB92aD296d044Cf1F0368F9A444e0B3dE5c36f0b,\n            0xc2ab01A5cAF1BC6C75D26dE737c2fe215EF56bAB,\n            0xE8B54C246D3E2A2aa1ecC0663D95b14DaB93fF49,\n            0xc01de2511F9AaBbAe3d68C5b4903621b30D9C010,\n            0x31F695aD4458caf4B491F7EE21d2bE74693e653e,\n            0x06905638D3D54b06fea65364eB7248653b497175,\n            0x6dBdf98110e8D32B9e9452Ac77d592f9B73c4eD7\n        ];\n        Blnd blenderContract = Blnd(blenderToken);\n        require(\n            blenderContract.balanceOf(address(this)) ==\n                120000000000000000000000000,\n            \"INCORRECT AMOUNT\"\n        );\n        for (uint256 i = 0; i < receivers.length; i++) {\n            blenderContract.transfer(receivers[i], 1000000000000000000000000);\n        }\n    }\n}\n",
  "compiler": {
    "name": "solc",
    "version": "0.5.17+commit.d19bba13.Emscripten.clang"
  },
  "schemaVersion": "3.2.4",
  "devdoc": {
    "methods": {}
  },
  "userdoc": {
    "methods": {}
  }
}